{"contracts/ERC1155Token.sol":{"ERC1155Token":{"abi":[{"inputs":[],"stateMutability":"nonpayable","type":"constructor"},{"inputs":[{"internalType":"address","name":"sender","type":"address"},{"internalType":"uint256","name":"balance","type":"uint256"},{"internalType":"uint256","name":"needed","type":"uint256"},{"internalType":"uint256","name":"tokenId","type":"uint256"}],"name":"ERC1155InsufficientBalance","type":"error"},{"inputs":[{"internalType":"address","name":"approver","type":"address"}],"name":"ERC1155InvalidApprover","type":"error"},{"inputs":[{"internalType":"uint256","name":"idsLength","type":"uint256"},{"internalType":"uint256","name":"valuesLength","type":"uint256"}],"name":"ERC1155InvalidArrayLength","type":"error"},{"inputs":[{"internalType":"address","name":"operator","type":"address"}],"name":"ERC1155InvalidOperator","type":"error"},{"inputs":[{"internalType":"address","name":"receiver","type":"address"}],"name":"ERC1155InvalidReceiver","type":"error"},{"inputs":[{"internalType":"address","name":"sender","type":"address"}],"name":"ERC1155InvalidSender","type":"error"},{"inputs":[{"internalType":"address","name":"operator","type":"address"},{"internalType":"address","name":"owner","type":"address"}],"name":"ERC1155MissingApprovalForAll","type":"error"},{"inputs":[{"internalType":"address","name":"owner","type":"address"}],"name":"OwnableInvalidOwner","type":"error"},{"inputs":[{"internalType":"address","name":"account","type":"address"}],"name":"OwnableUnauthorizedAccount","type":"error"},{"anonymous":false,"inputs":[{"indexed":true,"internalType":"address","name":"account","type":"address"},{"indexed":true,"internalType":"address","name":"operator","type":"address"},{"indexed":false,"internalType":"bool","name":"approved","type":"bool"}],"name":"ApprovalForAll","type":"event"},{"anonymous":false,"inputs":[{"indexed":true,"internalType":"address","name":"previousOwner","type":"address"},{"indexed":true,"internalType":"address","name":"newOwner","type":"address"}],"name":"OwnershipTransferred","type":"event"},{"anonymous":false,"inputs":[{"indexed":true,"internalType":"address","name":"operator","type":"address"},{"indexed":true,"internalType":"address","name":"from","type":"address"},{"indexed":true,"internalType":"address","name":"to","type":"address"},{"indexed":false,"internalType":"uint256[]","name":"ids","type":"uint256[]"},{"indexed":false,"internalType":"uint256[]","name":"values","type":"uint256[]"}],"name":"TransferBatch","type":"event"},{"anonymous":false,"inputs":[{"indexed":true,"internalType":"address","name":"operator","type":"address"},{"indexed":true,"internalType":"address","name":"from","type":"address"},{"indexed":true,"internalType":"address","name":"to","type":"address"},{"indexed":false,"internalType":"uint256","name":"id","type":"uint256"},{"indexed":false,"internalType":"uint256","name":"value","type":"uint256"}],"name":"TransferSingle","type":"event"},{"anonymous":false,"inputs":[{"indexed":false,"internalType":"string","name":"value","type":"string"},{"indexed":true,"internalType":"uint256","name":"id","type":"uint256"}],"name":"URI","type":"event"},{"inputs":[{"internalType":"address","name":"account","type":"address"},{"internalType":"uint256","name":"id","type":"uint256"}],"name":"balanceOf","outputs":[{"internalType":"uint256","name":"","type":"uint256"}],"stateMutability":"view","type":"function"},{"inputs":[{"internalType":"address[]","name":"accounts","type":"address[]"},{"internalType":"uint256[]","name":"ids","type":"uint256[]"}],"name":"balanceOfBatch","outputs":[{"internalType":"uint256[]","name":"","type":"uint256[]"}],"stateMutability":"view","type":"function"},{"inputs":[],"name":"baseTokenURI","outputs":[{"internalType":"string","name":"","type":"string"}],"stateMutability":"view","type":"function"},{"inputs":[{"internalType":"address","name":"account","type":"address"},{"internalType":"uint256","name":"id","type":"uint256"},{"internalType":"uint256","name":"value","type":"uint256"}],"name":"burn","outputs":[],"stateMutability":"nonpayable","type":"function"},{"inputs":[{"internalType":"address","name":"account","type":"address"},{"internalType":"uint256[]","name":"ids","type":"uint256[]"},{"internalType":"uint256[]","name":"values","type":"uint256[]"}],"name":"burnBatch","outputs":[],"stateMutability":"nonpayable","type":"function"},{"inputs":[{"internalType":"address","name":"account","type":"address"},{"internalType":"address","name":"operator","type":"address"}],"name":"isApprovedForAll","outputs":[{"internalType":"bool","name":"","type":"bool"}],"stateMutability":"view","type":"function"},{"inputs":[{"internalType":"address","name":"account","type":"address"},{"internalType":"uint256","name":"id","type":"uint256"},{"internalType":"uint256","name":"amount","type":"uint256"},{"internalType":"bytes","name":"data","type":"bytes"}],"name":"mint","outputs":[],"stateMutability":"nonpayable","type":"function"},{"inputs":[{"internalType":"address","name":"to","type":"address"},{"internalType":"uint256[]","name":"ids","type":"uint256[]"},{"internalType":"uint256[]","name":"amounts","type":"uint256[]"},{"internalType":"bytes","name":"data","type":"bytes"}],"name":"mintBatch","outputs":[],"stateMutability":"nonpayable","type":"function"},{"inputs":[],"name":"owner","outputs":[{"internalType":"address","name":"","type":"address"}],"stateMutability":"view","type":"function"},{"inputs":[],"name":"renounceOwnership","outputs":[],"stateMutability":"nonpayable","type":"function"},{"inputs":[{"internalType":"address","name":"from","type":"address"},{"internalType":"address","name":"to","type":"address"},{"internalType":"uint256[]","name":"ids","type":"uint256[]"},{"internalType":"uint256[]","name":"values","type":"uint256[]"},{"internalType":"bytes","name":"data","type":"bytes"}],"name":"safeBatchTransferFrom","outputs":[],"stateMutability":"nonpayable","type":"function"},{"inputs":[{"internalType":"address","name":"from","type":"address"},{"internalType":"address","name":"to","type":"address"},{"internalType":"uint256","name":"id","type":"uint256"},{"internalType":"uint256","name":"value","type":"uint256"},{"internalType":"bytes","name":"data","type":"bytes"}],"name":"safeTransferFrom","outputs":[],"stateMutability":"nonpayable","type":"function"},{"inputs":[{"internalType":"address","name":"operator","type":"address"},{"internalType":"bool","name":"approved","type":"bool"}],"name":"setApprovalForAll","outputs":[],"stateMutability":"nonpayable","type":"function"},{"inputs":[{"internalType":"string","name":"newuri","type":"string"}],"name":"setURI","outputs":[],"stateMutability":"nonpayable","type":"function"},{"inputs":[{"internalType":"bytes4","name":"interfaceId","type":"bytes4"}],"name":"supportsInterface","outputs":[{"internalType":"bool","name":"","type":"bool"}],"stateMutability":"view","type":"function"},{"inputs":[{"internalType":"address","name":"newOwner","type":"address"}],"name":"transferOwnership","outputs":[],"stateMutability":"nonpayable","type":"function"},{"inputs":[{"internalType":"uint256","name":"_id","type":"uint256"}],"name":"uri","outputs":[{"internalType":"string","name":"","type":"string"}],"stateMutability":"view","type":"function"}],"evm":{"bytecode":{"linkReferences":{},"object":"60806040523480156200001157600080fd5b5033604051806020016040528060008152506200003481620000c260201b60201c565b50600073ffffffffffffffffffffffffffffffffffffffff168173ffffffffffffffffffffffffffffffffffffffff1603620000aa5760006040517f1e4fbdf7000000000000000000000000000000000000000000000000000000008152600401620000a19190620001e2565b60405180910390fd5b620000bb81620000d760201b60201c565b5062000560565b8060029081620000d3919062000479565b5050565b6000600360009054906101000a900473ffffffffffffffffffffffffffffffffffffffff16905081600360006101000a81548173ffffffffffffffffffffffffffffffffffffffff021916908373ffffffffffffffffffffffffffffffffffffffff1602179055508173ffffffffffffffffffffffffffffffffffffffff168173ffffffffffffffffffffffffffffffffffffffff167f8be0079c531659141344cd1fd0a4f28419497f9722a3daafe3b4186f6b6457e060405160405180910390a35050565b600073ffffffffffffffffffffffffffffffffffffffff82169050919050565b6000620001ca826200019d565b9050919050565b620001dc81620001bd565b82525050565b6000602082019050620001f96000830184620001d1565b92915050565b600081519050919050565b7f4e487b7100000000000000000000000000000000000000000000000000000000600052604160045260246000fd5b7f4e487b7100000000000000000000000000000000000000000000000000000000600052602260045260246000fd5b600060028204905060018216806200028157607f821691505b60208210810362000297576200029662000239565b5b50919050565b60008190508160005260206000209050919050565b60006020601f8301049050919050565b600082821b905092915050565b600060088302620003017fffffffffffffffffffffffffffffffffffffffffffffffffffffffffffffffff82620002c2565b6200030d8683620002c2565b95508019841693508086168417925050509392505050565b6000819050919050565b6000819050919050565b60006200035a620003546200034e8462000325565b6200032f565b62000325565b9050919050565b6000819050919050565b620003768362000339565b6200038e620003858262000361565b848454620002cf565b825550505050565b600090565b620003a562000396565b620003b28184846200036b565b505050565b5b81811015620003da57620003ce6000826200039b565b600181019050620003b8565b5050565b601f8211156200042957620003f3816200029d565b620003fe84620002b2565b810160208510156200040e578190505b620004266200041d85620002b2565b830182620003b7565b50505b505050565b600082821c905092915050565b60006200044e600019846008026200042e565b1980831691505092915050565b60006200046983836200043b565b9150826002028217905092915050565b6200048482620001ff565b67ffffffffffffffff811115620004a0576200049f6200020a565b5b620004ac825462000268565b620004b9828285620003de565b600060209050601f831160018114620004f15760008415620004dc578287015190505b620004e885826200045b565b86555062000558565b601f19841662000501866200029d565b60005b828110156200052b5784890151825560018201915060208501945060208101905062000504565b868310156200054b578489015162000547601f8916826200043b565b8355505b6001600288020188555050505b505050505050565b6130bf80620005706000396000f3fe608060405234801561001057600080fd5b506004361061010a5760003560e01c8063715018a6116100a2578063d547cfb711610071578063d547cfb71461029f578063e985e9c5146102bd578063f242432a146102ed578063f2fde38b14610309578063f5298aca146103255761010a565b8063715018a61461023f578063731133e9146102495780638da5cb5b14610265578063a22cb465146102835761010a565b80631f7fdffa116100de5780631f7fdffa146101bb5780632eb2c2d6146101d75780634e1273f4146101f35780636b20c454146102235761010a565b8062fdd58e1461010f57806301ffc9a71461013f57806302fe53051461016f5780630e89341c1461018b575b600080fd5b61012960048036038101906101249190611dd8565b610341565b6040516101369190611e27565b60405180910390f35b61015960048036038101906101549190611e9a565b61039b565b6040516101669190611ee2565b60405180910390f35b61018960048036038101906101849190612043565b61047d565b005b6101a560048036038101906101a0919061208c565b61052b565b6040516101b29190612138565b60405180910390f35b6101d560048036038101906101d091906122c3565b61055f565b005b6101f160048036038101906101ec919061237e565b610579565b005b61020d60048036038101906102089190612510565b610621565b60405161021a9190612646565b60405180910390f35b61023d60048036038101906102389190612668565b610730565b005b6102476107dc565b005b610263600480360381019061025e91906126f3565b6107f0565b005b61026d610814565b60405161027a9190612785565b60405180910390f35b61029d600480360381019061029891906127cc565b61083e565b005b6102a7610854565b6040516102b49190612138565b60405180910390f35b6102d760048036038101906102d2919061280c565b6108e2565b6040516102e49190611ee2565b60405180910390f35b6103076004803603810190610302919061284c565b610976565b005b610323600480360381019061031e91906128e3565b610a1e565b005b61033f600480360381019061033a9190612910565b610aa4565b005b600080600083815260200190815260200160002060008473ffffffffffffffffffffffffffffffffffffffff1673ffffffffffffffffffffffffffffffffffffffff16815260200190815260200160002054905092915050565b60007fd9b67a26000000000000000000000000000000000000000000000000000000007bffffffffffffffffffffffffffffffffffffffffffffffffffffffff1916827bffffffffffffffffffffffffffffffffffffffffffffffffffffffff1916148061046657507f0e89341c000000000000000000000000000000000000000000000000000000007bffffffffffffffffffffffffffffffffffffffffffffffffffffffff1916827bffffffffffffffffffffffffffffffffffffffffffffffffffffffff1916145b80610476575061047582610b50565b5b9050919050565b610485610bba565b80600490816104949190612b6f565b50610528600480546104a590612992565b80601f01602080910402602001604051908101604052809291908181526020018280546104d190612992565b801561051e5780601f106104f35761010080835404028352916020019161051e565b820191906000526020600020905b81548152906001019060200180831161050157829003601f168201915b5050505050610c41565b50565b6060600461053883610c54565b604051602001610549929190612d26565b6040516020818303038152906040529050919050565b610567610bba565b61057384848484610d22565b50505050565b6000610583610da8565b90508073ffffffffffffffffffffffffffffffffffffffff168673ffffffffffffffffffffffffffffffffffffffff16141580156105c857506105c686826108e2565b155b1561060c5780866040517fe237d922000000000000000000000000000000000000000000000000000000008152600401610603929190612d59565b60405180910390fd5b6106198686868686610db0565b505050505050565b6060815183511461066d57815183516040517f5b059991000000000000000000000000000000000000000000000000000000008152600401610664929190612d82565b60405180910390fd5b6000835167ffffffffffffffff81111561068a57610689611f18565b5b6040519080825280602002602001820160405280156106b85781602001602082028036833780820191505090505b50905060005b8451811015610725576106f56106dd8287610ea890919063ffffffff16565b6106f08387610ebc90919063ffffffff16565b610341565b82828151811061070857610707612dab565b5b6020026020010181815250508061071e90612e09565b90506106be565b508091505092915050565b610738610da8565b73ffffffffffffffffffffffffffffffffffffffff168373ffffffffffffffffffffffffffffffffffffffff1614158015610781575061077f8361077a610da8565b6108e2565b155b156107cc5761078e610da8565b836040517fe237d9220000000000000000000000000000000000000000000000000000000081526004016107c3929190612d59565b60405180910390fd5b6107d7838383610ed0565b505050565b6107e4610bba565b6107ee6000610f64565b565b6107f8610bba565b6108048484848461102a565b61080d8361052b565b5050505050565b6000600360009054906101000a900473ffffffffffffffffffffffffffffffffffffffff16905090565b610850610849610da8565b83836110c3565b5050565b6004805461086190612992565b80601f016020809104026020016040519081016040528092919081815260200182805461088d90612992565b80156108da5780601f106108af576101008083540402835291602001916108da565b820191906000526020600020905b8154815290600101906020018083116108bd57829003601f168201915b505050505081565b6000600160008473ffffffffffffffffffffffffffffffffffffffff1673ffffffffffffffffffffffffffffffffffffffff16815260200190815260200160002060008373ffffffffffffffffffffffffffffffffffffffff1673ffffffffffffffffffffffffffffffffffffffff16815260200190815260200160002060009054906101000a900460ff16905092915050565b6000610980610da8565b90508073ffffffffffffffffffffffffffffffffffffffff168673ffffffffffffffffffffffffffffffffffffffff16141580156109c557506109c386826108e2565b155b15610a095780866040517fe237d922000000000000000000000000000000000000000000000000000000008152600401610a00929190612d59565b60405180910390fd5b610a168686868686611233565b505050505050565b610a26610bba565b600073ffffffffffffffffffffffffffffffffffffffff168173ffffffffffffffffffffffffffffffffffffffff1603610a985760006040517f1e4fbdf7000000000000000000000000000000000000000000000000000000008152600401610a8f9190612785565b60405180910390fd5b610aa181610f64565b50565b610aac610da8565b73ffffffffffffffffffffffffffffffffffffffff168373ffffffffffffffffffffffffffffffffffffffff1614158015610af55750610af383610aee610da8565b6108e2565b155b15610b4057610b02610da8565b836040517fe237d922000000000000000000000000000000000000000000000000000000008152600401610b37929190612d59565b60405180910390fd5b610b4b83838361133e565b505050565b60007f01ffc9a7000000000000000000000000000000000000000000000000000000007bffffffffffffffffffffffffffffffffffffffffffffffffffffffff1916827bffffffffffffffffffffffffffffffffffffffffffffffffffffffff1916149050919050565b610bc2610da8565b73ffffffffffffffffffffffffffffffffffffffff16610be0610814565b73ffffffffffffffffffffffffffffffffffffffff1614610c3f57610c03610da8565b6040517f118cdaa7000000000000000000000000000000000000000000000000000000008152600401610c369190612785565b60405180910390fd5b565b8060029081610c509190612b6f565b5050565b606060006001610c63846113e5565b01905060008167ffffffffffffffff811115610c8257610c81611f18565b5b6040519080825280601f01601f191660200182016040528015610cb45781602001600182028036833780820191505090505b509050600082602001820190505b600115610d17578080600190039150507f3031323334353637383961626364656600000000000000000000000000000000600a86061a8153600a8581610d0b57610d0a612e51565b5b04945060008503610cc2575b819350505050919050565b600073ffffffffffffffffffffffffffffffffffffffff168473ffffffffffffffffffffffffffffffffffffffff1603610d945760006040517f57f447ce000000000000000000000000000000000000000000000000000000008152600401610d8b9190612785565b60405180910390fd5b610da2600085858585611538565b50505050565b600033905090565b600073ffffffffffffffffffffffffffffffffffffffff168473ffffffffffffffffffffffffffffffffffffffff1603610e225760006040517f57f447ce000000000000000000000000000000000000000000000000000000008152600401610e199190612785565b60405180910390fd5b600073ffffffffffffffffffffffffffffffffffffffff168573ffffffffffffffffffffffffffffffffffffffff1603610e945760006040517f01a83514000000000000000000000000000000000000000000000000000000008152600401610e8b9190612785565b60405180910390fd5b610ea18585858585611538565b5050505050565b600060208202602084010151905092915050565b600060208202602084010151905092915050565b600073ffffffffffffffffffffffffffffffffffffffff168373ffffffffffffffffffffffffffffffffffffffff1603610f425760006040517f01a83514000000000000000000000000000000000000000000000000000000008152600401610f399190612785565b60405180910390fd5b610f5f836000848460405180602001604052806000815250611538565b505050565b6000600360009054906101000a900473ffffffffffffffffffffffffffffffffffffffff16905081600360006101000a81548173ffffffffffffffffffffffffffffffffffffffff021916908373ffffffffffffffffffffffffffffffffffffffff1602179055508173ffffffffffffffffffffffffffffffffffffffff168173ffffffffffffffffffffffffffffffffffffffff167f8be0079c531659141344cd1fd0a4f28419497f9722a3daafe3b4186f6b6457e060405160405180910390a35050565b600073ffffffffffffffffffffffffffffffffffffffff168473ffffffffffffffffffffffffffffffffffffffff160361109c5760006040517f57f447ce0000000000000000000000000000000000000000000000000000000081526004016110939190612785565b60405180910390fd5b6000806110a985856115ea565b915091506110bb600087848487611538565b505050505050565b600073ffffffffffffffffffffffffffffffffffffffff168273ffffffffffffffffffffffffffffffffffffffff16036111355760006040517fced3e10000000000000000000000000000000000000000000000000000000000815260040161112c9190612785565b60405180910390fd5b80600160008573ffffffffffffffffffffffffffffffffffffffff1673ffffffffffffffffffffffffffffffffffffffff16815260200190815260200160002060008473ffffffffffffffffffffffffffffffffffffffff1673ffffffffffffffffffffffffffffffffffffffff16815260200190815260200160002060006101000a81548160ff0219169083151502179055508173ffffffffffffffffffffffffffffffffffffffff168373ffffffffffffffffffffffffffffffffffffffff167f17307eab39ab6107e8899845ad3d59bd9653f200f220920489ca2b5937696c31836040516112269190611ee2565b60405180910390a3505050565b600073ffffffffffffffffffffffffffffffffffffffff168473ffffffffffffffffffffffffffffffffffffffff16036112a55760006040517f57f447ce00000000000000000000000000000000000000000000000000000000815260040161129c9190612785565b60405180910390fd5b600073ffffffffffffffffffffffffffffffffffffffff168573ffffffffffffffffffffffffffffffffffffffff16036113175760006040517f01a8351400000000000000000000000000000000000000000000000000000000815260040161130e9190612785565b60405180910390fd5b60008061132485856115ea565b915091506113358787848487611538565b50505050505050565b600073ffffffffffffffffffffffffffffffffffffffff168373ffffffffffffffffffffffffffffffffffffffff16036113b05760006040517f01a835140000000000000000000000000000000000000000000000000000000081526004016113a79190612785565b60405180910390fd5b6000806113bd84846115ea565b915091506113de856000848460405180602001604052806000815250611538565b5050505050565b600080600090507a184f03e93ff9f4daa797ed6e38ed64bf6a1f0100000000000000008310611443577a184f03e93ff9f4daa797ed6e38ed64bf6a1f010000000000000000838161143957611438612e51565b5b0492506040810190505b6d04ee2d6d415b85acef81000000008310611480576d04ee2d6d415b85acef8100000000838161147657611475612e51565b5b0492506020810190505b662386f26fc1000083106114af57662386f26fc1000083816114a5576114a4612e51565b5b0492506010810190505b6305f5e10083106114d8576305f5e10083816114ce576114cd612e51565b5b0492506008810190505b61271083106114fd5761271083816114f3576114f2612e51565b5b0492506004810190505b60648310611520576064838161151657611515612e51565b5b0492506002810190505b600a831061152f576001810190505b80915050919050565b6115448585858561161a565b600073ffffffffffffffffffffffffffffffffffffffff168473ffffffffffffffffffffffffffffffffffffffff16146115e3576000611582610da8565b905060018451036115d25760006115a3600086610ebc90919063ffffffff16565b905060006115bb600086610ebc90919063ffffffff16565b90506115cb8389898585896119c8565b50506115e1565b6115e0818787878787611b7c565b5b505b5050505050565b60608060405191506001825283602083015260408201905060018152826020820152604081016040529250929050565b805182511461166457815181516040517f5b05999100000000000000000000000000000000000000000000000000000000815260040161165b929190612d82565b60405180910390fd5b600061166e610da8565b905060005b83518110156118835760006116918286610ebc90919063ffffffff16565b905060006116a88386610ebc90919063ffffffff16565b9050600073ffffffffffffffffffffffffffffffffffffffff168873ffffffffffffffffffffffffffffffffffffffff16146117d557600080600084815260200190815260200160002060008a73ffffffffffffffffffffffffffffffffffffffff1673ffffffffffffffffffffffffffffffffffffffff1681526020019081526020016000205490508181101561177d57888183856040517f03dee4c50000000000000000000000000000000000000000000000000000000081526004016117749493929190612e80565b60405180910390fd5b81810360008085815260200190815260200160002060008b73ffffffffffffffffffffffffffffffffffffffff1673ffffffffffffffffffffffffffffffffffffffff16815260200190815260200160002081905550505b600073ffffffffffffffffffffffffffffffffffffffff168773ffffffffffffffffffffffffffffffffffffffff1614611870578060008084815260200190815260200160002060008973ffffffffffffffffffffffffffffffffffffffff1673ffffffffffffffffffffffffffffffffffffffff16815260200190815260200160002060008282546118689190612ec5565b925050819055505b50508061187c90612e09565b9050611673565b5060018351036119425760006118a3600085610ebc90919063ffffffff16565b905060006118bb600085610ebc90919063ffffffff16565b90508573ffffffffffffffffffffffffffffffffffffffff168773ffffffffffffffffffffffffffffffffffffffff168473ffffffffffffffffffffffffffffffffffffffff167fc3d58168c5ae7397731d063d5bbf3d657854427343f4c083240f7aacaa2d0f628585604051611933929190612d82565b60405180910390a450506119c1565b8373ffffffffffffffffffffffffffffffffffffffff168573ffffffffffffffffffffffffffffffffffffffff168273ffffffffffffffffffffffffffffffffffffffff167f4a39dc06d4c0dbc64b70af90fd698a233a518aa5d07e595d983b8c0526c8f7fb86866040516119b8929190612ef9565b60405180910390a45b5050505050565b60008473ffffffffffffffffffffffffffffffffffffffff163b1115611b74578373ffffffffffffffffffffffffffffffffffffffff1663f23a6e6187878686866040518663ffffffff1660e01b8152600401611a29959493929190612f85565b6020604051808303816000875af1925050508015611a6557506040513d601f19601f82011682018060405250810190611a629190612ff4565b60015b611ae9573d8060008114611a95576040519150601f19603f3d011682016040523d82523d6000602084013e611a9a565b606091505b506000815103611ae157846040517f57f447ce000000000000000000000000000000000000000000000000000000008152600401611ad89190612785565b60405180910390fd5b805181602001fd5b63f23a6e6160e01b7bffffffffffffffffffffffffffffffffffffffffffffffffffffffff1916817bffffffffffffffffffffffffffffffffffffffffffffffffffffffff191614611b7257846040517f57f447ce000000000000000000000000000000000000000000000000000000008152600401611b699190612785565b60405180910390fd5b505b505050505050565b60008473ffffffffffffffffffffffffffffffffffffffff163b1115611d28578373ffffffffffffffffffffffffffffffffffffffff1663bc197c8187878686866040518663ffffffff1660e01b8152600401611bdd959493929190613021565b6020604051808303816000875af1925050508015611c1957506040513d601f19601f82011682018060405250810190611c169190612ff4565b60015b611c9d573d8060008114611c49576040519150601f19603f3d011682016040523d82523d6000602084013e611c4e565b606091505b506000815103611c9557846040517f57f447ce000000000000000000000000000000000000000000000000000000008152600401611c8c9190612785565b60405180910390fd5b805181602001fd5b63bc197c8160e01b7bffffffffffffffffffffffffffffffffffffffffffffffffffffffff1916817bffffffffffffffffffffffffffffffffffffffffffffffffffffffff191614611d2657846040517f57f447ce000000000000000000000000000000000000000000000000000000008152600401611d1d9190612785565b60405180910390fd5b505b505050505050565b6000604051905090565b600080fd5b600080fd5b600073ffffffffffffffffffffffffffffffffffffffff82169050919050565b6000611d6f82611d44565b9050919050565b611d7f81611d64565b8114611d8a57600080fd5b50565b600081359050611d9c81611d76565b92915050565b6000819050919050565b611db581611da2565b8114611dc057600080fd5b50565b600081359050611dd281611dac565b92915050565b60008060408385031215611def57611dee611d3a565b5b6000611dfd85828601611d8d565b9250506020611e0e85828601611dc3565b9150509250929050565b611e2181611da2565b82525050565b6000602082019050611e3c6000830184611e18565b92915050565b60007fffffffff0000000000000000000000000000000000000000000000000000000082169050919050565b611e7781611e42565b8114611e8257600080fd5b50565b600081359050611e9481611e6e565b92915050565b600060208284031215611eb057611eaf611d3a565b5b6000611ebe84828501611e85565b91505092915050565b60008115159050919050565b611edc81611ec7565b82525050565b6000602082019050611ef76000830184611ed3565b92915050565b600080fd5b600080fd5b6000601f19601f8301169050919050565b7f4e487b7100000000000000000000000000000000000000000000000000000000600052604160045260246000fd5b611f5082611f07565b810181811067ffffffffffffffff82111715611f6f57611f6e611f18565b5b80604052505050565b6000611f82611d30565b9050611f8e8282611f47565b919050565b600067ffffffffffffffff821115611fae57611fad611f18565b5b611fb782611f07565b9050602081019050919050565b82818337600083830152505050565b6000611fe6611fe184611f93565b611f78565b90508281526020810184848401111561200257612001611f02565b5b61200d848285611fc4565b509392505050565b600082601f83011261202a57612029611efd565b5b813561203a848260208601611fd3565b91505092915050565b60006020828403121561205957612058611d3a565b5b600082013567ffffffffffffffff81111561207757612076611d3f565b5b61208384828501612015565b91505092915050565b6000602082840312156120a2576120a1611d3a565b5b60006120b084828501611dc3565b91505092915050565b600081519050919050565b600082825260208201905092915050565b60005b838110156120f35780820151818401526020810190506120d8565b60008484015250505050565b600061210a826120b9565b61211481856120c4565b93506121248185602086016120d5565b61212d81611f07565b840191505092915050565b6000602082019050818103600083015261215281846120ff565b905092915050565b600067ffffffffffffffff82111561217557612174611f18565b5b602082029050602081019050919050565b600080fd5b600061219e6121998461215a565b611f78565b905080838252602082019050602084028301858111156121c1576121c0612186565b5b835b818110156121ea57806121d68882611dc3565b8452602084019350506020810190506121c3565b5050509392505050565b600082601f83011261220957612208611efd565b5b813561221984826020860161218b565b91505092915050565b600067ffffffffffffffff82111561223d5761223c611f18565b5b61224682611f07565b9050602081019050919050565b600061226661226184612222565b611f78565b90508281526020810184848401111561228257612281611f02565b5b61228d848285611fc4565b509392505050565b600082601f8301126122aa576122a9611efd565b5b81356122ba848260208601612253565b91505092915050565b600080600080608085870312156122dd576122dc611d3a565b5b60006122eb87828801611d8d565b945050602085013567ffffffffffffffff81111561230c5761230b611d3f565b5b612318878288016121f4565b935050604085013567ffffffffffffffff81111561233957612338611d3f565b5b612345878288016121f4565b925050606085013567ffffffffffffffff81111561236657612365611d3f565b5b61237287828801612295565b91505092959194509250565b600080600080600060a0868803121561239a57612399611d3a565b5b60006123a888828901611d8d565b95505060206123b988828901611d8d565b945050604086013567ffffffffffffffff8111156123da576123d9611d3f565b5b6123e6888289016121f4565b935050606086013567ffffffffffffffff81111561240757612406611d3f565b5b612413888289016121f4565b925050608086013567ffffffffffffffff81111561243457612433611d3f565b5b61244088828901612295565b9150509295509295909350565b600067ffffffffffffffff82111561246857612467611f18565b5b602082029050602081019050919050565b600061248c6124878461244d565b611f78565b905080838252602082019050602084028301858111156124af576124ae612186565b5b835b818110156124d857806124c48882611d8d565b8452602084019350506020810190506124b1565b5050509392505050565b600082601f8301126124f7576124f6611efd565b5b8135612507848260208601612479565b91505092915050565b6000806040838503121561252757612526611d3a565b5b600083013567ffffffffffffffff81111561254557612544611d3f565b5b612551858286016124e2565b925050602083013567ffffffffffffffff81111561257257612571611d3f565b5b61257e858286016121f4565b9150509250929050565b600081519050919050565b600082825260208201905092915050565b6000819050602082019050919050565b6125bd81611da2565b82525050565b60006125cf83836125b4565b60208301905092915050565b6000602082019050919050565b60006125f382612588565b6125fd8185612593565b9350612608836125a4565b8060005b8381101561263957815161262088826125c3565b975061262b836125db565b92505060018101905061260c565b5085935050505092915050565b6000602082019050818103600083015261266081846125e8565b905092915050565b60008060006060848603121561268157612680611d3a565b5b600061268f86828701611d8d565b935050602084013567ffffffffffffffff8111156126b0576126af611d3f565b5b6126bc868287016121f4565b925050604084013567ffffffffffffffff8111156126dd576126dc611d3f565b5b6126e9868287016121f4565b9150509250925092565b6000806000806080858703121561270d5761270c611d3a565b5b600061271b87828801611d8d565b945050602061272c87828801611dc3565b935050604061273d87828801611dc3565b925050606085013567ffffffffffffffff81111561275e5761275d611d3f565b5b61276a87828801612295565b91505092959194509250565b61277f81611d64565b82525050565b600060208201905061279a6000830184612776565b92915050565b6127a981611ec7565b81146127b457600080fd5b50565b6000813590506127c6816127a0565b92915050565b600080604083850312156127e3576127e2611d3a565b5b60006127f185828601611d8d565b9250506020612802858286016127b7565b9150509250929050565b6000806040838503121561282357612822611d3a565b5b600061283185828601611d8d565b925050602061284285828601611d8d565b9150509250929050565b600080600080600060a0868803121561286857612867611d3a565b5b600061287688828901611d8d565b955050602061288788828901611d8d565b945050604061289888828901611dc3565b93505060606128a988828901611dc3565b925050608086013567ffffffffffffffff8111156128ca576128c9611d3f565b5b6128d688828901612295565b9150509295509295909350565b6000602082840312156128f9576128f8611d3a565b5b600061290784828501611d8d565b91505092915050565b60008060006060848603121561292957612928611d3a565b5b600061293786828701611d8d565b935050602061294886828701611dc3565b925050604061295986828701611dc3565b9150509250925092565b7f4e487b7100000000000000000000000000000000000000000000000000000000600052602260045260246000fd5b600060028204905060018216806129aa57607f821691505b6020821081036129bd576129bc612963565b5b50919050565b60008190508160005260206000209050919050565b60006020601f8301049050919050565b600082821b905092915050565b600060088302612a257fffffffffffffffffffffffffffffffffffffffffffffffffffffffffffffffff826129e8565b612a2f86836129e8565b95508019841693508086168417925050509392505050565b6000819050919050565b6000612a6c612a67612a6284611da2565b612a47565b611da2565b9050919050565b6000819050919050565b612a8683612a51565b612a9a612a9282612a73565b8484546129f5565b825550505050565b600090565b612aaf612aa2565b612aba818484612a7d565b505050565b5b81811015612ade57612ad3600082612aa7565b600181019050612ac0565b5050565b601f821115612b2357612af4816129c3565b612afd846129d8565b81016020851015612b0c578190505b612b20612b18856129d8565b830182612abf565b50505b505050565b600082821c905092915050565b6000612b4660001984600802612b28565b1980831691505092915050565b6000612b5f8383612b35565b9150826002028217905092915050565b612b78826120b9565b67ffffffffffffffff811115612b9157612b90611f18565b5b612b9b8254612992565b612ba6828285612ae2565b600060209050601f831160018114612bd95760008415612bc7578287015190505b612bd18582612b53565b865550612c39565b601f198416612be7866129c3565b60005b82811015612c0f57848901518255600182019150602085019450602081019050612bea565b86831015612c2c5784890151612c28601f891682612b35565b8355505b6001600288020188555050505b505050505050565b600081905092915050565b60008154612c5981612992565b612c638186612c41565b94506001821660008114612c7e5760018114612c9357612cc6565b60ff1983168652811515820286019350612cc6565b612c9c856129c3565b60005b83811015612cbe57815481890152600182019150602081019050612c9f565b838801955050505b50505092915050565b6000612cda826120b9565b612ce48185612c41565b9350612cf48185602086016120d5565b80840191505092915050565b7f2e6a736f6e000000000000000000000000000000000000000000000000000000815250565b6000612d328285612c4c565b9150612d3e8284612ccf565b9150612d4982612d00565b6005820191508190509392505050565b6000604082019050612d6e6000830185612776565b612d7b6020830184612776565b9392505050565b6000604082019050612d976000830185611e18565b612da46020830184611e18565b9392505050565b7f4e487b7100000000000000000000000000000000000000000000000000000000600052603260045260246000fd5b7f4e487b7100000000000000000000000000000000000000000000000000000000600052601160045260246000fd5b6000612e1482611da2565b91507fffffffffffffffffffffffffffffffffffffffffffffffffffffffffffffffff8203612e4657612e45612dda565b5b600182019050919050565b7f4e487b7100000000000000000000000000000000000000000000000000000000600052601260045260246000fd5b6000608082019050612e956000830187612776565b612ea26020830186611e18565b612eaf6040830185611e18565b612ebc6060830184611e18565b95945050505050565b6000612ed082611da2565b9150612edb83611da2565b9250828201905080821115612ef357612ef2612dda565b5b92915050565b60006040820190508181036000830152612f1381856125e8565b90508181036020830152612f2781846125e8565b90509392505050565b600081519050919050565b600082825260208201905092915050565b6000612f5782612f30565b612f618185612f3b565b9350612f718185602086016120d5565b612f7a81611f07565b840191505092915050565b600060a082019050612f9a6000830188612776565b612fa76020830187612776565b612fb46040830186611e18565b612fc16060830185611e18565b8181036080830152612fd38184612f4c565b90509695505050505050565b600081519050612fee81611e6e565b92915050565b60006020828403121561300a57613009611d3a565b5b600061301884828501612fdf565b91505092915050565b600060a0820190506130366000830188612776565b6130436020830187612776565b818103604083015261305581866125e8565b9050818103606083015261306981856125e8565b9050818103608083015261307d8184612f4c565b9050969550505050505056fea2646970667358221220cea2f80ae3c28625a116cddbfb17602916328a037bcd71a76ea0b43c117c150664736f6c63430008140033","opcodes":"PUSH1 0x80 PUSH1 0x40 MSTORE CALLVALUE DUP1 ISZERO PUSH3 0x11 JUMPI PUSH1 0x0 DUP1 REVERT JUMPDEST POP CALLER PUSH1 0x40 MLOAD DUP1 PUSH1 0x20 ADD PUSH1 0x40 MSTORE DUP1 PUSH1 0x0 DUP2 MSTORE POP PUSH3 0x34 DUP2 PUSH3 0xC2 PUSH1 0x20 SHL PUSH1 0x20 SHR JUMP JUMPDEST POP PUSH1 0x0 PUSH20 0xFFFFFFFFFFFFFFFFFFFFFFFFFFFFFFFFFFFFFFFF AND DUP2 PUSH20 0xFFFFFFFFFFFFFFFFFFFFFFFFFFFFFFFFFFFFFFFF AND SUB PUSH3 0xAA JUMPI PUSH1 0x0 PUSH1 0x40 MLOAD PUSH32 0x1E4FBDF700000000000000000000000000000000000000000000000000000000 DUP2 MSTORE PUSH1 0x4 ADD PUSH3 0xA1 SWAP2 SWAP1 PUSH3 0x1E2 JUMP JUMPDEST PUSH1 0x40 MLOAD DUP1 SWAP2 SUB SWAP1 REVERT JUMPDEST PUSH3 0xBB DUP2 PUSH3 0xD7 PUSH1 0x20 SHL PUSH1 0x20 SHR JUMP JUMPDEST POP PUSH3 0x560 JUMP JUMPDEST DUP1 PUSH1 0x2 SWAP1 DUP2 PUSH3 0xD3 SWAP2 SWAP1 PUSH3 0x479 JUMP JUMPDEST POP POP JUMP JUMPDEST PUSH1 0x0 PUSH1 0x3 PUSH1 0x0 SWAP1 SLOAD SWAP1 PUSH2 0x100 EXP SWAP1 DIV PUSH20 0xFFFFFFFFFFFFFFFFFFFFFFFFFFFFFFFFFFFFFFFF AND SWAP1 POP DUP2 PUSH1 0x3 PUSH1 0x0 PUSH2 0x100 EXP DUP2 SLOAD DUP2 PUSH20 0xFFFFFFFFFFFFFFFFFFFFFFFFFFFFFFFFFFFFFFFF MUL NOT AND SWAP1 DUP4 PUSH20 0xFFFFFFFFFFFFFFFFFFFFFFFFFFFFFFFFFFFFFFFF AND MUL OR SWAP1 SSTORE POP DUP2 PUSH20 0xFFFFFFFFFFFFFFFFFFFFFFFFFFFFFFFFFFFFFFFF AND DUP2 PUSH20 0xFFFFFFFFFFFFFFFFFFFFFFFFFFFFFFFFFFFFFFFF AND PUSH32 0x8BE0079C531659141344CD1FD0A4F28419497F9722A3DAAFE3B4186F6B6457E0 PUSH1 0x40 MLOAD PUSH1 0x40 MLOAD DUP1 SWAP2 SUB SWAP1 LOG3 POP POP JUMP JUMPDEST PUSH1 0x0 PUSH20 0xFFFFFFFFFFFFFFFFFFFFFFFFFFFFFFFFFFFFFFFF DUP3 AND SWAP1 POP SWAP2 SWAP1 POP JUMP JUMPDEST PUSH1 0x0 PUSH3 0x1CA DUP3 PUSH3 0x19D JUMP JUMPDEST SWAP1 POP SWAP2 SWAP1 POP JUMP JUMPDEST PUSH3 0x1DC DUP2 PUSH3 0x1BD JUMP JUMPDEST DUP3 MSTORE POP POP JUMP JUMPDEST PUSH1 0x0 PUSH1 0x20 DUP3 ADD SWAP1 POP PUSH3 0x1F9 PUSH1 0x0 DUP4 ADD DUP5 PUSH3 0x1D1 JUMP JUMPDEST SWAP3 SWAP2 POP POP JUMP JUMPDEST PUSH1 0x0 DUP2 MLOAD SWAP1 POP SWAP2 SWAP1 POP JUMP JUMPDEST PUSH32 0x4E487B7100000000000000000000000000000000000000000000000000000000 PUSH1 0x0 MSTORE PUSH1 0x41 PUSH1 0x4 MSTORE PUSH1 0x24 PUSH1 0x0 REVERT JUMPDEST PUSH32 0x4E487B7100000000000000000000000000000000000000000000000000000000 PUSH1 0x0 MSTORE PUSH1 0x22 PUSH1 0x4 MSTORE PUSH1 0x24 PUSH1 0x0 REVERT JUMPDEST PUSH1 0x0 PUSH1 0x2 DUP3 DIV SWAP1 POP PUSH1 0x1 DUP3 AND DUP1 PUSH3 0x281 JUMPI PUSH1 0x7F DUP3 AND SWAP2 POP JUMPDEST PUSH1 0x20 DUP3 LT DUP2 SUB PUSH3 0x297 JUMPI PUSH3 0x296 PUSH3 0x239 JUMP JUMPDEST JUMPDEST POP SWAP2 SWAP1 POP JUMP JUMPDEST PUSH1 0x0 DUP2 SWAP1 POP DUP2 PUSH1 0x0 MSTORE PUSH1 0x20 PUSH1 0x0 KECCAK256 SWAP1 POP SWAP2 SWAP1 POP JUMP JUMPDEST PUSH1 0x0 PUSH1 0x20 PUSH1 0x1F DUP4 ADD DIV SWAP1 POP SWAP2 SWAP1 POP JUMP JUMPDEST PUSH1 0x0 DUP3 DUP3 SHL SWAP1 POP SWAP3 SWAP2 POP POP JUMP JUMPDEST PUSH1 0x0 PUSH1 0x8 DUP4 MUL PUSH3 0x301 PUSH32 0xFFFFFFFFFFFFFFFFFFFFFFFFFFFFFFFFFFFFFFFFFFFFFFFFFFFFFFFFFFFFFFFF DUP3 PUSH3 0x2C2 JUMP JUMPDEST PUSH3 0x30D DUP7 DUP4 PUSH3 0x2C2 JUMP JUMPDEST SWAP6 POP DUP1 NOT DUP5 AND SWAP4 POP DUP1 DUP7 AND DUP5 OR SWAP3 POP POP POP SWAP4 SWAP3 POP POP POP JUMP JUMPDEST PUSH1 0x0 DUP2 SWAP1 POP SWAP2 SWAP1 POP JUMP JUMPDEST PUSH1 0x0 DUP2 SWAP1 POP SWAP2 SWAP1 POP JUMP JUMPDEST PUSH1 0x0 PUSH3 0x35A PUSH3 0x354 PUSH3 0x34E DUP5 PUSH3 0x325 JUMP JUMPDEST PUSH3 0x32F JUMP JUMPDEST PUSH3 0x325 JUMP JUMPDEST SWAP1 POP SWAP2 SWAP1 POP JUMP JUMPDEST PUSH1 0x0 DUP2 SWAP1 POP SWAP2 SWAP1 POP JUMP JUMPDEST PUSH3 0x376 DUP4 PUSH3 0x339 JUMP JUMPDEST PUSH3 0x38E PUSH3 0x385 DUP3 PUSH3 0x361 JUMP JUMPDEST DUP5 DUP5 SLOAD PUSH3 0x2CF JUMP JUMPDEST DUP3 SSTORE POP POP POP POP JUMP JUMPDEST PUSH1 0x0 SWAP1 JUMP JUMPDEST PUSH3 0x3A5 PUSH3 0x396 JUMP JUMPDEST PUSH3 0x3B2 DUP2 DUP5 DUP5 PUSH3 0x36B JUMP JUMPDEST POP POP POP JUMP JUMPDEST JUMPDEST DUP2 DUP2 LT ISZERO PUSH3 0x3DA JUMPI PUSH3 0x3CE PUSH1 0x0 DUP3 PUSH3 0x39B JUMP JUMPDEST PUSH1 0x1 DUP2 ADD SWAP1 POP PUSH3 0x3B8 JUMP JUMPDEST POP POP JUMP JUMPDEST PUSH1 0x1F DUP3 GT ISZERO PUSH3 0x429 JUMPI PUSH3 0x3F3 DUP2 PUSH3 0x29D JUMP JUMPDEST PUSH3 0x3FE DUP5 PUSH3 0x2B2 JUMP JUMPDEST DUP2 ADD PUSH1 0x20 DUP6 LT ISZERO PUSH3 0x40E JUMPI DUP2 SWAP1 POP JUMPDEST PUSH3 0x426 PUSH3 0x41D DUP6 PUSH3 0x2B2 JUMP JUMPDEST DUP4 ADD DUP3 PUSH3 0x3B7 JUMP JUMPDEST POP POP JUMPDEST POP POP POP JUMP JUMPDEST PUSH1 0x0 DUP3 DUP3 SHR SWAP1 POP SWAP3 SWAP2 POP POP JUMP JUMPDEST PUSH1 0x0 PUSH3 0x44E PUSH1 0x0 NOT DUP5 PUSH1 0x8 MUL PUSH3 0x42E JUMP JUMPDEST NOT DUP1 DUP4 AND SWAP2 POP POP SWAP3 SWAP2 POP POP JUMP JUMPDEST PUSH1 0x0 PUSH3 0x469 DUP4 DUP4 PUSH3 0x43B JUMP JUMPDEST SWAP2 POP DUP3 PUSH1 0x2 MUL DUP3 OR SWAP1 POP SWAP3 SWAP2 POP POP JUMP JUMPDEST PUSH3 0x484 DUP3 PUSH3 0x1FF JUMP JUMPDEST PUSH8 0xFFFFFFFFFFFFFFFF DUP2 GT ISZERO PUSH3 0x4A0 JUMPI PUSH3 0x49F PUSH3 0x20A JUMP JUMPDEST JUMPDEST PUSH3 0x4AC DUP3 SLOAD PUSH3 0x268 JUMP JUMPDEST PUSH3 0x4B9 DUP3 DUP3 DUP6 PUSH3 0x3DE JUMP JUMPDEST PUSH1 0x0 PUSH1 0x20 SWAP1 POP PUSH1 0x1F DUP4 GT PUSH1 0x1 DUP2 EQ PUSH3 0x4F1 JUMPI PUSH1 0x0 DUP5 ISZERO PUSH3 0x4DC JUMPI DUP3 DUP8 ADD MLOAD SWAP1 POP JUMPDEST PUSH3 0x4E8 DUP6 DUP3 PUSH3 0x45B JUMP JUMPDEST DUP7 SSTORE POP PUSH3 0x558 JUMP JUMPDEST PUSH1 0x1F NOT DUP5 AND PUSH3 0x501 DUP7 PUSH3 0x29D JUMP JUMPDEST PUSH1 0x0 JUMPDEST DUP3 DUP2 LT ISZERO PUSH3 0x52B JUMPI DUP5 DUP10 ADD MLOAD DUP3 SSTORE PUSH1 0x1 DUP3 ADD SWAP2 POP PUSH1 0x20 DUP6 ADD SWAP5 POP PUSH1 0x20 DUP2 ADD SWAP1 POP PUSH3 0x504 JUMP JUMPDEST DUP7 DUP4 LT ISZERO PUSH3 0x54B JUMPI DUP5 DUP10 ADD MLOAD PUSH3 0x547 PUSH1 0x1F DUP10 AND DUP3 PUSH3 0x43B JUMP JUMPDEST DUP4 SSTORE POP JUMPDEST PUSH1 0x1 PUSH1 0x2 DUP9 MUL ADD DUP9 SSTORE POP POP POP JUMPDEST POP POP POP POP POP POP JUMP JUMPDEST PUSH2 0x30BF DUP1 PUSH3 0x570 PUSH1 0x0 CODECOPY PUSH1 0x0 RETURN INVALID PUSH1 0x80 PUSH1 0x40 MSTORE CALLVALUE DUP1 ISZERO PUSH2 0x10 JUMPI PUSH1 0x0 DUP1 REVERT JUMPDEST POP PUSH1 0x4 CALLDATASIZE LT PUSH2 0x10A JUMPI PUSH1 0x0 CALLDATALOAD PUSH1 0xE0 SHR DUP1 PUSH4 0x715018A6 GT PUSH2 0xA2 JUMPI DUP1 PUSH4 0xD547CFB7 GT PUSH2 0x71 JUMPI DUP1 PUSH4 0xD547CFB7 EQ PUSH2 0x29F JUMPI DUP1 PUSH4 0xE985E9C5 EQ PUSH2 0x2BD JUMPI DUP1 PUSH4 0xF242432A EQ PUSH2 0x2ED JUMPI DUP1 PUSH4 0xF2FDE38B EQ PUSH2 0x309 JUMPI DUP1 PUSH4 0xF5298ACA EQ PUSH2 0x325 JUMPI PUSH2 0x10A JUMP JUMPDEST DUP1 PUSH4 0x715018A6 EQ PUSH2 0x23F JUMPI DUP1 PUSH4 0x731133E9 EQ PUSH2 0x249 JUMPI DUP1 PUSH4 0x8DA5CB5B EQ PUSH2 0x265 JUMPI DUP1 PUSH4 0xA22CB465 EQ PUSH2 0x283 JUMPI PUSH2 0x10A JUMP JUMPDEST DUP1 PUSH4 0x1F7FDFFA GT PUSH2 0xDE JUMPI DUP1 PUSH4 0x1F7FDFFA EQ PUSH2 0x1BB JUMPI DUP1 PUSH4 0x2EB2C2D6 EQ PUSH2 0x1D7 JUMPI DUP1 PUSH4 0x4E1273F4 EQ PUSH2 0x1F3 JUMPI DUP1 PUSH4 0x6B20C454 EQ PUSH2 0x223 JUMPI PUSH2 0x10A JUMP JUMPDEST DUP1 PUSH3 0xFDD58E EQ PUSH2 0x10F JUMPI DUP1 PUSH4 0x1FFC9A7 EQ PUSH2 0x13F JUMPI DUP1 PUSH4 0x2FE5305 EQ PUSH2 0x16F JUMPI DUP1 PUSH4 0xE89341C EQ PUSH2 0x18B JUMPI JUMPDEST PUSH1 0x0 DUP1 REVERT JUMPDEST PUSH2 0x129 PUSH1 0x4 DUP1 CALLDATASIZE SUB DUP2 ADD SWAP1 PUSH2 0x124 SWAP2 SWAP1 PUSH2 0x1DD8 JUMP JUMPDEST PUSH2 0x341 JUMP JUMPDEST PUSH1 0x40 MLOAD PUSH2 0x136 SWAP2 SWAP1 PUSH2 0x1E27 JUMP JUMPDEST PUSH1 0x40 MLOAD DUP1 SWAP2 SUB SWAP1 RETURN JUMPDEST PUSH2 0x159 PUSH1 0x4 DUP1 CALLDATASIZE SUB DUP2 ADD SWAP1 PUSH2 0x154 SWAP2 SWAP1 PUSH2 0x1E9A JUMP JUMPDEST PUSH2 0x39B JUMP JUMPDEST PUSH1 0x40 MLOAD PUSH2 0x166 SWAP2 SWAP1 PUSH2 0x1EE2 JUMP JUMPDEST PUSH1 0x40 MLOAD DUP1 SWAP2 SUB SWAP1 RETURN JUMPDEST PUSH2 0x189 PUSH1 0x4 DUP1 CALLDATASIZE SUB DUP2 ADD SWAP1 PUSH2 0x184 SWAP2 SWAP1 PUSH2 0x2043 JUMP JUMPDEST PUSH2 0x47D JUMP JUMPDEST STOP JUMPDEST PUSH2 0x1A5 PUSH1 0x4 DUP1 CALLDATASIZE SUB DUP2 ADD SWAP1 PUSH2 0x1A0 SWAP2 SWAP1 PUSH2 0x208C JUMP JUMPDEST PUSH2 0x52B JUMP JUMPDEST PUSH1 0x40 MLOAD PUSH2 0x1B2 SWAP2 SWAP1 PUSH2 0x2138 JUMP JUMPDEST PUSH1 0x40 MLOAD DUP1 SWAP2 SUB SWAP1 RETURN JUMPDEST PUSH2 0x1D5 PUSH1 0x4 DUP1 CALLDATASIZE SUB DUP2 ADD SWAP1 PUSH2 0x1D0 SWAP2 SWAP1 PUSH2 0x22C3 JUMP JUMPDEST PUSH2 0x55F JUMP JUMPDEST STOP JUMPDEST PUSH2 0x1F1 PUSH1 0x4 DUP1 CALLDATASIZE SUB DUP2 ADD SWAP1 PUSH2 0x1EC SWAP2 SWAP1 PUSH2 0x237E JUMP JUMPDEST PUSH2 0x579 JUMP JUMPDEST STOP JUMPDEST PUSH2 0x20D PUSH1 0x4 DUP1 CALLDATASIZE SUB DUP2 ADD SWAP1 PUSH2 0x208 SWAP2 SWAP1 PUSH2 0x2510 JUMP JUMPDEST PUSH2 0x621 JUMP JUMPDEST PUSH1 0x40 MLOAD PUSH2 0x21A SWAP2 SWAP1 PUSH2 0x2646 JUMP JUMPDEST PUSH1 0x40 MLOAD DUP1 SWAP2 SUB SWAP1 RETURN JUMPDEST PUSH2 0x23D PUSH1 0x4 DUP1 CALLDATASIZE SUB DUP2 ADD SWAP1 PUSH2 0x238 SWAP2 SWAP1 PUSH2 0x2668 JUMP JUMPDEST PUSH2 0x730 JUMP JUMPDEST STOP JUMPDEST PUSH2 0x247 PUSH2 0x7DC JUMP JUMPDEST STOP JUMPDEST PUSH2 0x263 PUSH1 0x4 DUP1 CALLDATASIZE SUB DUP2 ADD SWAP1 PUSH2 0x25E SWAP2 SWAP1 PUSH2 0x26F3 JUMP JUMPDEST PUSH2 0x7F0 JUMP JUMPDEST STOP JUMPDEST PUSH2 0x26D PUSH2 0x814 JUMP JUMPDEST PUSH1 0x40 MLOAD PUSH2 0x27A SWAP2 SWAP1 PUSH2 0x2785 JUMP JUMPDEST PUSH1 0x40 MLOAD DUP1 SWAP2 SUB SWAP1 RETURN JUMPDEST PUSH2 0x29D PUSH1 0x4 DUP1 CALLDATASIZE SUB DUP2 ADD SWAP1 PUSH2 0x298 SWAP2 SWAP1 PUSH2 0x27CC JUMP JUMPDEST PUSH2 0x83E JUMP JUMPDEST STOP JUMPDEST PUSH2 0x2A7 PUSH2 0x854 JUMP JUMPDEST PUSH1 0x40 MLOAD PUSH2 0x2B4 SWAP2 SWAP1 PUSH2 0x2138 JUMP JUMPDEST PUSH1 0x40 MLOAD DUP1 SWAP2 SUB SWAP1 RETURN JUMPDEST PUSH2 0x2D7 PUSH1 0x4 DUP1 CALLDATASIZE SUB DUP2 ADD SWAP1 PUSH2 0x2D2 SWAP2 SWAP1 PUSH2 0x280C JUMP JUMPDEST PUSH2 0x8E2 JUMP JUMPDEST PUSH1 0x40 MLOAD PUSH2 0x2E4 SWAP2 SWAP1 PUSH2 0x1EE2 JUMP JUMPDEST PUSH1 0x40 MLOAD DUP1 SWAP2 SUB SWAP1 RETURN JUMPDEST PUSH2 0x307 PUSH1 0x4 DUP1 CALLDATASIZE SUB DUP2 ADD SWAP1 PUSH2 0x302 SWAP2 SWAP1 PUSH2 0x284C JUMP JUMPDEST PUSH2 0x976 JUMP JUMPDEST STOP JUMPDEST PUSH2 0x323 PUSH1 0x4 DUP1 CALLDATASIZE SUB DUP2 ADD SWAP1 PUSH2 0x31E SWAP2 SWAP1 PUSH2 0x28E3 JUMP JUMPDEST PUSH2 0xA1E JUMP JUMPDEST STOP JUMPDEST PUSH2 0x33F PUSH1 0x4 DUP1 CALLDATASIZE SUB DUP2 ADD SWAP1 PUSH2 0x33A SWAP2 SWAP1 PUSH2 0x2910 JUMP JUMPDEST PUSH2 0xAA4 JUMP JUMPDEST STOP JUMPDEST PUSH1 0x0 DUP1 PUSH1 0x0 DUP4 DUP2 MSTORE PUSH1 0x20 ADD SWAP1 DUP2 MSTORE PUSH1 0x20 ADD PUSH1 0x0 KECCAK256 PUSH1 0x0 DUP5 PUSH20 0xFFFFFFFFFFFFFFFFFFFFFFFFFFFFFFFFFFFFFFFF AND PUSH20 0xFFFFFFFFFFFFFFFFFFFFFFFFFFFFFFFFFFFFFFFF AND DUP2 MSTORE PUSH1 0x20 ADD SWAP1 DUP2 MSTORE PUSH1 0x20 ADD PUSH1 0x0 KECCAK256 SLOAD SWAP1 POP SWAP3 SWAP2 POP POP JUMP JUMPDEST PUSH1 0x0 PUSH32 0xD9B67A2600000000000000000000000000000000000000000000000000000000 PUSH28 0xFFFFFFFFFFFFFFFFFFFFFFFFFFFFFFFFFFFFFFFFFFFFFFFFFFFFFFFF NOT AND DUP3 PUSH28 0xFFFFFFFFFFFFFFFFFFFFFFFFFFFFFFFFFFFFFFFFFFFFFFFFFFFFFFFF NOT AND EQ DUP1 PUSH2 0x466 JUMPI POP PUSH32 0xE89341C00000000000000000000000000000000000000000000000000000000 PUSH28 0xFFFFFFFFFFFFFFFFFFFFFFFFFFFFFFFFFFFFFFFFFFFFFFFFFFFFFFFF NOT AND DUP3 PUSH28 0xFFFFFFFFFFFFFFFFFFFFFFFFFFFFFFFFFFFFFFFFFFFFFFFFFFFFFFFF NOT AND EQ JUMPDEST DUP1 PUSH2 0x476 JUMPI POP PUSH2 0x475 DUP3 PUSH2 0xB50 JUMP JUMPDEST JUMPDEST SWAP1 POP SWAP2 SWAP1 POP JUMP JUMPDEST PUSH2 0x485 PUSH2 0xBBA JUMP JUMPDEST DUP1 PUSH1 0x4 SWAP1 DUP2 PUSH2 0x494 SWAP2 SWAP1 PUSH2 0x2B6F JUMP JUMPDEST POP PUSH2 0x528 PUSH1 0x4 DUP1 SLOAD PUSH2 0x4A5 SWAP1 PUSH2 0x2992 JUMP JUMPDEST DUP1 PUSH1 0x1F ADD PUSH1 0x20 DUP1 SWAP2 DIV MUL PUSH1 0x20 ADD PUSH1 0x40 MLOAD SWAP1 DUP2 ADD PUSH1 0x40 MSTORE DUP1 SWAP3 SWAP2 SWAP1 DUP2 DUP2 MSTORE PUSH1 0x20 ADD DUP3 DUP1 SLOAD PUSH2 0x4D1 SWAP1 PUSH2 0x2992 JUMP JUMPDEST DUP1 ISZERO PUSH2 0x51E JUMPI DUP1 PUSH1 0x1F LT PUSH2 0x4F3 JUMPI PUSH2 0x100 DUP1 DUP4 SLOAD DIV MUL DUP4 MSTORE SWAP2 PUSH1 0x20 ADD SWAP2 PUSH2 0x51E JUMP JUMPDEST DUP3 ADD SWAP2 SWAP1 PUSH1 0x0 MSTORE PUSH1 0x20 PUSH1 0x0 KECCAK256 SWAP1 JUMPDEST DUP2 SLOAD DUP2 MSTORE SWAP1 PUSH1 0x1 ADD SWAP1 PUSH1 0x20 ADD DUP1 DUP4 GT PUSH2 0x501 JUMPI DUP3 SWAP1 SUB PUSH1 0x1F AND DUP3 ADD SWAP2 JUMPDEST POP POP POP POP POP PUSH2 0xC41 JUMP JUMPDEST POP JUMP JUMPDEST PUSH1 0x60 PUSH1 0x4 PUSH2 0x538 DUP4 PUSH2 0xC54 JUMP JUMPDEST PUSH1 0x40 MLOAD PUSH1 0x20 ADD PUSH2 0x549 SWAP3 SWAP2 SWAP1 PUSH2 0x2D26 JUMP JUMPDEST PUSH1 0x40 MLOAD PUSH1 0x20 DUP2 DUP4 SUB SUB DUP2 MSTORE SWAP1 PUSH1 0x40 MSTORE SWAP1 POP SWAP2 SWAP1 POP JUMP JUMPDEST PUSH2 0x567 PUSH2 0xBBA JUMP JUMPDEST PUSH2 0x573 DUP5 DUP5 DUP5 DUP5 PUSH2 0xD22 JUMP JUMPDEST POP POP POP POP JUMP JUMPDEST PUSH1 0x0 PUSH2 0x583 PUSH2 0xDA8 JUMP JUMPDEST SWAP1 POP DUP1 PUSH20 0xFFFFFFFFFFFFFFFFFFFFFFFFFFFFFFFFFFFFFFFF AND DUP7 PUSH20 0xFFFFFFFFFFFFFFFFFFFFFFFFFFFFFFFFFFFFFFFF AND EQ ISZERO DUP1 ISZERO PUSH2 0x5C8 JUMPI POP PUSH2 0x5C6 DUP7 DUP3 PUSH2 0x8E2 JUMP JUMPDEST ISZERO JUMPDEST ISZERO PUSH2 0x60C JUMPI DUP1 DUP7 PUSH1 0x40 MLOAD PUSH32 0xE237D92200000000000000000000000000000000000000000000000000000000 DUP2 MSTORE PUSH1 0x4 ADD PUSH2 0x603 SWAP3 SWAP2 SWAP1 PUSH2 0x2D59 JUMP JUMPDEST PUSH1 0x40 MLOAD DUP1 SWAP2 SUB SWAP1 REVERT JUMPDEST PUSH2 0x619 DUP7 DUP7 DUP7 DUP7 DUP7 PUSH2 0xDB0 JUMP JUMPDEST POP POP POP POP POP POP JUMP JUMPDEST PUSH1 0x60 DUP2 MLOAD DUP4 MLOAD EQ PUSH2 0x66D JUMPI DUP2 MLOAD DUP4 MLOAD PUSH1 0x40 MLOAD PUSH32 0x5B05999100000000000000000000000000000000000000000000000000000000 DUP2 MSTORE PUSH1 0x4 ADD PUSH2 0x664 SWAP3 SWAP2 SWAP1 PUSH2 0x2D82 JUMP JUMPDEST PUSH1 0x40 MLOAD DUP1 SWAP2 SUB SWAP1 REVERT JUMPDEST PUSH1 0x0 DUP4 MLOAD PUSH8 0xFFFFFFFFFFFFFFFF DUP2 GT ISZERO PUSH2 0x68A JUMPI PUSH2 0x689 PUSH2 0x1F18 JUMP JUMPDEST JUMPDEST PUSH1 0x40 MLOAD SWAP1 DUP1 DUP3 MSTORE DUP1 PUSH1 0x20 MUL PUSH1 0x20 ADD DUP3 ADD PUSH1 0x40 MSTORE DUP1 ISZERO PUSH2 0x6B8 JUMPI DUP2 PUSH1 0x20 ADD PUSH1 0x20 DUP3 MUL DUP1 CALLDATASIZE DUP4 CALLDATACOPY DUP1 DUP3 ADD SWAP2 POP POP SWAP1 POP JUMPDEST POP SWAP1 POP PUSH1 0x0 JUMPDEST DUP5 MLOAD DUP2 LT ISZERO PUSH2 0x725 JUMPI PUSH2 0x6F5 PUSH2 0x6DD DUP3 DUP8 PUSH2 0xEA8 SWAP1 SWAP2 SWAP1 PUSH4 0xFFFFFFFF AND JUMP JUMPDEST PUSH2 0x6F0 DUP4 DUP8 PUSH2 0xEBC SWAP1 SWAP2 SWAP1 PUSH4 0xFFFFFFFF AND JUMP JUMPDEST PUSH2 0x341 JUMP JUMPDEST DUP3 DUP3 DUP2 MLOAD DUP2 LT PUSH2 0x708 JUMPI PUSH2 0x707 PUSH2 0x2DAB JUMP JUMPDEST JUMPDEST PUSH1 0x20 MUL PUSH1 0x20 ADD ADD DUP2 DUP2 MSTORE POP POP DUP1 PUSH2 0x71E SWAP1 PUSH2 0x2E09 JUMP JUMPDEST SWAP1 POP PUSH2 0x6BE JUMP JUMPDEST POP DUP1 SWAP2 POP POP SWAP3 SWAP2 POP POP JUMP JUMPDEST PUSH2 0x738 PUSH2 0xDA8 JUMP JUMPDEST PUSH20 0xFFFFFFFFFFFFFFFFFFFFFFFFFFFFFFFFFFFFFFFF AND DUP4 PUSH20 0xFFFFFFFFFFFFFFFFFFFFFFFFFFFFFFFFFFFFFFFF AND EQ ISZERO DUP1 ISZERO PUSH2 0x781 JUMPI POP PUSH2 0x77F DUP4 PUSH2 0x77A PUSH2 0xDA8 JUMP JUMPDEST PUSH2 0x8E2 JUMP JUMPDEST ISZERO JUMPDEST ISZERO PUSH2 0x7CC JUMPI PUSH2 0x78E PUSH2 0xDA8 JUMP JUMPDEST DUP4 PUSH1 0x40 MLOAD PUSH32 0xE237D92200000000000000000000000000000000000000000000000000000000 DUP2 MSTORE PUSH1 0x4 ADD PUSH2 0x7C3 SWAP3 SWAP2 SWAP1 PUSH2 0x2D59 JUMP JUMPDEST PUSH1 0x40 MLOAD DUP1 SWAP2 SUB SWAP1 REVERT JUMPDEST PUSH2 0x7D7 DUP4 DUP4 DUP4 PUSH2 0xED0 JUMP JUMPDEST POP POP POP JUMP JUMPDEST PUSH2 0x7E4 PUSH2 0xBBA JUMP JUMPDEST PUSH2 0x7EE PUSH1 0x0 PUSH2 0xF64 JUMP JUMPDEST JUMP JUMPDEST PUSH2 0x7F8 PUSH2 0xBBA JUMP JUMPDEST PUSH2 0x804 DUP5 DUP5 DUP5 DUP5 PUSH2 0x102A JUMP JUMPDEST PUSH2 0x80D DUP4 PUSH2 0x52B JUMP JUMPDEST POP POP POP POP POP JUMP JUMPDEST PUSH1 0x0 PUSH1 0x3 PUSH1 0x0 SWAP1 SLOAD SWAP1 PUSH2 0x100 EXP SWAP1 DIV PUSH20 0xFFFFFFFFFFFFFFFFFFFFFFFFFFFFFFFFFFFFFFFF AND SWAP1 POP SWAP1 JUMP JUMPDEST PUSH2 0x850 PUSH2 0x849 PUSH2 0xDA8 JUMP JUMPDEST DUP4 DUP4 PUSH2 0x10C3 JUMP JUMPDEST POP POP JUMP JUMPDEST PUSH1 0x4 DUP1 SLOAD PUSH2 0x861 SWAP1 PUSH2 0x2992 JUMP JUMPDEST DUP1 PUSH1 0x1F ADD PUSH1 0x20 DUP1 SWAP2 DIV MUL PUSH1 0x20 ADD PUSH1 0x40 MLOAD SWAP1 DUP2 ADD PUSH1 0x40 MSTORE DUP1 SWAP3 SWAP2 SWAP1 DUP2 DUP2 MSTORE PUSH1 0x20 ADD DUP3 DUP1 SLOAD PUSH2 0x88D SWAP1 PUSH2 0x2992 JUMP JUMPDEST DUP1 ISZERO PUSH2 0x8DA JUMPI DUP1 PUSH1 0x1F LT PUSH2 0x8AF JUMPI PUSH2 0x100 DUP1 DUP4 SLOAD DIV MUL DUP4 MSTORE SWAP2 PUSH1 0x20 ADD SWAP2 PUSH2 0x8DA JUMP JUMPDEST DUP3 ADD SWAP2 SWAP1 PUSH1 0x0 MSTORE PUSH1 0x20 PUSH1 0x0 KECCAK256 SWAP1 JUMPDEST DUP2 SLOAD DUP2 MSTORE SWAP1 PUSH1 0x1 ADD SWAP1 PUSH1 0x20 ADD DUP1 DUP4 GT PUSH2 0x8BD JUMPI DUP3 SWAP1 SUB PUSH1 0x1F AND DUP3 ADD SWAP2 JUMPDEST POP POP POP POP POP DUP2 JUMP JUMPDEST PUSH1 0x0 PUSH1 0x1 PUSH1 0x0 DUP5 PUSH20 0xFFFFFFFFFFFFFFFFFFFFFFFFFFFFFFFFFFFFFFFF AND PUSH20 0xFFFFFFFFFFFFFFFFFFFFFFFFFFFFFFFFFFFFFFFF AND DUP2 MSTORE PUSH1 0x20 ADD SWAP1 DUP2 MSTORE PUSH1 0x20 ADD PUSH1 0x0 KECCAK256 PUSH1 0x0 DUP4 PUSH20 0xFFFFFFFFFFFFFFFFFFFFFFFFFFFFFFFFFFFFFFFF AND PUSH20 0xFFFFFFFFFFFFFFFFFFFFFFFFFFFFFFFFFFFFFFFF AND DUP2 MSTORE PUSH1 0x20 ADD SWAP1 DUP2 MSTORE PUSH1 0x20 ADD PUSH1 0x0 KECCAK256 PUSH1 0x0 SWAP1 SLOAD SWAP1 PUSH2 0x100 EXP SWAP1 DIV PUSH1 0xFF AND SWAP1 POP SWAP3 SWAP2 POP POP JUMP JUMPDEST PUSH1 0x0 PUSH2 0x980 PUSH2 0xDA8 JUMP JUMPDEST SWAP1 POP DUP1 PUSH20 0xFFFFFFFFFFFFFFFFFFFFFFFFFFFFFFFFFFFFFFFF AND DUP7 PUSH20 0xFFFFFFFFFFFFFFFFFFFFFFFFFFFFFFFFFFFFFFFF AND EQ ISZERO DUP1 ISZERO PUSH2 0x9C5 JUMPI POP PUSH2 0x9C3 DUP7 DUP3 PUSH2 0x8E2 JUMP JUMPDEST ISZERO JUMPDEST ISZERO PUSH2 0xA09 JUMPI DUP1 DUP7 PUSH1 0x40 MLOAD PUSH32 0xE237D92200000000000000000000000000000000000000000000000000000000 DUP2 MSTORE PUSH1 0x4 ADD PUSH2 0xA00 SWAP3 SWAP2 SWAP1 PUSH2 0x2D59 JUMP JUMPDEST PUSH1 0x40 MLOAD DUP1 SWAP2 SUB SWAP1 REVERT JUMPDEST PUSH2 0xA16 DUP7 DUP7 DUP7 DUP7 DUP7 PUSH2 0x1233 JUMP JUMPDEST POP POP POP POP POP POP JUMP JUMPDEST PUSH2 0xA26 PUSH2 0xBBA JUMP JUMPDEST PUSH1 0x0 PUSH20 0xFFFFFFFFFFFFFFFFFFFFFFFFFFFFFFFFFFFFFFFF AND DUP2 PUSH20 0xFFFFFFFFFFFFFFFFFFFFFFFFFFFFFFFFFFFFFFFF AND SUB PUSH2 0xA98 JUMPI PUSH1 0x0 PUSH1 0x40 MLOAD PUSH32 0x1E4FBDF700000000000000000000000000000000000000000000000000000000 DUP2 MSTORE PUSH1 0x4 ADD PUSH2 0xA8F SWAP2 SWAP1 PUSH2 0x2785 JUMP JUMPDEST PUSH1 0x40 MLOAD DUP1 SWAP2 SUB SWAP1 REVERT JUMPDEST PUSH2 0xAA1 DUP2 PUSH2 0xF64 JUMP JUMPDEST POP JUMP JUMPDEST PUSH2 0xAAC PUSH2 0xDA8 JUMP JUMPDEST PUSH20 0xFFFFFFFFFFFFFFFFFFFFFFFFFFFFFFFFFFFFFFFF AND DUP4 PUSH20 0xFFFFFFFFFFFFFFFFFFFFFFFFFFFFFFFFFFFFFFFF AND EQ ISZERO DUP1 ISZERO PUSH2 0xAF5 JUMPI POP PUSH2 0xAF3 DUP4 PUSH2 0xAEE PUSH2 0xDA8 JUMP JUMPDEST PUSH2 0x8E2 JUMP JUMPDEST ISZERO JUMPDEST ISZERO PUSH2 0xB40 JUMPI PUSH2 0xB02 PUSH2 0xDA8 JUMP JUMPDEST DUP4 PUSH1 0x40 MLOAD PUSH32 0xE237D92200000000000000000000000000000000000000000000000000000000 DUP2 MSTORE PUSH1 0x4 ADD PUSH2 0xB37 SWAP3 SWAP2 SWAP1 PUSH2 0x2D59 JUMP JUMPDEST PUSH1 0x40 MLOAD DUP1 SWAP2 SUB SWAP1 REVERT JUMPDEST PUSH2 0xB4B DUP4 DUP4 DUP4 PUSH2 0x133E JUMP JUMPDEST POP POP POP JUMP JUMPDEST PUSH1 0x0 PUSH32 0x1FFC9A700000000000000000000000000000000000000000000000000000000 PUSH28 0xFFFFFFFFFFFFFFFFFFFFFFFFFFFFFFFFFFFFFFFFFFFFFFFFFFFFFFFF NOT AND DUP3 PUSH28 0xFFFFFFFFFFFFFFFFFFFFFFFFFFFFFFFFFFFFFFFFFFFFFFFFFFFFFFFF NOT AND EQ SWAP1 POP SWAP2 SWAP1 POP JUMP JUMPDEST PUSH2 0xBC2 PUSH2 0xDA8 JUMP JUMPDEST PUSH20 0xFFFFFFFFFFFFFFFFFFFFFFFFFFFFFFFFFFFFFFFF AND PUSH2 0xBE0 PUSH2 0x814 JUMP JUMPDEST PUSH20 0xFFFFFFFFFFFFFFFFFFFFFFFFFFFFFFFFFFFFFFFF AND EQ PUSH2 0xC3F JUMPI PUSH2 0xC03 PUSH2 0xDA8 JUMP JUMPDEST PUSH1 0x40 MLOAD PUSH32 0x118CDAA700000000000000000000000000000000000000000000000000000000 DUP2 MSTORE PUSH1 0x4 ADD PUSH2 0xC36 SWAP2 SWAP1 PUSH2 0x2785 JUMP JUMPDEST PUSH1 0x40 MLOAD DUP1 SWAP2 SUB SWAP1 REVERT JUMPDEST JUMP JUMPDEST DUP1 PUSH1 0x2 SWAP1 DUP2 PUSH2 0xC50 SWAP2 SWAP1 PUSH2 0x2B6F JUMP JUMPDEST POP POP JUMP JUMPDEST PUSH1 0x60 PUSH1 0x0 PUSH1 0x1 PUSH2 0xC63 DUP5 PUSH2 0x13E5 JUMP JUMPDEST ADD SWAP1 POP PUSH1 0x0 DUP2 PUSH8 0xFFFFFFFFFFFFFFFF DUP2 GT ISZERO PUSH2 0xC82 JUMPI PUSH2 0xC81 PUSH2 0x1F18 JUMP JUMPDEST JUMPDEST PUSH1 0x40 MLOAD SWAP1 DUP1 DUP3 MSTORE DUP1 PUSH1 0x1F ADD PUSH1 0x1F NOT AND PUSH1 0x20 ADD DUP3 ADD PUSH1 0x40 MSTORE DUP1 ISZERO PUSH2 0xCB4 JUMPI DUP2 PUSH1 0x20 ADD PUSH1 0x1 DUP3 MUL DUP1 CALLDATASIZE DUP4 CALLDATACOPY DUP1 DUP3 ADD SWAP2 POP POP SWAP1 POP JUMPDEST POP SWAP1 POP PUSH1 0x0 DUP3 PUSH1 0x20 ADD DUP3 ADD SWAP1 POP JUMPDEST PUSH1 0x1 ISZERO PUSH2 0xD17 JUMPI DUP1 DUP1 PUSH1 0x1 SWAP1 SUB SWAP2 POP POP PUSH32 0x3031323334353637383961626364656600000000000000000000000000000000 PUSH1 0xA DUP7 MOD BYTE DUP2 MSTORE8 PUSH1 0xA DUP6 DUP2 PUSH2 0xD0B JUMPI PUSH2 0xD0A PUSH2 0x2E51 JUMP JUMPDEST JUMPDEST DIV SWAP5 POP PUSH1 0x0 DUP6 SUB PUSH2 0xCC2 JUMPI JUMPDEST DUP2 SWAP4 POP POP POP POP SWAP2 SWAP1 POP JUMP JUMPDEST PUSH1 0x0 PUSH20 0xFFFFFFFFFFFFFFFFFFFFFFFFFFFFFFFFFFFFFFFF AND DUP5 PUSH20 0xFFFFFFFFFFFFFFFFFFFFFFFFFFFFFFFFFFFFFFFF AND SUB PUSH2 0xD94 JUMPI PUSH1 0x0 PUSH1 0x40 MLOAD PUSH32 0x57F447CE00000000000000000000000000000000000000000000000000000000 DUP2 MSTORE PUSH1 0x4 ADD PUSH2 0xD8B SWAP2 SWAP1 PUSH2 0x2785 JUMP JUMPDEST PUSH1 0x40 MLOAD DUP1 SWAP2 SUB SWAP1 REVERT JUMPDEST PUSH2 0xDA2 PUSH1 0x0 DUP6 DUP6 DUP6 DUP6 PUSH2 0x1538 JUMP JUMPDEST POP POP POP POP JUMP JUMPDEST PUSH1 0x0 CALLER SWAP1 POP SWAP1 JUMP JUMPDEST PUSH1 0x0 PUSH20 0xFFFFFFFFFFFFFFFFFFFFFFFFFFFFFFFFFFFFFFFF AND DUP5 PUSH20 0xFFFFFFFFFFFFFFFFFFFFFFFFFFFFFFFFFFFFFFFF AND SUB PUSH2 0xE22 JUMPI PUSH1 0x0 PUSH1 0x40 MLOAD PUSH32 0x57F447CE00000000000000000000000000000000000000000000000000000000 DUP2 MSTORE PUSH1 0x4 ADD PUSH2 0xE19 SWAP2 SWAP1 PUSH2 0x2785 JUMP JUMPDEST PUSH1 0x40 MLOAD DUP1 SWAP2 SUB SWAP1 REVERT JUMPDEST PUSH1 0x0 PUSH20 0xFFFFFFFFFFFFFFFFFFFFFFFFFFFFFFFFFFFFFFFF AND DUP6 PUSH20 0xFFFFFFFFFFFFFFFFFFFFFFFFFFFFFFFFFFFFFFFF AND SUB PUSH2 0xE94 JUMPI PUSH1 0x0 PUSH1 0x40 MLOAD PUSH32 0x1A8351400000000000000000000000000000000000000000000000000000000 DUP2 MSTORE PUSH1 0x4 ADD PUSH2 0xE8B SWAP2 SWAP1 PUSH2 0x2785 JUMP JUMPDEST PUSH1 0x40 MLOAD DUP1 SWAP2 SUB SWAP1 REVERT JUMPDEST PUSH2 0xEA1 DUP6 DUP6 DUP6 DUP6 DUP6 PUSH2 0x1538 JUMP JUMPDEST POP POP POP POP POP JUMP JUMPDEST PUSH1 0x0 PUSH1 0x20 DUP3 MUL PUSH1 0x20 DUP5 ADD ADD MLOAD SWAP1 POP SWAP3 SWAP2 POP POP JUMP JUMPDEST PUSH1 0x0 PUSH1 0x20 DUP3 MUL PUSH1 0x20 DUP5 ADD ADD MLOAD SWAP1 POP SWAP3 SWAP2 POP POP JUMP JUMPDEST PUSH1 0x0 PUSH20 0xFFFFFFFFFFFFFFFFFFFFFFFFFFFFFFFFFFFFFFFF AND DUP4 PUSH20 0xFFFFFFFFFFFFFFFFFFFFFFFFFFFFFFFFFFFFFFFF AND SUB PUSH2 0xF42 JUMPI PUSH1 0x0 PUSH1 0x40 MLOAD PUSH32 0x1A8351400000000000000000000000000000000000000000000000000000000 DUP2 MSTORE PUSH1 0x4 ADD PUSH2 0xF39 SWAP2 SWAP1 PUSH2 0x2785 JUMP JUMPDEST PUSH1 0x40 MLOAD DUP1 SWAP2 SUB SWAP1 REVERT JUMPDEST PUSH2 0xF5F DUP4 PUSH1 0x0 DUP5 DUP5 PUSH1 0x40 MLOAD DUP1 PUSH1 0x20 ADD PUSH1 0x40 MSTORE DUP1 PUSH1 0x0 DUP2 MSTORE POP PUSH2 0x1538 JUMP JUMPDEST POP POP POP JUMP JUMPDEST PUSH1 0x0 PUSH1 0x3 PUSH1 0x0 SWAP1 SLOAD SWAP1 PUSH2 0x100 EXP SWAP1 DIV PUSH20 0xFFFFFFFFFFFFFFFFFFFFFFFFFFFFFFFFFFFFFFFF AND SWAP1 POP DUP2 PUSH1 0x3 PUSH1 0x0 PUSH2 0x100 EXP DUP2 SLOAD DUP2 PUSH20 0xFFFFFFFFFFFFFFFFFFFFFFFFFFFFFFFFFFFFFFFF MUL NOT AND SWAP1 DUP4 PUSH20 0xFFFFFFFFFFFFFFFFFFFFFFFFFFFFFFFFFFFFFFFF AND MUL OR SWAP1 SSTORE POP DUP2 PUSH20 0xFFFFFFFFFFFFFFFFFFFFFFFFFFFFFFFFFFFFFFFF AND DUP2 PUSH20 0xFFFFFFFFFFFFFFFFFFFFFFFFFFFFFFFFFFFFFFFF AND PUSH32 0x8BE0079C531659141344CD1FD0A4F28419497F9722A3DAAFE3B4186F6B6457E0 PUSH1 0x40 MLOAD PUSH1 0x40 MLOAD DUP1 SWAP2 SUB SWAP1 LOG3 POP POP JUMP JUMPDEST PUSH1 0x0 PUSH20 0xFFFFFFFFFFFFFFFFFFFFFFFFFFFFFFFFFFFFFFFF AND DUP5 PUSH20 0xFFFFFFFFFFFFFFFFFFFFFFFFFFFFFFFFFFFFFFFF AND SUB PUSH2 0x109C JUMPI PUSH1 0x0 PUSH1 0x40 MLOAD PUSH32 0x57F447CE00000000000000000000000000000000000000000000000000000000 DUP2 MSTORE PUSH1 0x4 ADD PUSH2 0x1093 SWAP2 SWAP1 PUSH2 0x2785 JUMP JUMPDEST PUSH1 0x40 MLOAD DUP1 SWAP2 SUB SWAP1 REVERT JUMPDEST PUSH1 0x0 DUP1 PUSH2 0x10A9 DUP6 DUP6 PUSH2 0x15EA JUMP JUMPDEST SWAP2 POP SWAP2 POP PUSH2 0x10BB PUSH1 0x0 DUP8 DUP5 DUP5 DUP8 PUSH2 0x1538 JUMP JUMPDEST POP POP POP POP POP POP JUMP JUMPDEST PUSH1 0x0 PUSH20 0xFFFFFFFFFFFFFFFFFFFFFFFFFFFFFFFFFFFFFFFF AND DUP3 PUSH20 0xFFFFFFFFFFFFFFFFFFFFFFFFFFFFFFFFFFFFFFFF AND SUB PUSH2 0x1135 JUMPI PUSH1 0x0 PUSH1 0x40 MLOAD PUSH32 0xCED3E10000000000000000000000000000000000000000000000000000000000 DUP2 MSTORE PUSH1 0x4 ADD PUSH2 0x112C SWAP2 SWAP1 PUSH2 0x2785 JUMP JUMPDEST PUSH1 0x40 MLOAD DUP1 SWAP2 SUB SWAP1 REVERT JUMPDEST DUP1 PUSH1 0x1 PUSH1 0x0 DUP6 PUSH20 0xFFFFFFFFFFFFFFFFFFFFFFFFFFFFFFFFFFFFFFFF AND PUSH20 0xFFFFFFFFFFFFFFFFFFFFFFFFFFFFFFFFFFFFFFFF AND DUP2 MSTORE PUSH1 0x20 ADD SWAP1 DUP2 MSTORE PUSH1 0x20 ADD PUSH1 0x0 KECCAK256 PUSH1 0x0 DUP5 PUSH20 0xFFFFFFFFFFFFFFFFFFFFFFFFFFFFFFFFFFFFFFFF AND PUSH20 0xFFFFFFFFFFFFFFFFFFFFFFFFFFFFFFFFFFFFFFFF AND DUP2 MSTORE PUSH1 0x20 ADD SWAP1 DUP2 MSTORE PUSH1 0x20 ADD PUSH1 0x0 KECCAK256 PUSH1 0x0 PUSH2 0x100 EXP DUP2 SLOAD DUP2 PUSH1 0xFF MUL NOT AND SWAP1 DUP4 ISZERO ISZERO MUL OR SWAP1 SSTORE POP DUP2 PUSH20 0xFFFFFFFFFFFFFFFFFFFFFFFFFFFFFFFFFFFFFFFF AND DUP4 PUSH20 0xFFFFFFFFFFFFFFFFFFFFFFFFFFFFFFFFFFFFFFFF AND PUSH32 0x17307EAB39AB6107E8899845AD3D59BD9653F200F220920489CA2B5937696C31 DUP4 PUSH1 0x40 MLOAD PUSH2 0x1226 SWAP2 SWAP1 PUSH2 0x1EE2 JUMP JUMPDEST PUSH1 0x40 MLOAD DUP1 SWAP2 SUB SWAP1 LOG3 POP POP POP JUMP JUMPDEST PUSH1 0x0 PUSH20 0xFFFFFFFFFFFFFFFFFFFFFFFFFFFFFFFFFFFFFFFF AND DUP5 PUSH20 0xFFFFFFFFFFFFFFFFFFFFFFFFFFFFFFFFFFFFFFFF AND SUB PUSH2 0x12A5 JUMPI PUSH1 0x0 PUSH1 0x40 MLOAD PUSH32 0x57F447CE00000000000000000000000000000000000000000000000000000000 DUP2 MSTORE PUSH1 0x4 ADD PUSH2 0x129C SWAP2 SWAP1 PUSH2 0x2785 JUMP JUMPDEST PUSH1 0x40 MLOAD DUP1 SWAP2 SUB SWAP1 REVERT JUMPDEST PUSH1 0x0 PUSH20 0xFFFFFFFFFFFFFFFFFFFFFFFFFFFFFFFFFFFFFFFF AND DUP6 PUSH20 0xFFFFFFFFFFFFFFFFFFFFFFFFFFFFFFFFFFFFFFFF AND SUB PUSH2 0x1317 JUMPI PUSH1 0x0 PUSH1 0x40 MLOAD PUSH32 0x1A8351400000000000000000000000000000000000000000000000000000000 DUP2 MSTORE PUSH1 0x4 ADD PUSH2 0x130E SWAP2 SWAP1 PUSH2 0x2785 JUMP JUMPDEST PUSH1 0x40 MLOAD DUP1 SWAP2 SUB SWAP1 REVERT JUMPDEST PUSH1 0x0 DUP1 PUSH2 0x1324 DUP6 DUP6 PUSH2 0x15EA JUMP JUMPDEST SWAP2 POP SWAP2 POP PUSH2 0x1335 DUP8 DUP8 DUP5 DUP5 DUP8 PUSH2 0x1538 JUMP JUMPDEST POP POP POP POP POP POP POP JUMP JUMPDEST PUSH1 0x0 PUSH20 0xFFFFFFFFFFFFFFFFFFFFFFFFFFFFFFFFFFFFFFFF AND DUP4 PUSH20 0xFFFFFFFFFFFFFFFFFFFFFFFFFFFFFFFFFFFFFFFF AND SUB PUSH2 0x13B0 JUMPI PUSH1 0x0 PUSH1 0x40 MLOAD PUSH32 0x1A8351400000000000000000000000000000000000000000000000000000000 DUP2 MSTORE PUSH1 0x4 ADD PUSH2 0x13A7 SWAP2 SWAP1 PUSH2 0x2785 JUMP JUMPDEST PUSH1 0x40 MLOAD DUP1 SWAP2 SUB SWAP1 REVERT JUMPDEST PUSH1 0x0 DUP1 PUSH2 0x13BD DUP5 DUP5 PUSH2 0x15EA JUMP JUMPDEST SWAP2 POP SWAP2 POP PUSH2 0x13DE DUP6 PUSH1 0x0 DUP5 DUP5 PUSH1 0x40 MLOAD DUP1 PUSH1 0x20 ADD PUSH1 0x40 MSTORE DUP1 PUSH1 0x0 DUP2 MSTORE POP PUSH2 0x1538 JUMP JUMPDEST POP POP POP POP POP JUMP JUMPDEST PUSH1 0x0 DUP1 PUSH1 0x0 SWAP1 POP PUSH27 0x184F03E93FF9F4DAA797ED6E38ED64BF6A1F010000000000000000 DUP4 LT PUSH2 0x1443 JUMPI PUSH27 0x184F03E93FF9F4DAA797ED6E38ED64BF6A1F010000000000000000 DUP4 DUP2 PUSH2 0x1439 JUMPI PUSH2 0x1438 PUSH2 0x2E51 JUMP JUMPDEST JUMPDEST DIV SWAP3 POP PUSH1 0x40 DUP2 ADD SWAP1 POP JUMPDEST PUSH14 0x4EE2D6D415B85ACEF8100000000 DUP4 LT PUSH2 0x1480 JUMPI PUSH14 0x4EE2D6D415B85ACEF8100000000 DUP4 DUP2 PUSH2 0x1476 JUMPI PUSH2 0x1475 PUSH2 0x2E51 JUMP JUMPDEST JUMPDEST DIV SWAP3 POP PUSH1 0x20 DUP2 ADD SWAP1 POP JUMPDEST PUSH7 0x2386F26FC10000 DUP4 LT PUSH2 0x14AF JUMPI PUSH7 0x2386F26FC10000 DUP4 DUP2 PUSH2 0x14A5 JUMPI PUSH2 0x14A4 PUSH2 0x2E51 JUMP JUMPDEST JUMPDEST DIV SWAP3 POP PUSH1 0x10 DUP2 ADD SWAP1 POP JUMPDEST PUSH4 0x5F5E100 DUP4 LT PUSH2 0x14D8 JUMPI PUSH4 0x5F5E100 DUP4 DUP2 PUSH2 0x14CE JUMPI PUSH2 0x14CD PUSH2 0x2E51 JUMP JUMPDEST JUMPDEST DIV SWAP3 POP PUSH1 0x8 DUP2 ADD SWAP1 POP JUMPDEST PUSH2 0x2710 DUP4 LT PUSH2 0x14FD JUMPI PUSH2 0x2710 DUP4 DUP2 PUSH2 0x14F3 JUMPI PUSH2 0x14F2 PUSH2 0x2E51 JUMP JUMPDEST JUMPDEST DIV SWAP3 POP PUSH1 0x4 DUP2 ADD SWAP1 POP JUMPDEST PUSH1 0x64 DUP4 LT PUSH2 0x1520 JUMPI PUSH1 0x64 DUP4 DUP2 PUSH2 0x1516 JUMPI PUSH2 0x1515 PUSH2 0x2E51 JUMP JUMPDEST JUMPDEST DIV SWAP3 POP PUSH1 0x2 DUP2 ADD SWAP1 POP JUMPDEST PUSH1 0xA DUP4 LT PUSH2 0x152F JUMPI PUSH1 0x1 DUP2 ADD SWAP1 POP JUMPDEST DUP1 SWAP2 POP POP SWAP2 SWAP1 POP JUMP JUMPDEST PUSH2 0x1544 DUP6 DUP6 DUP6 DUP6 PUSH2 0x161A JUMP JUMPDEST PUSH1 0x0 PUSH20 0xFFFFFFFFFFFFFFFFFFFFFFFFFFFFFFFFFFFFFFFF AND DUP5 PUSH20 0xFFFFFFFFFFFFFFFFFFFFFFFFFFFFFFFFFFFFFFFF AND EQ PUSH2 0x15E3 JUMPI PUSH1 0x0 PUSH2 0x1582 PUSH2 0xDA8 JUMP JUMPDEST SWAP1 POP PUSH1 0x1 DUP5 MLOAD SUB PUSH2 0x15D2 JUMPI PUSH1 0x0 PUSH2 0x15A3 PUSH1 0x0 DUP7 PUSH2 0xEBC SWAP1 SWAP2 SWAP1 PUSH4 0xFFFFFFFF AND JUMP JUMPDEST SWAP1 POP PUSH1 0x0 PUSH2 0x15BB PUSH1 0x0 DUP7 PUSH2 0xEBC SWAP1 SWAP2 SWAP1 PUSH4 0xFFFFFFFF AND JUMP JUMPDEST SWAP1 POP PUSH2 0x15CB DUP4 DUP10 DUP10 DUP6 DUP6 DUP10 PUSH2 0x19C8 JUMP JUMPDEST POP POP PUSH2 0x15E1 JUMP JUMPDEST PUSH2 0x15E0 DUP2 DUP8 DUP8 DUP8 DUP8 DUP8 PUSH2 0x1B7C JUMP JUMPDEST JUMPDEST POP JUMPDEST POP POP POP POP POP JUMP JUMPDEST PUSH1 0x60 DUP1 PUSH1 0x40 MLOAD SWAP2 POP PUSH1 0x1 DUP3 MSTORE DUP4 PUSH1 0x20 DUP4 ADD MSTORE PUSH1 0x40 DUP3 ADD SWAP1 POP PUSH1 0x1 DUP2 MSTORE DUP3 PUSH1 0x20 DUP3 ADD MSTORE PUSH1 0x40 DUP2 ADD PUSH1 0x40 MSTORE SWAP3 POP SWAP3 SWAP1 POP JUMP JUMPDEST DUP1 MLOAD DUP3 MLOAD EQ PUSH2 0x1664 JUMPI DUP2 MLOAD DUP2 MLOAD PUSH1 0x40 MLOAD PUSH32 0x5B05999100000000000000000000000000000000000000000000000000000000 DUP2 MSTORE PUSH1 0x4 ADD PUSH2 0x165B SWAP3 SWAP2 SWAP1 PUSH2 0x2D82 JUMP JUMPDEST PUSH1 0x40 MLOAD DUP1 SWAP2 SUB SWAP1 REVERT JUMPDEST PUSH1 0x0 PUSH2 0x166E PUSH2 0xDA8 JUMP JUMPDEST SWAP1 POP PUSH1 0x0 JUMPDEST DUP4 MLOAD DUP2 LT ISZERO PUSH2 0x1883 JUMPI PUSH1 0x0 PUSH2 0x1691 DUP3 DUP7 PUSH2 0xEBC SWAP1 SWAP2 SWAP1 PUSH4 0xFFFFFFFF AND JUMP JUMPDEST SWAP1 POP PUSH1 0x0 PUSH2 0x16A8 DUP4 DUP7 PUSH2 0xEBC SWAP1 SWAP2 SWAP1 PUSH4 0xFFFFFFFF AND JUMP JUMPDEST SWAP1 POP PUSH1 0x0 PUSH20 0xFFFFFFFFFFFFFFFFFFFFFFFFFFFFFFFFFFFFFFFF AND DUP9 PUSH20 0xFFFFFFFFFFFFFFFFFFFFFFFFFFFFFFFFFFFFFFFF AND EQ PUSH2 0x17D5 JUMPI PUSH1 0x0 DUP1 PUSH1 0x0 DUP5 DUP2 MSTORE PUSH1 0x20 ADD SWAP1 DUP2 MSTORE PUSH1 0x20 ADD PUSH1 0x0 KECCAK256 PUSH1 0x0 DUP11 PUSH20 0xFFFFFFFFFFFFFFFFFFFFFFFFFFFFFFFFFFFFFFFF AND PUSH20 0xFFFFFFFFFFFFFFFFFFFFFFFFFFFFFFFFFFFFFFFF AND DUP2 MSTORE PUSH1 0x20 ADD SWAP1 DUP2 MSTORE PUSH1 0x20 ADD PUSH1 0x0 KECCAK256 SLOAD SWAP1 POP DUP2 DUP2 LT ISZERO PUSH2 0x177D JUMPI DUP9 DUP2 DUP4 DUP6 PUSH1 0x40 MLOAD PUSH32 0x3DEE4C500000000000000000000000000000000000000000000000000000000 DUP2 MSTORE PUSH1 0x4 ADD PUSH2 0x1774 SWAP5 SWAP4 SWAP3 SWAP2 SWAP1 PUSH2 0x2E80 JUMP JUMPDEST PUSH1 0x40 MLOAD DUP1 SWAP2 SUB SWAP1 REVERT JUMPDEST DUP2 DUP2 SUB PUSH1 0x0 DUP1 DUP6 DUP2 MSTORE PUSH1 0x20 ADD SWAP1 DUP2 MSTORE PUSH1 0x20 ADD PUSH1 0x0 KECCAK256 PUSH1 0x0 DUP12 PUSH20 0xFFFFFFFFFFFFFFFFFFFFFFFFFFFFFFFFFFFFFFFF AND PUSH20 0xFFFFFFFFFFFFFFFFFFFFFFFFFFFFFFFFFFFFFFFF AND DUP2 MSTORE PUSH1 0x20 ADD SWAP1 DUP2 MSTORE PUSH1 0x20 ADD PUSH1 0x0 KECCAK256 DUP2 SWAP1 SSTORE POP POP JUMPDEST PUSH1 0x0 PUSH20 0xFFFFFFFFFFFFFFFFFFFFFFFFFFFFFFFFFFFFFFFF AND DUP8 PUSH20 0xFFFFFFFFFFFFFFFFFFFFFFFFFFFFFFFFFFFFFFFF AND EQ PUSH2 0x1870 JUMPI DUP1 PUSH1 0x0 DUP1 DUP5 DUP2 MSTORE PUSH1 0x20 ADD SWAP1 DUP2 MSTORE PUSH1 0x20 ADD PUSH1 0x0 KECCAK256 PUSH1 0x0 DUP10 PUSH20 0xFFFFFFFFFFFFFFFFFFFFFFFFFFFFFFFFFFFFFFFF AND PUSH20 0xFFFFFFFFFFFFFFFFFFFFFFFFFFFFFFFFFFFFFFFF AND DUP2 MSTORE PUSH1 0x20 ADD SWAP1 DUP2 MSTORE PUSH1 0x20 ADD PUSH1 0x0 KECCAK256 PUSH1 0x0 DUP3 DUP3 SLOAD PUSH2 0x1868 SWAP2 SWAP1 PUSH2 0x2EC5 JUMP JUMPDEST SWAP3 POP POP DUP2 SWAP1 SSTORE POP JUMPDEST POP POP DUP1 PUSH2 0x187C SWAP1 PUSH2 0x2E09 JUMP JUMPDEST SWAP1 POP PUSH2 0x1673 JUMP JUMPDEST POP PUSH1 0x1 DUP4 MLOAD SUB PUSH2 0x1942 JUMPI PUSH1 0x0 PUSH2 0x18A3 PUSH1 0x0 DUP6 PUSH2 0xEBC SWAP1 SWAP2 SWAP1 PUSH4 0xFFFFFFFF AND JUMP JUMPDEST SWAP1 POP PUSH1 0x0 PUSH2 0x18BB PUSH1 0x0 DUP6 PUSH2 0xEBC SWAP1 SWAP2 SWAP1 PUSH4 0xFFFFFFFF AND JUMP JUMPDEST SWAP1 POP DUP6 PUSH20 0xFFFFFFFFFFFFFFFFFFFFFFFFFFFFFFFFFFFFFFFF AND DUP8 PUSH20 0xFFFFFFFFFFFFFFFFFFFFFFFFFFFFFFFFFFFFFFFF AND DUP5 PUSH20 0xFFFFFFFFFFFFFFFFFFFFFFFFFFFFFFFFFFFFFFFF AND PUSH32 0xC3D58168C5AE7397731D063D5BBF3D657854427343F4C083240F7AACAA2D0F62 DUP6 DUP6 PUSH1 0x40 MLOAD PUSH2 0x1933 SWAP3 SWAP2 SWAP1 PUSH2 0x2D82 JUMP JUMPDEST PUSH1 0x40 MLOAD DUP1 SWAP2 SUB SWAP1 LOG4 POP POP PUSH2 0x19C1 JUMP JUMPDEST DUP4 PUSH20 0xFFFFFFFFFFFFFFFFFFFFFFFFFFFFFFFFFFFFFFFF AND DUP6 PUSH20 0xFFFFFFFFFFFFFFFFFFFFFFFFFFFFFFFFFFFFFFFF AND DUP3 PUSH20 0xFFFFFFFFFFFFFFFFFFFFFFFFFFFFFFFFFFFFFFFF AND PUSH32 0x4A39DC06D4C0DBC64B70AF90FD698A233A518AA5D07E595D983B8C0526C8F7FB DUP7 DUP7 PUSH1 0x40 MLOAD PUSH2 0x19B8 SWAP3 SWAP2 SWAP1 PUSH2 0x2EF9 JUMP JUMPDEST PUSH1 0x40 MLOAD DUP1 SWAP2 SUB SWAP1 LOG4 JUMPDEST POP POP POP POP POP JUMP JUMPDEST PUSH1 0x0 DUP5 PUSH20 0xFFFFFFFFFFFFFFFFFFFFFFFFFFFFFFFFFFFFFFFF AND EXTCODESIZE GT ISZERO PUSH2 0x1B74 JUMPI DUP4 PUSH20 0xFFFFFFFFFFFFFFFFFFFFFFFFFFFFFFFFFFFFFFFF AND PUSH4 0xF23A6E61 DUP8 DUP8 DUP7 DUP7 DUP7 PUSH1 0x40 MLOAD DUP7 PUSH4 0xFFFFFFFF AND PUSH1 0xE0 SHL DUP2 MSTORE PUSH1 0x4 ADD PUSH2 0x1A29 SWAP6 SWAP5 SWAP4 SWAP3 SWAP2 SWAP1 PUSH2 0x2F85 JUMP JUMPDEST PUSH1 0x20 PUSH1 0x40 MLOAD DUP1 DUP4 SUB DUP2 PUSH1 0x0 DUP8 GAS CALL SWAP3 POP POP POP DUP1 ISZERO PUSH2 0x1A65 JUMPI POP PUSH1 0x40 MLOAD RETURNDATASIZE PUSH1 0x1F NOT PUSH1 0x1F DUP3 ADD AND DUP3 ADD DUP1 PUSH1 0x40 MSTORE POP DUP2 ADD SWAP1 PUSH2 0x1A62 SWAP2 SWAP1 PUSH2 0x2FF4 JUMP JUMPDEST PUSH1 0x1 JUMPDEST PUSH2 0x1AE9 JUMPI RETURNDATASIZE DUP1 PUSH1 0x0 DUP2 EQ PUSH2 0x1A95 JUMPI PUSH1 0x40 MLOAD SWAP2 POP PUSH1 0x1F NOT PUSH1 0x3F RETURNDATASIZE ADD AND DUP3 ADD PUSH1 0x40 MSTORE RETURNDATASIZE DUP3 MSTORE RETURNDATASIZE PUSH1 0x0 PUSH1 0x20 DUP5 ADD RETURNDATACOPY PUSH2 0x1A9A JUMP JUMPDEST PUSH1 0x60 SWAP2 POP JUMPDEST POP PUSH1 0x0 DUP2 MLOAD SUB PUSH2 0x1AE1 JUMPI DUP5 PUSH1 0x40 MLOAD PUSH32 0x57F447CE00000000000000000000000000000000000000000000000000000000 DUP2 MSTORE PUSH1 0x4 ADD PUSH2 0x1AD8 SWAP2 SWAP1 PUSH2 0x2785 JUMP JUMPDEST PUSH1 0x40 MLOAD DUP1 SWAP2 SUB SWAP1 REVERT JUMPDEST DUP1 MLOAD DUP2 PUSH1 0x20 ADD REVERT JUMPDEST PUSH4 0xF23A6E61 PUSH1 0xE0 SHL PUSH28 0xFFFFFFFFFFFFFFFFFFFFFFFFFFFFFFFFFFFFFFFFFFFFFFFFFFFFFFFF NOT AND DUP2 PUSH28 0xFFFFFFFFFFFFFFFFFFFFFFFFFFFFFFFFFFFFFFFFFFFFFFFFFFFFFFFF NOT AND EQ PUSH2 0x1B72 JUMPI DUP5 PUSH1 0x40 MLOAD PUSH32 0x57F447CE00000000000000000000000000000000000000000000000000000000 DUP2 MSTORE PUSH1 0x4 ADD PUSH2 0x1B69 SWAP2 SWAP1 PUSH2 0x2785 JUMP JUMPDEST PUSH1 0x40 MLOAD DUP1 SWAP2 SUB SWAP1 REVERT JUMPDEST POP JUMPDEST POP POP POP POP POP POP JUMP JUMPDEST PUSH1 0x0 DUP5 PUSH20 0xFFFFFFFFFFFFFFFFFFFFFFFFFFFFFFFFFFFFFFFF AND EXTCODESIZE GT ISZERO PUSH2 0x1D28 JUMPI DUP4 PUSH20 0xFFFFFFFFFFFFFFFFFFFFFFFFFFFFFFFFFFFFFFFF AND PUSH4 0xBC197C81 DUP8 DUP8 DUP7 DUP7 DUP7 PUSH1 0x40 MLOAD DUP7 PUSH4 0xFFFFFFFF AND PUSH1 0xE0 SHL DUP2 MSTORE PUSH1 0x4 ADD PUSH2 0x1BDD SWAP6 SWAP5 SWAP4 SWAP3 SWAP2 SWAP1 PUSH2 0x3021 JUMP JUMPDEST PUSH1 0x20 PUSH1 0x40 MLOAD DUP1 DUP4 SUB DUP2 PUSH1 0x0 DUP8 GAS CALL SWAP3 POP POP POP DUP1 ISZERO PUSH2 0x1C19 JUMPI POP PUSH1 0x40 MLOAD RETURNDATASIZE PUSH1 0x1F NOT PUSH1 0x1F DUP3 ADD AND DUP3 ADD DUP1 PUSH1 0x40 MSTORE POP DUP2 ADD SWAP1 PUSH2 0x1C16 SWAP2 SWAP1 PUSH2 0x2FF4 JUMP JUMPDEST PUSH1 0x1 JUMPDEST PUSH2 0x1C9D JUMPI RETURNDATASIZE DUP1 PUSH1 0x0 DUP2 EQ PUSH2 0x1C49 JUMPI PUSH1 0x40 MLOAD SWAP2 POP PUSH1 0x1F NOT PUSH1 0x3F RETURNDATASIZE ADD AND DUP3 ADD PUSH1 0x40 MSTORE RETURNDATASIZE DUP3 MSTORE RETURNDATASIZE PUSH1 0x0 PUSH1 0x20 DUP5 ADD RETURNDATACOPY PUSH2 0x1C4E JUMP JUMPDEST PUSH1 0x60 SWAP2 POP JUMPDEST POP PUSH1 0x0 DUP2 MLOAD SUB PUSH2 0x1C95 JUMPI DUP5 PUSH1 0x40 MLOAD PUSH32 0x57F447CE00000000000000000000000000000000000000000000000000000000 DUP2 MSTORE PUSH1 0x4 ADD PUSH2 0x1C8C SWAP2 SWAP1 PUSH2 0x2785 JUMP JUMPDEST PUSH1 0x40 MLOAD DUP1 SWAP2 SUB SWAP1 REVERT JUMPDEST DUP1 MLOAD DUP2 PUSH1 0x20 ADD REVERT JUMPDEST PUSH4 0xBC197C81 PUSH1 0xE0 SHL PUSH28 0xFFFFFFFFFFFFFFFFFFFFFFFFFFFFFFFFFFFFFFFFFFFFFFFFFFFFFFFF NOT AND DUP2 PUSH28 0xFFFFFFFFFFFFFFFFFFFFFFFFFFFFFFFFFFFFFFFFFFFFFFFFFFFFFFFF NOT AND EQ PUSH2 0x1D26 JUMPI DUP5 PUSH1 0x40 MLOAD PUSH32 0x57F447CE00000000000000000000000000000000000000000000000000000000 DUP2 MSTORE PUSH1 0x4 ADD PUSH2 0x1D1D SWAP2 SWAP1 PUSH2 0x2785 JUMP JUMPDEST PUSH1 0x40 MLOAD DUP1 SWAP2 SUB SWAP1 REVERT JUMPDEST POP JUMPDEST POP POP POP POP POP POP JUMP JUMPDEST PUSH1 0x0 PUSH1 0x40 MLOAD SWAP1 POP SWAP1 JUMP JUMPDEST PUSH1 0x0 DUP1 REVERT JUMPDEST PUSH1 0x0 DUP1 REVERT JUMPDEST PUSH1 0x0 PUSH20 0xFFFFFFFFFFFFFFFFFFFFFFFFFFFFFFFFFFFFFFFF DUP3 AND SWAP1 POP SWAP2 SWAP1 POP JUMP JUMPDEST PUSH1 0x0 PUSH2 0x1D6F DUP3 PUSH2 0x1D44 JUMP JUMPDEST SWAP1 POP SWAP2 SWAP1 POP JUMP JUMPDEST PUSH2 0x1D7F DUP2 PUSH2 0x1D64 JUMP JUMPDEST DUP2 EQ PUSH2 0x1D8A JUMPI PUSH1 0x0 DUP1 REVERT JUMPDEST POP JUMP JUMPDEST PUSH1 0x0 DUP2 CALLDATALOAD SWAP1 POP PUSH2 0x1D9C DUP2 PUSH2 0x1D76 JUMP JUMPDEST SWAP3 SWAP2 POP POP JUMP JUMPDEST PUSH1 0x0 DUP2 SWAP1 POP SWAP2 SWAP1 POP JUMP JUMPDEST PUSH2 0x1DB5 DUP2 PUSH2 0x1DA2 JUMP JUMPDEST DUP2 EQ PUSH2 0x1DC0 JUMPI PUSH1 0x0 DUP1 REVERT JUMPDEST POP JUMP JUMPDEST PUSH1 0x0 DUP2 CALLDATALOAD SWAP1 POP PUSH2 0x1DD2 DUP2 PUSH2 0x1DAC JUMP JUMPDEST SWAP3 SWAP2 POP POP JUMP JUMPDEST PUSH1 0x0 DUP1 PUSH1 0x40 DUP4 DUP6 SUB SLT ISZERO PUSH2 0x1DEF JUMPI PUSH2 0x1DEE PUSH2 0x1D3A JUMP JUMPDEST JUMPDEST PUSH1 0x0 PUSH2 0x1DFD DUP6 DUP3 DUP7 ADD PUSH2 0x1D8D JUMP JUMPDEST SWAP3 POP POP PUSH1 0x20 PUSH2 0x1E0E DUP6 DUP3 DUP7 ADD PUSH2 0x1DC3 JUMP JUMPDEST SWAP2 POP POP SWAP3 POP SWAP3 SWAP1 POP JUMP JUMPDEST PUSH2 0x1E21 DUP2 PUSH2 0x1DA2 JUMP JUMPDEST DUP3 MSTORE POP POP JUMP JUMPDEST PUSH1 0x0 PUSH1 0x20 DUP3 ADD SWAP1 POP PUSH2 0x1E3C PUSH1 0x0 DUP4 ADD DUP5 PUSH2 0x1E18 JUMP JUMPDEST SWAP3 SWAP2 POP POP JUMP JUMPDEST PUSH1 0x0 PUSH32 0xFFFFFFFF00000000000000000000000000000000000000000000000000000000 DUP3 AND SWAP1 POP SWAP2 SWAP1 POP JUMP JUMPDEST PUSH2 0x1E77 DUP2 PUSH2 0x1E42 JUMP JUMPDEST DUP2 EQ PUSH2 0x1E82 JUMPI PUSH1 0x0 DUP1 REVERT JUMPDEST POP JUMP JUMPDEST PUSH1 0x0 DUP2 CALLDATALOAD SWAP1 POP PUSH2 0x1E94 DUP2 PUSH2 0x1E6E JUMP JUMPDEST SWAP3 SWAP2 POP POP JUMP JUMPDEST PUSH1 0x0 PUSH1 0x20 DUP3 DUP5 SUB SLT ISZERO PUSH2 0x1EB0 JUMPI PUSH2 0x1EAF PUSH2 0x1D3A JUMP JUMPDEST JUMPDEST PUSH1 0x0 PUSH2 0x1EBE DUP5 DUP3 DUP6 ADD PUSH2 0x1E85 JUMP JUMPDEST SWAP2 POP POP SWAP3 SWAP2 POP POP JUMP JUMPDEST PUSH1 0x0 DUP2 ISZERO ISZERO SWAP1 POP SWAP2 SWAP1 POP JUMP JUMPDEST PUSH2 0x1EDC DUP2 PUSH2 0x1EC7 JUMP JUMPDEST DUP3 MSTORE POP POP JUMP JUMPDEST PUSH1 0x0 PUSH1 0x20 DUP3 ADD SWAP1 POP PUSH2 0x1EF7 PUSH1 0x0 DUP4 ADD DUP5 PUSH2 0x1ED3 JUMP JUMPDEST SWAP3 SWAP2 POP POP JUMP JUMPDEST PUSH1 0x0 DUP1 REVERT JUMPDEST PUSH1 0x0 DUP1 REVERT JUMPDEST PUSH1 0x0 PUSH1 0x1F NOT PUSH1 0x1F DUP4 ADD AND SWAP1 POP SWAP2 SWAP1 POP JUMP JUMPDEST PUSH32 0x4E487B7100000000000000000000000000000000000000000000000000000000 PUSH1 0x0 MSTORE PUSH1 0x41 PUSH1 0x4 MSTORE PUSH1 0x24 PUSH1 0x0 REVERT JUMPDEST PUSH2 0x1F50 DUP3 PUSH2 0x1F07 JUMP JUMPDEST DUP2 ADD DUP2 DUP2 LT PUSH8 0xFFFFFFFFFFFFFFFF DUP3 GT OR ISZERO PUSH2 0x1F6F JUMPI PUSH2 0x1F6E PUSH2 0x1F18 JUMP JUMPDEST JUMPDEST DUP1 PUSH1 0x40 MSTORE POP POP POP JUMP JUMPDEST PUSH1 0x0 PUSH2 0x1F82 PUSH2 0x1D30 JUMP JUMPDEST SWAP1 POP PUSH2 0x1F8E DUP3 DUP3 PUSH2 0x1F47 JUMP JUMPDEST SWAP2 SWAP1 POP JUMP JUMPDEST PUSH1 0x0 PUSH8 0xFFFFFFFFFFFFFFFF DUP3 GT ISZERO PUSH2 0x1FAE JUMPI PUSH2 0x1FAD PUSH2 0x1F18 JUMP JUMPDEST JUMPDEST PUSH2 0x1FB7 DUP3 PUSH2 0x1F07 JUMP JUMPDEST SWAP1 POP PUSH1 0x20 DUP2 ADD SWAP1 POP SWAP2 SWAP1 POP JUMP JUMPDEST DUP3 DUP2 DUP4 CALLDATACOPY PUSH1 0x0 DUP4 DUP4 ADD MSTORE POP POP POP JUMP JUMPDEST PUSH1 0x0 PUSH2 0x1FE6 PUSH2 0x1FE1 DUP5 PUSH2 0x1F93 JUMP JUMPDEST PUSH2 0x1F78 JUMP JUMPDEST SWAP1 POP DUP3 DUP2 MSTORE PUSH1 0x20 DUP2 ADD DUP5 DUP5 DUP5 ADD GT ISZERO PUSH2 0x2002 JUMPI PUSH2 0x2001 PUSH2 0x1F02 JUMP JUMPDEST JUMPDEST PUSH2 0x200D DUP5 DUP3 DUP6 PUSH2 0x1FC4 JUMP JUMPDEST POP SWAP4 SWAP3 POP POP POP JUMP JUMPDEST PUSH1 0x0 DUP3 PUSH1 0x1F DUP4 ADD SLT PUSH2 0x202A JUMPI PUSH2 0x2029 PUSH2 0x1EFD JUMP JUMPDEST JUMPDEST DUP2 CALLDATALOAD PUSH2 0x203A DUP5 DUP3 PUSH1 0x20 DUP7 ADD PUSH2 0x1FD3 JUMP JUMPDEST SWAP2 POP POP SWAP3 SWAP2 POP POP JUMP JUMPDEST PUSH1 0x0 PUSH1 0x20 DUP3 DUP5 SUB SLT ISZERO PUSH2 0x2059 JUMPI PUSH2 0x2058 PUSH2 0x1D3A JUMP JUMPDEST JUMPDEST PUSH1 0x0 DUP3 ADD CALLDATALOAD PUSH8 0xFFFFFFFFFFFFFFFF DUP2 GT ISZERO PUSH2 0x2077 JUMPI PUSH2 0x2076 PUSH2 0x1D3F JUMP JUMPDEST JUMPDEST PUSH2 0x2083 DUP5 DUP3 DUP6 ADD PUSH2 0x2015 JUMP JUMPDEST SWAP2 POP POP SWAP3 SWAP2 POP POP JUMP JUMPDEST PUSH1 0x0 PUSH1 0x20 DUP3 DUP5 SUB SLT ISZERO PUSH2 0x20A2 JUMPI PUSH2 0x20A1 PUSH2 0x1D3A JUMP JUMPDEST JUMPDEST PUSH1 0x0 PUSH2 0x20B0 DUP5 DUP3 DUP6 ADD PUSH2 0x1DC3 JUMP JUMPDEST SWAP2 POP POP SWAP3 SWAP2 POP POP JUMP JUMPDEST PUSH1 0x0 DUP2 MLOAD SWAP1 POP SWAP2 SWAP1 POP JUMP JUMPDEST PUSH1 0x0 DUP3 DUP3 MSTORE PUSH1 0x20 DUP3 ADD SWAP1 POP SWAP3 SWAP2 POP POP JUMP JUMPDEST PUSH1 0x0 JUMPDEST DUP4 DUP2 LT ISZERO PUSH2 0x20F3 JUMPI DUP1 DUP3 ADD MLOAD DUP2 DUP5 ADD MSTORE PUSH1 0x20 DUP2 ADD SWAP1 POP PUSH2 0x20D8 JUMP JUMPDEST PUSH1 0x0 DUP5 DUP5 ADD MSTORE POP POP POP POP JUMP JUMPDEST PUSH1 0x0 PUSH2 0x210A DUP3 PUSH2 0x20B9 JUMP JUMPDEST PUSH2 0x2114 DUP2 DUP6 PUSH2 0x20C4 JUMP JUMPDEST SWAP4 POP PUSH2 0x2124 DUP2 DUP6 PUSH1 0x20 DUP7 ADD PUSH2 0x20D5 JUMP JUMPDEST PUSH2 0x212D DUP2 PUSH2 0x1F07 JUMP JUMPDEST DUP5 ADD SWAP2 POP POP SWAP3 SWAP2 POP POP JUMP JUMPDEST PUSH1 0x0 PUSH1 0x20 DUP3 ADD SWAP1 POP DUP2 DUP2 SUB PUSH1 0x0 DUP4 ADD MSTORE PUSH2 0x2152 DUP2 DUP5 PUSH2 0x20FF JUMP JUMPDEST SWAP1 POP SWAP3 SWAP2 POP POP JUMP JUMPDEST PUSH1 0x0 PUSH8 0xFFFFFFFFFFFFFFFF DUP3 GT ISZERO PUSH2 0x2175 JUMPI PUSH2 0x2174 PUSH2 0x1F18 JUMP JUMPDEST JUMPDEST PUSH1 0x20 DUP3 MUL SWAP1 POP PUSH1 0x20 DUP2 ADD SWAP1 POP SWAP2 SWAP1 POP JUMP JUMPDEST PUSH1 0x0 DUP1 REVERT JUMPDEST PUSH1 0x0 PUSH2 0x219E PUSH2 0x2199 DUP5 PUSH2 0x215A JUMP JUMPDEST PUSH2 0x1F78 JUMP JUMPDEST SWAP1 POP DUP1 DUP4 DUP3 MSTORE PUSH1 0x20 DUP3 ADD SWAP1 POP PUSH1 0x20 DUP5 MUL DUP4 ADD DUP6 DUP2 GT ISZERO PUSH2 0x21C1 JUMPI PUSH2 0x21C0 PUSH2 0x2186 JUMP JUMPDEST JUMPDEST DUP4 JUMPDEST DUP2 DUP2 LT ISZERO PUSH2 0x21EA JUMPI DUP1 PUSH2 0x21D6 DUP9 DUP3 PUSH2 0x1DC3 JUMP JUMPDEST DUP5 MSTORE PUSH1 0x20 DUP5 ADD SWAP4 POP POP PUSH1 0x20 DUP2 ADD SWAP1 POP PUSH2 0x21C3 JUMP JUMPDEST POP POP POP SWAP4 SWAP3 POP POP POP JUMP JUMPDEST PUSH1 0x0 DUP3 PUSH1 0x1F DUP4 ADD SLT PUSH2 0x2209 JUMPI PUSH2 0x2208 PUSH2 0x1EFD JUMP JUMPDEST JUMPDEST DUP2 CALLDATALOAD PUSH2 0x2219 DUP5 DUP3 PUSH1 0x20 DUP7 ADD PUSH2 0x218B JUMP JUMPDEST SWAP2 POP POP SWAP3 SWAP2 POP POP JUMP JUMPDEST PUSH1 0x0 PUSH8 0xFFFFFFFFFFFFFFFF DUP3 GT ISZERO PUSH2 0x223D JUMPI PUSH2 0x223C PUSH2 0x1F18 JUMP JUMPDEST JUMPDEST PUSH2 0x2246 DUP3 PUSH2 0x1F07 JUMP JUMPDEST SWAP1 POP PUSH1 0x20 DUP2 ADD SWAP1 POP SWAP2 SWAP1 POP JUMP JUMPDEST PUSH1 0x0 PUSH2 0x2266 PUSH2 0x2261 DUP5 PUSH2 0x2222 JUMP JUMPDEST PUSH2 0x1F78 JUMP JUMPDEST SWAP1 POP DUP3 DUP2 MSTORE PUSH1 0x20 DUP2 ADD DUP5 DUP5 DUP5 ADD GT ISZERO PUSH2 0x2282 JUMPI PUSH2 0x2281 PUSH2 0x1F02 JUMP JUMPDEST JUMPDEST PUSH2 0x228D DUP5 DUP3 DUP6 PUSH2 0x1FC4 JUMP JUMPDEST POP SWAP4 SWAP3 POP POP POP JUMP JUMPDEST PUSH1 0x0 DUP3 PUSH1 0x1F DUP4 ADD SLT PUSH2 0x22AA JUMPI PUSH2 0x22A9 PUSH2 0x1EFD JUMP JUMPDEST JUMPDEST DUP2 CALLDATALOAD PUSH2 0x22BA DUP5 DUP3 PUSH1 0x20 DUP7 ADD PUSH2 0x2253 JUMP JUMPDEST SWAP2 POP POP SWAP3 SWAP2 POP POP JUMP JUMPDEST PUSH1 0x0 DUP1 PUSH1 0x0 DUP1 PUSH1 0x80 DUP6 DUP8 SUB SLT ISZERO PUSH2 0x22DD JUMPI PUSH2 0x22DC PUSH2 0x1D3A JUMP JUMPDEST JUMPDEST PUSH1 0x0 PUSH2 0x22EB DUP8 DUP3 DUP9 ADD PUSH2 0x1D8D JUMP JUMPDEST SWAP5 POP POP PUSH1 0x20 DUP6 ADD CALLDATALOAD PUSH8 0xFFFFFFFFFFFFFFFF DUP2 GT ISZERO PUSH2 0x230C JUMPI PUSH2 0x230B PUSH2 0x1D3F JUMP JUMPDEST JUMPDEST PUSH2 0x2318 DUP8 DUP3 DUP9 ADD PUSH2 0x21F4 JUMP JUMPDEST SWAP4 POP POP PUSH1 0x40 DUP6 ADD CALLDATALOAD PUSH8 0xFFFFFFFFFFFFFFFF DUP2 GT ISZERO PUSH2 0x2339 JUMPI PUSH2 0x2338 PUSH2 0x1D3F JUMP JUMPDEST JUMPDEST PUSH2 0x2345 DUP8 DUP3 DUP9 ADD PUSH2 0x21F4 JUMP JUMPDEST SWAP3 POP POP PUSH1 0x60 DUP6 ADD CALLDATALOAD PUSH8 0xFFFFFFFFFFFFFFFF DUP2 GT ISZERO PUSH2 0x2366 JUMPI PUSH2 0x2365 PUSH2 0x1D3F JUMP JUMPDEST JUMPDEST PUSH2 0x2372 DUP8 DUP3 DUP9 ADD PUSH2 0x2295 JUMP JUMPDEST SWAP2 POP POP SWAP3 SWAP6 SWAP2 SWAP5 POP SWAP3 POP JUMP JUMPDEST PUSH1 0x0 DUP1 PUSH1 0x0 DUP1 PUSH1 0x0 PUSH1 0xA0 DUP7 DUP9 SUB SLT ISZERO PUSH2 0x239A JUMPI PUSH2 0x2399 PUSH2 0x1D3A JUMP JUMPDEST JUMPDEST PUSH1 0x0 PUSH2 0x23A8 DUP9 DUP3 DUP10 ADD PUSH2 0x1D8D JUMP JUMPDEST SWAP6 POP POP PUSH1 0x20 PUSH2 0x23B9 DUP9 DUP3 DUP10 ADD PUSH2 0x1D8D JUMP JUMPDEST SWAP5 POP POP PUSH1 0x40 DUP7 ADD CALLDATALOAD PUSH8 0xFFFFFFFFFFFFFFFF DUP2 GT ISZERO PUSH2 0x23DA JUMPI PUSH2 0x23D9 PUSH2 0x1D3F JUMP JUMPDEST JUMPDEST PUSH2 0x23E6 DUP9 DUP3 DUP10 ADD PUSH2 0x21F4 JUMP JUMPDEST SWAP4 POP POP PUSH1 0x60 DUP7 ADD CALLDATALOAD PUSH8 0xFFFFFFFFFFFFFFFF DUP2 GT ISZERO PUSH2 0x2407 JUMPI PUSH2 0x2406 PUSH2 0x1D3F JUMP JUMPDEST JUMPDEST PUSH2 0x2413 DUP9 DUP3 DUP10 ADD PUSH2 0x21F4 JUMP JUMPDEST SWAP3 POP POP PUSH1 0x80 DUP7 ADD CALLDATALOAD PUSH8 0xFFFFFFFFFFFFFFFF DUP2 GT ISZERO PUSH2 0x2434 JUMPI PUSH2 0x2433 PUSH2 0x1D3F JUMP JUMPDEST JUMPDEST PUSH2 0x2440 DUP9 DUP3 DUP10 ADD PUSH2 0x2295 JUMP JUMPDEST SWAP2 POP POP SWAP3 SWAP6 POP SWAP3 SWAP6 SWAP1 SWAP4 POP JUMP JUMPDEST PUSH1 0x0 PUSH8 0xFFFFFFFFFFFFFFFF DUP3 GT ISZERO PUSH2 0x2468 JUMPI PUSH2 0x2467 PUSH2 0x1F18 JUMP JUMPDEST JUMPDEST PUSH1 0x20 DUP3 MUL SWAP1 POP PUSH1 0x20 DUP2 ADD SWAP1 POP SWAP2 SWAP1 POP JUMP JUMPDEST PUSH1 0x0 PUSH2 0x248C PUSH2 0x2487 DUP5 PUSH2 0x244D JUMP JUMPDEST PUSH2 0x1F78 JUMP JUMPDEST SWAP1 POP DUP1 DUP4 DUP3 MSTORE PUSH1 0x20 DUP3 ADD SWAP1 POP PUSH1 0x20 DUP5 MUL DUP4 ADD DUP6 DUP2 GT ISZERO PUSH2 0x24AF JUMPI PUSH2 0x24AE PUSH2 0x2186 JUMP JUMPDEST JUMPDEST DUP4 JUMPDEST DUP2 DUP2 LT ISZERO PUSH2 0x24D8 JUMPI DUP1 PUSH2 0x24C4 DUP9 DUP3 PUSH2 0x1D8D JUMP JUMPDEST DUP5 MSTORE PUSH1 0x20 DUP5 ADD SWAP4 POP POP PUSH1 0x20 DUP2 ADD SWAP1 POP PUSH2 0x24B1 JUMP JUMPDEST POP POP POP SWAP4 SWAP3 POP POP POP JUMP JUMPDEST PUSH1 0x0 DUP3 PUSH1 0x1F DUP4 ADD SLT PUSH2 0x24F7 JUMPI PUSH2 0x24F6 PUSH2 0x1EFD JUMP JUMPDEST JUMPDEST DUP2 CALLDATALOAD PUSH2 0x2507 DUP5 DUP3 PUSH1 0x20 DUP7 ADD PUSH2 0x2479 JUMP JUMPDEST SWAP2 POP POP SWAP3 SWAP2 POP POP JUMP JUMPDEST PUSH1 0x0 DUP1 PUSH1 0x40 DUP4 DUP6 SUB SLT ISZERO PUSH2 0x2527 JUMPI PUSH2 0x2526 PUSH2 0x1D3A JUMP JUMPDEST JUMPDEST PUSH1 0x0 DUP4 ADD CALLDATALOAD PUSH8 0xFFFFFFFFFFFFFFFF DUP2 GT ISZERO PUSH2 0x2545 JUMPI PUSH2 0x2544 PUSH2 0x1D3F JUMP JUMPDEST JUMPDEST PUSH2 0x2551 DUP6 DUP3 DUP7 ADD PUSH2 0x24E2 JUMP JUMPDEST SWAP3 POP POP PUSH1 0x20 DUP4 ADD CALLDATALOAD PUSH8 0xFFFFFFFFFFFFFFFF DUP2 GT ISZERO PUSH2 0x2572 JUMPI PUSH2 0x2571 PUSH2 0x1D3F JUMP JUMPDEST JUMPDEST PUSH2 0x257E DUP6 DUP3 DUP7 ADD PUSH2 0x21F4 JUMP JUMPDEST SWAP2 POP POP SWAP3 POP SWAP3 SWAP1 POP JUMP JUMPDEST PUSH1 0x0 DUP2 MLOAD SWAP1 POP SWAP2 SWAP1 POP JUMP JUMPDEST PUSH1 0x0 DUP3 DUP3 MSTORE PUSH1 0x20 DUP3 ADD SWAP1 POP SWAP3 SWAP2 POP POP JUMP JUMPDEST PUSH1 0x0 DUP2 SWAP1 POP PUSH1 0x20 DUP3 ADD SWAP1 POP SWAP2 SWAP1 POP JUMP JUMPDEST PUSH2 0x25BD DUP2 PUSH2 0x1DA2 JUMP JUMPDEST DUP3 MSTORE POP POP JUMP JUMPDEST PUSH1 0x0 PUSH2 0x25CF DUP4 DUP4 PUSH2 0x25B4 JUMP JUMPDEST PUSH1 0x20 DUP4 ADD SWAP1 POP SWAP3 SWAP2 POP POP JUMP JUMPDEST PUSH1 0x0 PUSH1 0x20 DUP3 ADD SWAP1 POP SWAP2 SWAP1 POP JUMP JUMPDEST PUSH1 0x0 PUSH2 0x25F3 DUP3 PUSH2 0x2588 JUMP JUMPDEST PUSH2 0x25FD DUP2 DUP6 PUSH2 0x2593 JUMP JUMPDEST SWAP4 POP PUSH2 0x2608 DUP4 PUSH2 0x25A4 JUMP JUMPDEST DUP1 PUSH1 0x0 JUMPDEST DUP4 DUP2 LT ISZERO PUSH2 0x2639 JUMPI DUP2 MLOAD PUSH2 0x2620 DUP9 DUP3 PUSH2 0x25C3 JUMP JUMPDEST SWAP8 POP PUSH2 0x262B DUP4 PUSH2 0x25DB JUMP JUMPDEST SWAP3 POP POP PUSH1 0x1 DUP2 ADD SWAP1 POP PUSH2 0x260C JUMP JUMPDEST POP DUP6 SWAP4 POP POP POP POP SWAP3 SWAP2 POP POP JUMP JUMPDEST PUSH1 0x0 PUSH1 0x20 DUP3 ADD SWAP1 POP DUP2 DUP2 SUB PUSH1 0x0 DUP4 ADD MSTORE PUSH2 0x2660 DUP2 DUP5 PUSH2 0x25E8 JUMP JUMPDEST SWAP1 POP SWAP3 SWAP2 POP POP JUMP JUMPDEST PUSH1 0x0 DUP1 PUSH1 0x0 PUSH1 0x60 DUP5 DUP7 SUB SLT ISZERO PUSH2 0x2681 JUMPI PUSH2 0x2680 PUSH2 0x1D3A JUMP JUMPDEST JUMPDEST PUSH1 0x0 PUSH2 0x268F DUP7 DUP3 DUP8 ADD PUSH2 0x1D8D JUMP JUMPDEST SWAP4 POP POP PUSH1 0x20 DUP5 ADD CALLDATALOAD PUSH8 0xFFFFFFFFFFFFFFFF DUP2 GT ISZERO PUSH2 0x26B0 JUMPI PUSH2 0x26AF PUSH2 0x1D3F JUMP JUMPDEST JUMPDEST PUSH2 0x26BC DUP7 DUP3 DUP8 ADD PUSH2 0x21F4 JUMP JUMPDEST SWAP3 POP POP PUSH1 0x40 DUP5 ADD CALLDATALOAD PUSH8 0xFFFFFFFFFFFFFFFF DUP2 GT ISZERO PUSH2 0x26DD JUMPI PUSH2 0x26DC PUSH2 0x1D3F JUMP JUMPDEST JUMPDEST PUSH2 0x26E9 DUP7 DUP3 DUP8 ADD PUSH2 0x21F4 JUMP JUMPDEST SWAP2 POP POP SWAP3 POP SWAP3 POP SWAP3 JUMP JUMPDEST PUSH1 0x0 DUP1 PUSH1 0x0 DUP1 PUSH1 0x80 DUP6 DUP8 SUB SLT ISZERO PUSH2 0x270D JUMPI PUSH2 0x270C PUSH2 0x1D3A JUMP JUMPDEST JUMPDEST PUSH1 0x0 PUSH2 0x271B DUP8 DUP3 DUP9 ADD PUSH2 0x1D8D JUMP JUMPDEST SWAP5 POP POP PUSH1 0x20 PUSH2 0x272C DUP8 DUP3 DUP9 ADD PUSH2 0x1DC3 JUMP JUMPDEST SWAP4 POP POP PUSH1 0x40 PUSH2 0x273D DUP8 DUP3 DUP9 ADD PUSH2 0x1DC3 JUMP JUMPDEST SWAP3 POP POP PUSH1 0x60 DUP6 ADD CALLDATALOAD PUSH8 0xFFFFFFFFFFFFFFFF DUP2 GT ISZERO PUSH2 0x275E JUMPI PUSH2 0x275D PUSH2 0x1D3F JUMP JUMPDEST JUMPDEST PUSH2 0x276A DUP8 DUP3 DUP9 ADD PUSH2 0x2295 JUMP JUMPDEST SWAP2 POP POP SWAP3 SWAP6 SWAP2 SWAP5 POP SWAP3 POP JUMP JUMPDEST PUSH2 0x277F DUP2 PUSH2 0x1D64 JUMP JUMPDEST DUP3 MSTORE POP POP JUMP JUMPDEST PUSH1 0x0 PUSH1 0x20 DUP3 ADD SWAP1 POP PUSH2 0x279A PUSH1 0x0 DUP4 ADD DUP5 PUSH2 0x2776 JUMP JUMPDEST SWAP3 SWAP2 POP POP JUMP JUMPDEST PUSH2 0x27A9 DUP2 PUSH2 0x1EC7 JUMP JUMPDEST DUP2 EQ PUSH2 0x27B4 JUMPI PUSH1 0x0 DUP1 REVERT JUMPDEST POP JUMP JUMPDEST PUSH1 0x0 DUP2 CALLDATALOAD SWAP1 POP PUSH2 0x27C6 DUP2 PUSH2 0x27A0 JUMP JUMPDEST SWAP3 SWAP2 POP POP JUMP JUMPDEST PUSH1 0x0 DUP1 PUSH1 0x40 DUP4 DUP6 SUB SLT ISZERO PUSH2 0x27E3 JUMPI PUSH2 0x27E2 PUSH2 0x1D3A JUMP JUMPDEST JUMPDEST PUSH1 0x0 PUSH2 0x27F1 DUP6 DUP3 DUP7 ADD PUSH2 0x1D8D JUMP JUMPDEST SWAP3 POP POP PUSH1 0x20 PUSH2 0x2802 DUP6 DUP3 DUP7 ADD PUSH2 0x27B7 JUMP JUMPDEST SWAP2 POP POP SWAP3 POP SWAP3 SWAP1 POP JUMP JUMPDEST PUSH1 0x0 DUP1 PUSH1 0x40 DUP4 DUP6 SUB SLT ISZERO PUSH2 0x2823 JUMPI PUSH2 0x2822 PUSH2 0x1D3A JUMP JUMPDEST JUMPDEST PUSH1 0x0 PUSH2 0x2831 DUP6 DUP3 DUP7 ADD PUSH2 0x1D8D JUMP JUMPDEST SWAP3 POP POP PUSH1 0x20 PUSH2 0x2842 DUP6 DUP3 DUP7 ADD PUSH2 0x1D8D JUMP JUMPDEST SWAP2 POP POP SWAP3 POP SWAP3 SWAP1 POP JUMP JUMPDEST PUSH1 0x0 DUP1 PUSH1 0x0 DUP1 PUSH1 0x0 PUSH1 0xA0 DUP7 DUP9 SUB SLT ISZERO PUSH2 0x2868 JUMPI PUSH2 0x2867 PUSH2 0x1D3A JUMP JUMPDEST JUMPDEST PUSH1 0x0 PUSH2 0x2876 DUP9 DUP3 DUP10 ADD PUSH2 0x1D8D JUMP JUMPDEST SWAP6 POP POP PUSH1 0x20 PUSH2 0x2887 DUP9 DUP3 DUP10 ADD PUSH2 0x1D8D JUMP JUMPDEST SWAP5 POP POP PUSH1 0x40 PUSH2 0x2898 DUP9 DUP3 DUP10 ADD PUSH2 0x1DC3 JUMP JUMPDEST SWAP4 POP POP PUSH1 0x60 PUSH2 0x28A9 DUP9 DUP3 DUP10 ADD PUSH2 0x1DC3 JUMP JUMPDEST SWAP3 POP POP PUSH1 0x80 DUP7 ADD CALLDATALOAD PUSH8 0xFFFFFFFFFFFFFFFF DUP2 GT ISZERO PUSH2 0x28CA JUMPI PUSH2 0x28C9 PUSH2 0x1D3F JUMP JUMPDEST JUMPDEST PUSH2 0x28D6 DUP9 DUP3 DUP10 ADD PUSH2 0x2295 JUMP JUMPDEST SWAP2 POP POP SWAP3 SWAP6 POP SWAP3 SWAP6 SWAP1 SWAP4 POP JUMP JUMPDEST PUSH1 0x0 PUSH1 0x20 DUP3 DUP5 SUB SLT ISZERO PUSH2 0x28F9 JUMPI PUSH2 0x28F8 PUSH2 0x1D3A JUMP JUMPDEST JUMPDEST PUSH1 0x0 PUSH2 0x2907 DUP5 DUP3 DUP6 ADD PUSH2 0x1D8D JUMP JUMPDEST SWAP2 POP POP SWAP3 SWAP2 POP POP JUMP JUMPDEST PUSH1 0x0 DUP1 PUSH1 0x0 PUSH1 0x60 DUP5 DUP7 SUB SLT ISZERO PUSH2 0x2929 JUMPI PUSH2 0x2928 PUSH2 0x1D3A JUMP JUMPDEST JUMPDEST PUSH1 0x0 PUSH2 0x2937 DUP7 DUP3 DUP8 ADD PUSH2 0x1D8D JUMP JUMPDEST SWAP4 POP POP PUSH1 0x20 PUSH2 0x2948 DUP7 DUP3 DUP8 ADD PUSH2 0x1DC3 JUMP JUMPDEST SWAP3 POP POP PUSH1 0x40 PUSH2 0x2959 DUP7 DUP3 DUP8 ADD PUSH2 0x1DC3 JUMP JUMPDEST SWAP2 POP POP SWAP3 POP SWAP3 POP SWAP3 JUMP JUMPDEST PUSH32 0x4E487B7100000000000000000000000000000000000000000000000000000000 PUSH1 0x0 MSTORE PUSH1 0x22 PUSH1 0x4 MSTORE PUSH1 0x24 PUSH1 0x0 REVERT JUMPDEST PUSH1 0x0 PUSH1 0x2 DUP3 DIV SWAP1 POP PUSH1 0x1 DUP3 AND DUP1 PUSH2 0x29AA JUMPI PUSH1 0x7F DUP3 AND SWAP2 POP JUMPDEST PUSH1 0x20 DUP3 LT DUP2 SUB PUSH2 0x29BD JUMPI PUSH2 0x29BC PUSH2 0x2963 JUMP JUMPDEST JUMPDEST POP SWAP2 SWAP1 POP JUMP JUMPDEST PUSH1 0x0 DUP2 SWAP1 POP DUP2 PUSH1 0x0 MSTORE PUSH1 0x20 PUSH1 0x0 KECCAK256 SWAP1 POP SWAP2 SWAP1 POP JUMP JUMPDEST PUSH1 0x0 PUSH1 0x20 PUSH1 0x1F DUP4 ADD DIV SWAP1 POP SWAP2 SWAP1 POP JUMP JUMPDEST PUSH1 0x0 DUP3 DUP3 SHL SWAP1 POP SWAP3 SWAP2 POP POP JUMP JUMPDEST PUSH1 0x0 PUSH1 0x8 DUP4 MUL PUSH2 0x2A25 PUSH32 0xFFFFFFFFFFFFFFFFFFFFFFFFFFFFFFFFFFFFFFFFFFFFFFFFFFFFFFFFFFFFFFFF DUP3 PUSH2 0x29E8 JUMP JUMPDEST PUSH2 0x2A2F DUP7 DUP4 PUSH2 0x29E8 JUMP JUMPDEST SWAP6 POP DUP1 NOT DUP5 AND SWAP4 POP DUP1 DUP7 AND DUP5 OR SWAP3 POP POP POP SWAP4 SWAP3 POP POP POP JUMP JUMPDEST PUSH1 0x0 DUP2 SWAP1 POP SWAP2 SWAP1 POP JUMP JUMPDEST PUSH1 0x0 PUSH2 0x2A6C PUSH2 0x2A67 PUSH2 0x2A62 DUP5 PUSH2 0x1DA2 JUMP JUMPDEST PUSH2 0x2A47 JUMP JUMPDEST PUSH2 0x1DA2 JUMP JUMPDEST SWAP1 POP SWAP2 SWAP1 POP JUMP JUMPDEST PUSH1 0x0 DUP2 SWAP1 POP SWAP2 SWAP1 POP JUMP JUMPDEST PUSH2 0x2A86 DUP4 PUSH2 0x2A51 JUMP JUMPDEST PUSH2 0x2A9A PUSH2 0x2A92 DUP3 PUSH2 0x2A73 JUMP JUMPDEST DUP5 DUP5 SLOAD PUSH2 0x29F5 JUMP JUMPDEST DUP3 SSTORE POP POP POP POP JUMP JUMPDEST PUSH1 0x0 SWAP1 JUMP JUMPDEST PUSH2 0x2AAF PUSH2 0x2AA2 JUMP JUMPDEST PUSH2 0x2ABA DUP2 DUP5 DUP5 PUSH2 0x2A7D JUMP JUMPDEST POP POP POP JUMP JUMPDEST JUMPDEST DUP2 DUP2 LT ISZERO PUSH2 0x2ADE JUMPI PUSH2 0x2AD3 PUSH1 0x0 DUP3 PUSH2 0x2AA7 JUMP JUMPDEST PUSH1 0x1 DUP2 ADD SWAP1 POP PUSH2 0x2AC0 JUMP JUMPDEST POP POP JUMP JUMPDEST PUSH1 0x1F DUP3 GT ISZERO PUSH2 0x2B23 JUMPI PUSH2 0x2AF4 DUP2 PUSH2 0x29C3 JUMP JUMPDEST PUSH2 0x2AFD DUP5 PUSH2 0x29D8 JUMP JUMPDEST DUP2 ADD PUSH1 0x20 DUP6 LT ISZERO PUSH2 0x2B0C JUMPI DUP2 SWAP1 POP JUMPDEST PUSH2 0x2B20 PUSH2 0x2B18 DUP6 PUSH2 0x29D8 JUMP JUMPDEST DUP4 ADD DUP3 PUSH2 0x2ABF JUMP JUMPDEST POP POP JUMPDEST POP POP POP JUMP JUMPDEST PUSH1 0x0 DUP3 DUP3 SHR SWAP1 POP SWAP3 SWAP2 POP POP JUMP JUMPDEST PUSH1 0x0 PUSH2 0x2B46 PUSH1 0x0 NOT DUP5 PUSH1 0x8 MUL PUSH2 0x2B28 JUMP JUMPDEST NOT DUP1 DUP4 AND SWAP2 POP POP SWAP3 SWAP2 POP POP JUMP JUMPDEST PUSH1 0x0 PUSH2 0x2B5F DUP4 DUP4 PUSH2 0x2B35 JUMP JUMPDEST SWAP2 POP DUP3 PUSH1 0x2 MUL DUP3 OR SWAP1 POP SWAP3 SWAP2 POP POP JUMP JUMPDEST PUSH2 0x2B78 DUP3 PUSH2 0x20B9 JUMP JUMPDEST PUSH8 0xFFFFFFFFFFFFFFFF DUP2 GT ISZERO PUSH2 0x2B91 JUMPI PUSH2 0x2B90 PUSH2 0x1F18 JUMP JUMPDEST JUMPDEST PUSH2 0x2B9B DUP3 SLOAD PUSH2 0x2992 JUMP JUMPDEST PUSH2 0x2BA6 DUP3 DUP3 DUP6 PUSH2 0x2AE2 JUMP JUMPDEST PUSH1 0x0 PUSH1 0x20 SWAP1 POP PUSH1 0x1F DUP4 GT PUSH1 0x1 DUP2 EQ PUSH2 0x2BD9 JUMPI PUSH1 0x0 DUP5 ISZERO PUSH2 0x2BC7 JUMPI DUP3 DUP8 ADD MLOAD SWAP1 POP JUMPDEST PUSH2 0x2BD1 DUP6 DUP3 PUSH2 0x2B53 JUMP JUMPDEST DUP7 SSTORE POP PUSH2 0x2C39 JUMP JUMPDEST PUSH1 0x1F NOT DUP5 AND PUSH2 0x2BE7 DUP7 PUSH2 0x29C3 JUMP JUMPDEST PUSH1 0x0 JUMPDEST DUP3 DUP2 LT ISZERO PUSH2 0x2C0F JUMPI DUP5 DUP10 ADD MLOAD DUP3 SSTORE PUSH1 0x1 DUP3 ADD SWAP2 POP PUSH1 0x20 DUP6 ADD SWAP5 POP PUSH1 0x20 DUP2 ADD SWAP1 POP PUSH2 0x2BEA JUMP JUMPDEST DUP7 DUP4 LT ISZERO PUSH2 0x2C2C JUMPI DUP5 DUP10 ADD MLOAD PUSH2 0x2C28 PUSH1 0x1F DUP10 AND DUP3 PUSH2 0x2B35 JUMP JUMPDEST DUP4 SSTORE POP JUMPDEST PUSH1 0x1 PUSH1 0x2 DUP9 MUL ADD DUP9 SSTORE POP POP POP JUMPDEST POP POP POP POP POP POP JUMP JUMPDEST PUSH1 0x0 DUP2 SWAP1 POP SWAP3 SWAP2 POP POP JUMP JUMPDEST PUSH1 0x0 DUP2 SLOAD PUSH2 0x2C59 DUP2 PUSH2 0x2992 JUMP JUMPDEST PUSH2 0x2C63 DUP2 DUP7 PUSH2 0x2C41 JUMP JUMPDEST SWAP5 POP PUSH1 0x1 DUP3 AND PUSH1 0x0 DUP2 EQ PUSH2 0x2C7E JUMPI PUSH1 0x1 DUP2 EQ PUSH2 0x2C93 JUMPI PUSH2 0x2CC6 JUMP JUMPDEST PUSH1 0xFF NOT DUP4 AND DUP7 MSTORE DUP2 ISZERO ISZERO DUP3 MUL DUP7 ADD SWAP4 POP PUSH2 0x2CC6 JUMP JUMPDEST PUSH2 0x2C9C DUP6 PUSH2 0x29C3 JUMP JUMPDEST PUSH1 0x0 JUMPDEST DUP4 DUP2 LT ISZERO PUSH2 0x2CBE JUMPI DUP2 SLOAD DUP2 DUP10 ADD MSTORE PUSH1 0x1 DUP3 ADD SWAP2 POP PUSH1 0x20 DUP2 ADD SWAP1 POP PUSH2 0x2C9F JUMP JUMPDEST DUP4 DUP9 ADD SWAP6 POP POP POP JUMPDEST POP POP POP SWAP3 SWAP2 POP POP JUMP JUMPDEST PUSH1 0x0 PUSH2 0x2CDA DUP3 PUSH2 0x20B9 JUMP JUMPDEST PUSH2 0x2CE4 DUP2 DUP6 PUSH2 0x2C41 JUMP JUMPDEST SWAP4 POP PUSH2 0x2CF4 DUP2 DUP6 PUSH1 0x20 DUP7 ADD PUSH2 0x20D5 JUMP JUMPDEST DUP1 DUP5 ADD SWAP2 POP POP SWAP3 SWAP2 POP POP JUMP JUMPDEST PUSH32 0x2E6A736F6E000000000000000000000000000000000000000000000000000000 DUP2 MSTORE POP JUMP JUMPDEST PUSH1 0x0 PUSH2 0x2D32 DUP3 DUP6 PUSH2 0x2C4C JUMP JUMPDEST SWAP2 POP PUSH2 0x2D3E DUP3 DUP5 PUSH2 0x2CCF JUMP JUMPDEST SWAP2 POP PUSH2 0x2D49 DUP3 PUSH2 0x2D00 JUMP JUMPDEST PUSH1 0x5 DUP3 ADD SWAP2 POP DUP2 SWAP1 POP SWAP4 SWAP3 POP POP POP JUMP JUMPDEST PUSH1 0x0 PUSH1 0x40 DUP3 ADD SWAP1 POP PUSH2 0x2D6E PUSH1 0x0 DUP4 ADD DUP6 PUSH2 0x2776 JUMP JUMPDEST PUSH2 0x2D7B PUSH1 0x20 DUP4 ADD DUP5 PUSH2 0x2776 JUMP JUMPDEST SWAP4 SWAP3 POP POP POP JUMP JUMPDEST PUSH1 0x0 PUSH1 0x40 DUP3 ADD SWAP1 POP PUSH2 0x2D97 PUSH1 0x0 DUP4 ADD DUP6 PUSH2 0x1E18 JUMP JUMPDEST PUSH2 0x2DA4 PUSH1 0x20 DUP4 ADD DUP5 PUSH2 0x1E18 JUMP JUMPDEST SWAP4 SWAP3 POP POP POP JUMP JUMPDEST PUSH32 0x4E487B7100000000000000000000000000000000000000000000000000000000 PUSH1 0x0 MSTORE PUSH1 0x32 PUSH1 0x4 MSTORE PUSH1 0x24 PUSH1 0x0 REVERT JUMPDEST PUSH32 0x4E487B7100000000000000000000000000000000000000000000000000000000 PUSH1 0x0 MSTORE PUSH1 0x11 PUSH1 0x4 MSTORE PUSH1 0x24 PUSH1 0x0 REVERT JUMPDEST PUSH1 0x0 PUSH2 0x2E14 DUP3 PUSH2 0x1DA2 JUMP JUMPDEST SWAP2 POP PUSH32 0xFFFFFFFFFFFFFFFFFFFFFFFFFFFFFFFFFFFFFFFFFFFFFFFFFFFFFFFFFFFFFFFF DUP3 SUB PUSH2 0x2E46 JUMPI PUSH2 0x2E45 PUSH2 0x2DDA JUMP JUMPDEST JUMPDEST PUSH1 0x1 DUP3 ADD SWAP1 POP SWAP2 SWAP1 POP JUMP JUMPDEST PUSH32 0x4E487B7100000000000000000000000000000000000000000000000000000000 PUSH1 0x0 MSTORE PUSH1 0x12 PUSH1 0x4 MSTORE PUSH1 0x24 PUSH1 0x0 REVERT JUMPDEST PUSH1 0x0 PUSH1 0x80 DUP3 ADD SWAP1 POP PUSH2 0x2E95 PUSH1 0x0 DUP4 ADD DUP8 PUSH2 0x2776 JUMP JUMPDEST PUSH2 0x2EA2 PUSH1 0x20 DUP4 ADD DUP7 PUSH2 0x1E18 JUMP JUMPDEST PUSH2 0x2EAF PUSH1 0x40 DUP4 ADD DUP6 PUSH2 0x1E18 JUMP JUMPDEST PUSH2 0x2EBC PUSH1 0x60 DUP4 ADD DUP5 PUSH2 0x1E18 JUMP JUMPDEST SWAP6 SWAP5 POP POP POP POP POP JUMP JUMPDEST PUSH1 0x0 PUSH2 0x2ED0 DUP3 PUSH2 0x1DA2 JUMP JUMPDEST SWAP2 POP PUSH2 0x2EDB DUP4 PUSH2 0x1DA2 JUMP JUMPDEST SWAP3 POP DUP3 DUP3 ADD SWAP1 POP DUP1 DUP3 GT ISZERO PUSH2 0x2EF3 JUMPI PUSH2 0x2EF2 PUSH2 0x2DDA JUMP JUMPDEST JUMPDEST SWAP3 SWAP2 POP POP JUMP JUMPDEST PUSH1 0x0 PUSH1 0x40 DUP3 ADD SWAP1 POP DUP2 DUP2 SUB PUSH1 0x0 DUP4 ADD MSTORE PUSH2 0x2F13 DUP2 DUP6 PUSH2 0x25E8 JUMP JUMPDEST SWAP1 POP DUP2 DUP2 SUB PUSH1 0x20 DUP4 ADD MSTORE PUSH2 0x2F27 DUP2 DUP5 PUSH2 0x25E8 JUMP JUMPDEST SWAP1 POP SWAP4 SWAP3 POP POP POP JUMP JUMPDEST PUSH1 0x0 DUP2 MLOAD SWAP1 POP SWAP2 SWAP1 POP JUMP JUMPDEST PUSH1 0x0 DUP3 DUP3 MSTORE PUSH1 0x20 DUP3 ADD SWAP1 POP SWAP3 SWAP2 POP POP JUMP JUMPDEST PUSH1 0x0 PUSH2 0x2F57 DUP3 PUSH2 0x2F30 JUMP JUMPDEST PUSH2 0x2F61 DUP2 DUP6 PUSH2 0x2F3B JUMP JUMPDEST SWAP4 POP PUSH2 0x2F71 DUP2 DUP6 PUSH1 0x20 DUP7 ADD PUSH2 0x20D5 JUMP JUMPDEST PUSH2 0x2F7A DUP2 PUSH2 0x1F07 JUMP JUMPDEST DUP5 ADD SWAP2 POP POP SWAP3 SWAP2 POP POP JUMP JUMPDEST PUSH1 0x0 PUSH1 0xA0 DUP3 ADD SWAP1 POP PUSH2 0x2F9A PUSH1 0x0 DUP4 ADD DUP9 PUSH2 0x2776 JUMP JUMPDEST PUSH2 0x2FA7 PUSH1 0x20 DUP4 ADD DUP8 PUSH2 0x2776 JUMP JUMPDEST PUSH2 0x2FB4 PUSH1 0x40 DUP4 ADD DUP7 PUSH2 0x1E18 JUMP JUMPDEST PUSH2 0x2FC1 PUSH1 0x60 DUP4 ADD DUP6 PUSH2 0x1E18 JUMP JUMPDEST DUP2 DUP2 SUB PUSH1 0x80 DUP4 ADD MSTORE PUSH2 0x2FD3 DUP2 DUP5 PUSH2 0x2F4C JUMP JUMPDEST SWAP1 POP SWAP7 SWAP6 POP POP POP POP POP POP JUMP JUMPDEST PUSH1 0x0 DUP2 MLOAD SWAP1 POP PUSH2 0x2FEE DUP2 PUSH2 0x1E6E JUMP JUMPDEST SWAP3 SWAP2 POP POP JUMP JUMPDEST PUSH1 0x0 PUSH1 0x20 DUP3 DUP5 SUB SLT ISZERO PUSH2 0x300A JUMPI PUSH2 0x3009 PUSH2 0x1D3A JUMP JUMPDEST JUMPDEST PUSH1 0x0 PUSH2 0x3018 DUP5 DUP3 DUP6 ADD PUSH2 0x2FDF JUMP JUMPDEST SWAP2 POP POP SWAP3 SWAP2 POP POP JUMP JUMPDEST PUSH1 0x0 PUSH1 0xA0 DUP3 ADD SWAP1 POP PUSH2 0x3036 PUSH1 0x0 DUP4 ADD DUP9 PUSH2 0x2776 JUMP JUMPDEST PUSH2 0x3043 PUSH1 0x20 DUP4 ADD DUP8 PUSH2 0x2776 JUMP JUMPDEST DUP2 DUP2 SUB PUSH1 0x40 DUP4 ADD MSTORE PUSH2 0x3055 DUP2 DUP7 PUSH2 0x25E8 JUMP JUMPDEST SWAP1 POP DUP2 DUP2 SUB PUSH1 0x60 DUP4 ADD MSTORE PUSH2 0x3069 DUP2 DUP6 PUSH2 0x25E8 JUMP JUMPDEST SWAP1 POP DUP2 DUP2 SUB PUSH1 0x80 DUP4 ADD MSTORE PUSH2 0x307D DUP2 DUP5 PUSH2 0x2F4C JUMP JUMPDEST SWAP1 POP SWAP7 SWAP6 POP POP POP POP POP POP JUMP INVALID LOG2 PUSH5 0x6970667358 0x22 SLT KECCAK256 0xCE LOG2 0xF8 EXP 0xE3 0xC2 DUP7 0x25 LOG1 AND 0xCD 0xDB 0xFB OR PUSH1 0x29 AND ORIGIN DUP11 SUB PUSH28 0xCD71A76EA0B43C117C150664736F6C63430008140033000000000000 "},"methodIdentifiers":{"balanceOf(address,uint256)":"00fdd58e","balanceOfBatch(address[],uint256[])":"4e1273f4","baseTokenURI()":"d547cfb7","burn(address,uint256,uint256)":"f5298aca","burnBatch(address,uint256[],uint256[])":"6b20c454","isApprovedForAll(address,address)":"e985e9c5","mint(address,uint256,uint256,bytes)":"731133e9","mintBatch(address,uint256[],uint256[],bytes)":"1f7fdffa","owner()":"8da5cb5b","renounceOwnership()":"715018a6","safeBatchTransferFrom(address,address,uint256[],uint256[],bytes)":"2eb2c2d6","safeTransferFrom(address,address,uint256,uint256,bytes)":"f242432a","setApprovalForAll(address,bool)":"a22cb465","setURI(string)":"02fe5305","supportsInterface(bytes4)":"01ffc9a7","transferOwnership(address)":"f2fde38b","uri(uint256)":"0e89341c"}}}}}