{"contracts/ERC1155Token.sol":{"ERC1155Token":{"abi":[{"inputs":[],"stateMutability":"nonpayable","type":"constructor"},{"inputs":[{"internalType":"address","name":"sender","type":"address"},{"internalType":"uint256","name":"balance","type":"uint256"},{"internalType":"uint256","name":"needed","type":"uint256"},{"internalType":"uint256","name":"tokenId","type":"uint256"}],"name":"ERC1155InsufficientBalance","type":"error"},{"inputs":[{"internalType":"address","name":"approver","type":"address"}],"name":"ERC1155InvalidApprover","type":"error"},{"inputs":[{"internalType":"uint256","name":"idsLength","type":"uint256"},{"internalType":"uint256","name":"valuesLength","type":"uint256"}],"name":"ERC1155InvalidArrayLength","type":"error"},{"inputs":[{"internalType":"address","name":"operator","type":"address"}],"name":"ERC1155InvalidOperator","type":"error"},{"inputs":[{"internalType":"address","name":"receiver","type":"address"}],"name":"ERC1155InvalidReceiver","type":"error"},{"inputs":[{"internalType":"address","name":"sender","type":"address"}],"name":"ERC1155InvalidSender","type":"error"},{"inputs":[{"internalType":"address","name":"operator","type":"address"},{"internalType":"address","name":"owner","type":"address"}],"name":"ERC1155MissingApprovalForAll","type":"error"},{"inputs":[{"internalType":"address","name":"owner","type":"address"}],"name":"OwnableInvalidOwner","type":"error"},{"inputs":[{"internalType":"address","name":"account","type":"address"}],"name":"OwnableUnauthorizedAccount","type":"error"},{"anonymous":false,"inputs":[{"indexed":true,"internalType":"address","name":"account","type":"address"},{"indexed":true,"internalType":"address","name":"operator","type":"address"},{"indexed":false,"internalType":"bool","name":"approved","type":"bool"}],"name":"ApprovalForAll","type":"event"},{"anonymous":false,"inputs":[{"indexed":true,"internalType":"address","name":"previousOwner","type":"address"},{"indexed":true,"internalType":"address","name":"newOwner","type":"address"}],"name":"OwnershipTransferred","type":"event"},{"anonymous":false,"inputs":[{"indexed":true,"internalType":"address","name":"operator","type":"address"},{"indexed":true,"internalType":"address","name":"from","type":"address"},{"indexed":true,"internalType":"address","name":"to","type":"address"},{"indexed":false,"internalType":"uint256[]","name":"ids","type":"uint256[]"},{"indexed":false,"internalType":"uint256[]","name":"values","type":"uint256[]"}],"name":"TransferBatch","type":"event"},{"anonymous":false,"inputs":[{"indexed":true,"internalType":"address","name":"operator","type":"address"},{"indexed":true,"internalType":"address","name":"from","type":"address"},{"indexed":true,"internalType":"address","name":"to","type":"address"},{"indexed":false,"internalType":"uint256","name":"id","type":"uint256"},{"indexed":false,"internalType":"uint256","name":"value","type":"uint256"}],"name":"TransferSingle","type":"event"},{"anonymous":false,"inputs":[{"indexed":false,"internalType":"string","name":"value","type":"string"},{"indexed":true,"internalType":"uint256","name":"id","type":"uint256"}],"name":"URI","type":"event"},{"inputs":[{"internalType":"address","name":"account","type":"address"},{"internalType":"uint256","name":"id","type":"uint256"}],"name":"balanceOf","outputs":[{"internalType":"uint256","name":"","type":"uint256"}],"stateMutability":"view","type":"function"},{"inputs":[{"internalType":"address[]","name":"accounts","type":"address[]"},{"internalType":"uint256[]","name":"ids","type":"uint256[]"}],"name":"balanceOfBatch","outputs":[{"internalType":"uint256[]","name":"","type":"uint256[]"}],"stateMutability":"view","type":"function"},{"inputs":[{"internalType":"address","name":"account","type":"address"},{"internalType":"uint256","name":"id","type":"uint256"},{"internalType":"uint256","name":"value","type":"uint256"}],"name":"burn","outputs":[],"stateMutability":"nonpayable","type":"function"},{"inputs":[{"internalType":"address","name":"account","type":"address"},{"internalType":"uint256[]","name":"ids","type":"uint256[]"},{"internalType":"uint256[]","name":"values","type":"uint256[]"}],"name":"burnBatch","outputs":[],"stateMutability":"nonpayable","type":"function"},{"inputs":[{"internalType":"address","name":"account","type":"address"},{"internalType":"address","name":"operator","type":"address"}],"name":"isApprovedForAll","outputs":[{"internalType":"bool","name":"","type":"bool"}],"stateMutability":"view","type":"function"},{"inputs":[{"internalType":"address","name":"account","type":"address"},{"internalType":"uint256","name":"id","type":"uint256"},{"internalType":"uint256","name":"amount","type":"uint256"},{"internalType":"bytes","name":"data","type":"bytes"}],"name":"mint","outputs":[],"stateMutability":"nonpayable","type":"function"},{"inputs":[{"internalType":"address","name":"to","type":"address"},{"internalType":"uint256[]","name":"ids","type":"uint256[]"},{"internalType":"uint256[]","name":"amounts","type":"uint256[]"},{"internalType":"bytes","name":"data","type":"bytes"}],"name":"mintBatch","outputs":[],"stateMutability":"nonpayable","type":"function"},{"inputs":[],"name":"owner","outputs":[{"internalType":"address","name":"","type":"address"}],"stateMutability":"view","type":"function"},{"inputs":[],"name":"renounceOwnership","outputs":[],"stateMutability":"nonpayable","type":"function"},{"inputs":[{"internalType":"address","name":"from","type":"address"},{"internalType":"address","name":"to","type":"address"},{"internalType":"uint256[]","name":"ids","type":"uint256[]"},{"internalType":"uint256[]","name":"values","type":"uint256[]"},{"internalType":"bytes","name":"data","type":"bytes"}],"name":"safeBatchTransferFrom","outputs":[],"stateMutability":"nonpayable","type":"function"},{"inputs":[{"internalType":"address","name":"from","type":"address"},{"internalType":"address","name":"to","type":"address"},{"internalType":"uint256","name":"id","type":"uint256"},{"internalType":"uint256","name":"value","type":"uint256"},{"internalType":"bytes","name":"data","type":"bytes"}],"name":"safeTransferFrom","outputs":[],"stateMutability":"nonpayable","type":"function"},{"inputs":[{"internalType":"address","name":"operator","type":"address"},{"internalType":"bool","name":"approved","type":"bool"}],"name":"setApprovalForAll","outputs":[],"stateMutability":"nonpayable","type":"function"},{"inputs":[{"internalType":"string","name":"newuri","type":"string"}],"name":"setURI","outputs":[],"stateMutability":"nonpayable","type":"function"},{"inputs":[{"internalType":"bytes4","name":"interfaceId","type":"bytes4"}],"name":"supportsInterface","outputs":[{"internalType":"bool","name":"","type":"bool"}],"stateMutability":"view","type":"function"},{"inputs":[{"internalType":"address","name":"newOwner","type":"address"}],"name":"transferOwnership","outputs":[],"stateMutability":"nonpayable","type":"function"},{"inputs":[{"internalType":"uint256","name":"","type":"uint256"}],"name":"uri","outputs":[{"internalType":"string","name":"","type":"string"}],"stateMutability":"view","type":"function"}],"evm":{"bytecode":{"linkReferences":{},"object":"60806040523480156200001157600080fd5b5033604051806020016040528060008152506200003481620000c260201b60201c565b50600073ffffffffffffffffffffffffffffffffffffffff168173ffffffffffffffffffffffffffffffffffffffff1603620000aa5760006040517f1e4fbdf7000000000000000000000000000000000000000000000000000000008152600401620000a19190620001e2565b60405180910390fd5b620000bb81620000d760201b60201c565b5062000560565b8060029081620000d3919062000479565b5050565b6000600360009054906101000a900473ffffffffffffffffffffffffffffffffffffffff16905081600360006101000a81548173ffffffffffffffffffffffffffffffffffffffff021916908373ffffffffffffffffffffffffffffffffffffffff1602179055508173ffffffffffffffffffffffffffffffffffffffff168173ffffffffffffffffffffffffffffffffffffffff167f8be0079c531659141344cd1fd0a4f28419497f9722a3daafe3b4186f6b6457e060405160405180910390a35050565b600073ffffffffffffffffffffffffffffffffffffffff82169050919050565b6000620001ca826200019d565b9050919050565b620001dc81620001bd565b82525050565b6000602082019050620001f96000830184620001d1565b92915050565b600081519050919050565b7f4e487b7100000000000000000000000000000000000000000000000000000000600052604160045260246000fd5b7f4e487b7100000000000000000000000000000000000000000000000000000000600052602260045260246000fd5b600060028204905060018216806200028157607f821691505b60208210810362000297576200029662000239565b5b50919050565b60008190508160005260206000209050919050565b60006020601f8301049050919050565b600082821b905092915050565b600060088302620003017fffffffffffffffffffffffffffffffffffffffffffffffffffffffffffffffff82620002c2565b6200030d8683620002c2565b95508019841693508086168417925050509392505050565b6000819050919050565b6000819050919050565b60006200035a620003546200034e8462000325565b6200032f565b62000325565b9050919050565b6000819050919050565b620003768362000339565b6200038e620003858262000361565b848454620002cf565b825550505050565b600090565b620003a562000396565b620003b28184846200036b565b505050565b5b81811015620003da57620003ce6000826200039b565b600181019050620003b8565b5050565b601f8211156200042957620003f3816200029d565b620003fe84620002b2565b810160208510156200040e578190505b620004266200041d85620002b2565b830182620003b7565b50505b505050565b600082821c905092915050565b60006200044e600019846008026200042e565b1980831691505092915050565b60006200046983836200043b565b9150826002028217905092915050565b6200048482620001ff565b67ffffffffffffffff811115620004a0576200049f6200020a565b5b620004ac825462000268565b620004b9828285620003de565b600060209050601f831160018114620004f15760008415620004dc578287015190505b620004e885826200045b565b86555062000558565b601f19841662000501866200029d565b60005b828110156200052b5784890151825560018201915060208501945060208101905062000504565b868310156200054b578489015162000547601f8916826200043b565b8355505b6001600288020188555050505b505050505050565b612c5c80620005706000396000f3fe608060405234801561001057600080fd5b50600436106100ff5760003560e01c8063715018a611610097578063e985e9c511610066578063e985e9c514610294578063f242432a146102c4578063f2fde38b146102e0578063f5298aca146102fc576100ff565b8063715018a614610234578063731133e91461023e5780638da5cb5b1461025a578063a22cb46514610278576100ff565b80631f7fdffa116100d35780631f7fdffa146101b05780632eb2c2d6146101cc5780634e1273f4146101e85780636b20c45414610218576100ff565b8062fdd58e1461010457806301ffc9a71461013457806302fe5305146101645780630e89341c14610180575b600080fd5b61011e60048036038101906101199190611abc565b610318565b60405161012b9190611b0b565b60405180910390f35b61014e60048036038101906101499190611b7e565b610372565b60405161015b9190611bc6565b60405180910390f35b61017e60048036038101906101799190611d27565b610454565b005b61019a60048036038101906101959190611d70565b610468565b6040516101a79190611e1c565b60405180910390f35b6101ca60048036038101906101c59190611fa7565b6104fc565b005b6101e660048036038101906101e19190612062565b610516565b005b61020260048036038101906101fd91906121f4565b6105be565b60405161020f919061232a565b60405180910390f35b610232600480360381019061022d919061234c565b6106cd565b005b61023c610779565b005b610258600480360381019061025391906123d7565b61078d565b005b6102626107a7565b60405161026f9190612469565b60405180910390f35b610292600480360381019061028d91906124b0565b6107d1565b005b6102ae60048036038101906102a991906124f0565b6107e7565b6040516102bb9190611bc6565b60405180910390f35b6102de60048036038101906102d99190612530565b61087b565b005b6102fa60048036038101906102f591906125c7565b610923565b005b610316600480360381019061031191906125f4565b6109a9565b005b600080600083815260200190815260200160002060008473ffffffffffffffffffffffffffffffffffffffff1673ffffffffffffffffffffffffffffffffffffffff16815260200190815260200160002054905092915050565b60007fd9b67a26000000000000000000000000000000000000000000000000000000007bffffffffffffffffffffffffffffffffffffffffffffffffffffffff1916827bffffffffffffffffffffffffffffffffffffffffffffffffffffffff1916148061043d57507f0e89341c000000000000000000000000000000000000000000000000000000007bffffffffffffffffffffffffffffffffffffffffffffffffffffffff1916827bffffffffffffffffffffffffffffffffffffffffffffffffffffffff1916145b8061044d575061044c82610a55565b5b9050919050565b61045c610abf565b61046581610b46565b50565b60606002805461047790612676565b80601f01602080910402602001604051908101604052809291908181526020018280546104a390612676565b80156104f05780601f106104c5576101008083540402835291602001916104f0565b820191906000526020600020905b8154815290600101906020018083116104d357829003601f168201915b50505050509050919050565b610504610abf565b61051084848484610b59565b50505050565b6000610520610bdf565b90508073ffffffffffffffffffffffffffffffffffffffff168673ffffffffffffffffffffffffffffffffffffffff1614158015610565575061056386826107e7565b155b156105a95780866040517fe237d9220000000000000000000000000000000000000000000000000000000081526004016105a09291906126a7565b60405180910390fd5b6105b68686868686610be7565b505050505050565b6060815183511461060a57815183516040517f5b0599910000000000000000000000000000000000000000000000000000000081526004016106019291906126d0565b60405180910390fd5b6000835167ffffffffffffffff81111561062757610626611bfc565b5b6040519080825280602002602001820160405280156106555781602001602082028036833780820191505090505b50905060005b84518110156106c25761069261067a8287610cdf90919063ffffffff16565b61068d8387610cf390919063ffffffff16565b610318565b8282815181106106a5576106a46126f9565b5b602002602001018181525050806106bb90612757565b905061065b565b508091505092915050565b6106d5610bdf565b73ffffffffffffffffffffffffffffffffffffffff168373ffffffffffffffffffffffffffffffffffffffff161415801561071e575061071c83610717610bdf565b6107e7565b155b156107695761072b610bdf565b836040517fe237d9220000000000000000000000000000000000000000000000000000000081526004016107609291906126a7565b60405180910390fd5b610774838383610d07565b505050565b610781610abf565b61078b6000610d9b565b565b610795610abf565b6107a184848484610e61565b50505050565b6000600360009054906101000a900473ffffffffffffffffffffffffffffffffffffffff16905090565b6107e36107dc610bdf565b8383610efa565b5050565b6000600160008473ffffffffffffffffffffffffffffffffffffffff1673ffffffffffffffffffffffffffffffffffffffff16815260200190815260200160002060008373ffffffffffffffffffffffffffffffffffffffff1673ffffffffffffffffffffffffffffffffffffffff16815260200190815260200160002060009054906101000a900460ff16905092915050565b6000610885610bdf565b90508073ffffffffffffffffffffffffffffffffffffffff168673ffffffffffffffffffffffffffffffffffffffff16141580156108ca57506108c886826107e7565b155b1561090e5780866040517fe237d9220000000000000000000000000000000000000000000000000000000081526004016109059291906126a7565b60405180910390fd5b61091b868686868661106a565b505050505050565b61092b610abf565b600073ffffffffffffffffffffffffffffffffffffffff168173ffffffffffffffffffffffffffffffffffffffff160361099d5760006040517f1e4fbdf70000000000000000000000000000000000000000000000000000000081526004016109949190612469565b60405180910390fd5b6109a681610d9b565b50565b6109b1610bdf565b73ffffffffffffffffffffffffffffffffffffffff168373ffffffffffffffffffffffffffffffffffffffff16141580156109fa57506109f8836109f3610bdf565b6107e7565b155b15610a4557610a07610bdf565b836040517fe237d922000000000000000000000000000000000000000000000000000000008152600401610a3c9291906126a7565b60405180910390fd5b610a50838383611175565b505050565b60007f01ffc9a7000000000000000000000000000000000000000000000000000000007bffffffffffffffffffffffffffffffffffffffffffffffffffffffff1916827bffffffffffffffffffffffffffffffffffffffffffffffffffffffff1916149050919050565b610ac7610bdf565b73ffffffffffffffffffffffffffffffffffffffff16610ae56107a7565b73ffffffffffffffffffffffffffffffffffffffff1614610b4457610b08610bdf565b6040517f118cdaa7000000000000000000000000000000000000000000000000000000008152600401610b3b9190612469565b60405180910390fd5b565b8060029081610b55919061294b565b5050565b600073ffffffffffffffffffffffffffffffffffffffff168473ffffffffffffffffffffffffffffffffffffffff1603610bcb5760006040517f57f447ce000000000000000000000000000000000000000000000000000000008152600401610bc29190612469565b60405180910390fd5b610bd960008585858561121c565b50505050565b600033905090565b600073ffffffffffffffffffffffffffffffffffffffff168473ffffffffffffffffffffffffffffffffffffffff1603610c595760006040517f57f447ce000000000000000000000000000000000000000000000000000000008152600401610c509190612469565b60405180910390fd5b600073ffffffffffffffffffffffffffffffffffffffff168573ffffffffffffffffffffffffffffffffffffffff1603610ccb5760006040517f01a83514000000000000000000000000000000000000000000000000000000008152600401610cc29190612469565b60405180910390fd5b610cd8858585858561121c565b5050505050565b600060208202602084010151905092915050565b600060208202602084010151905092915050565b600073ffffffffffffffffffffffffffffffffffffffff168373ffffffffffffffffffffffffffffffffffffffff1603610d795760006040517f01a83514000000000000000000000000000000000000000000000000000000008152600401610d709190612469565b60405180910390fd5b610d9683600084846040518060200160405280600081525061121c565b505050565b6000600360009054906101000a900473ffffffffffffffffffffffffffffffffffffffff16905081600360006101000a81548173ffffffffffffffffffffffffffffffffffffffff021916908373ffffffffffffffffffffffffffffffffffffffff1602179055508173ffffffffffffffffffffffffffffffffffffffff168173ffffffffffffffffffffffffffffffffffffffff167f8be0079c531659141344cd1fd0a4f28419497f9722a3daafe3b4186f6b6457e060405160405180910390a35050565b600073ffffffffffffffffffffffffffffffffffffffff168473ffffffffffffffffffffffffffffffffffffffff1603610ed35760006040517f57f447ce000000000000000000000000000000000000000000000000000000008152600401610eca9190612469565b60405180910390fd5b600080610ee085856112ce565b91509150610ef260008784848761121c565b505050505050565b600073ffffffffffffffffffffffffffffffffffffffff168273ffffffffffffffffffffffffffffffffffffffff1603610f6c5760006040517fced3e100000000000000000000000000000000000000000000000000000000008152600401610f639190612469565b60405180910390fd5b80600160008573ffffffffffffffffffffffffffffffffffffffff1673ffffffffffffffffffffffffffffffffffffffff16815260200190815260200160002060008473ffffffffffffffffffffffffffffffffffffffff1673ffffffffffffffffffffffffffffffffffffffff16815260200190815260200160002060006101000a81548160ff0219169083151502179055508173ffffffffffffffffffffffffffffffffffffffff168373ffffffffffffffffffffffffffffffffffffffff167f17307eab39ab6107e8899845ad3d59bd9653f200f220920489ca2b5937696c318360405161105d9190611bc6565b60405180910390a3505050565b600073ffffffffffffffffffffffffffffffffffffffff168473ffffffffffffffffffffffffffffffffffffffff16036110dc5760006040517f57f447ce0000000000000000000000000000000000000000000000000000000081526004016110d39190612469565b60405180910390fd5b600073ffffffffffffffffffffffffffffffffffffffff168573ffffffffffffffffffffffffffffffffffffffff160361114e5760006040517f01a835140000000000000000000000000000000000000000000000000000000081526004016111459190612469565b60405180910390fd5b60008061115b85856112ce565b9150915061116c878784848761121c565b50505050505050565b600073ffffffffffffffffffffffffffffffffffffffff168373ffffffffffffffffffffffffffffffffffffffff16036111e75760006040517f01a835140000000000000000000000000000000000000000000000000000000081526004016111de9190612469565b60405180910390fd5b6000806111f484846112ce565b9150915061121585600084846040518060200160405280600081525061121c565b5050505050565b611228858585856112fe565b600073ffffffffffffffffffffffffffffffffffffffff168473ffffffffffffffffffffffffffffffffffffffff16146112c7576000611266610bdf565b905060018451036112b6576000611287600086610cf390919063ffffffff16565b9050600061129f600086610cf390919063ffffffff16565b90506112af8389898585896116ac565b50506112c5565b6112c4818787878787611860565b5b505b5050505050565b60608060405191506001825283602083015260408201905060018152826020820152604081016040529250929050565b805182511461134857815181516040517f5b05999100000000000000000000000000000000000000000000000000000000815260040161133f9291906126d0565b60405180910390fd5b6000611352610bdf565b905060005b83518110156115675760006113758286610cf390919063ffffffff16565b9050600061138c8386610cf390919063ffffffff16565b9050600073ffffffffffffffffffffffffffffffffffffffff168873ffffffffffffffffffffffffffffffffffffffff16146114b957600080600084815260200190815260200160002060008a73ffffffffffffffffffffffffffffffffffffffff1673ffffffffffffffffffffffffffffffffffffffff1681526020019081526020016000205490508181101561146157888183856040517f03dee4c50000000000000000000000000000000000000000000000000000000081526004016114589493929190612a1d565b60405180910390fd5b81810360008085815260200190815260200160002060008b73ffffffffffffffffffffffffffffffffffffffff1673ffffffffffffffffffffffffffffffffffffffff16815260200190815260200160002081905550505b600073ffffffffffffffffffffffffffffffffffffffff168773ffffffffffffffffffffffffffffffffffffffff1614611554578060008084815260200190815260200160002060008973ffffffffffffffffffffffffffffffffffffffff1673ffffffffffffffffffffffffffffffffffffffff168152602001908152602001600020600082825461154c9190612a62565b925050819055505b50508061156090612757565b9050611357565b506001835103611626576000611587600085610cf390919063ffffffff16565b9050600061159f600085610cf390919063ffffffff16565b90508573ffffffffffffffffffffffffffffffffffffffff168773ffffffffffffffffffffffffffffffffffffffff168473ffffffffffffffffffffffffffffffffffffffff167fc3d58168c5ae7397731d063d5bbf3d657854427343f4c083240f7aacaa2d0f6285856040516116179291906126d0565b60405180910390a450506116a5565b8373ffffffffffffffffffffffffffffffffffffffff168573ffffffffffffffffffffffffffffffffffffffff168273ffffffffffffffffffffffffffffffffffffffff167f4a39dc06d4c0dbc64b70af90fd698a233a518aa5d07e595d983b8c0526c8f7fb868660405161169c929190612a96565b60405180910390a45b5050505050565b60008473ffffffffffffffffffffffffffffffffffffffff163b1115611858578373ffffffffffffffffffffffffffffffffffffffff1663f23a6e6187878686866040518663ffffffff1660e01b815260040161170d959493929190612b22565b6020604051808303816000875af192505050801561174957506040513d601f19601f820116820180604052508101906117469190612b91565b60015b6117cd573d8060008114611779576040519150601f19603f3d011682016040523d82523d6000602084013e61177e565b606091505b5060008151036117c557846040517f57f447ce0000000000000000000000000000000000000000000000000000000081526004016117bc9190612469565b60405180910390fd5b805181602001fd5b63f23a6e6160e01b7bffffffffffffffffffffffffffffffffffffffffffffffffffffffff1916817bffffffffffffffffffffffffffffffffffffffffffffffffffffffff19161461185657846040517f57f447ce00000000000000000000000000000000000000000000000000000000815260040161184d9190612469565b60405180910390fd5b505b505050505050565b60008473ffffffffffffffffffffffffffffffffffffffff163b1115611a0c578373ffffffffffffffffffffffffffffffffffffffff1663bc197c8187878686866040518663ffffffff1660e01b81526004016118c1959493929190612bbe565b6020604051808303816000875af19250505080156118fd57506040513d601f19601f820116820180604052508101906118fa9190612b91565b60015b611981573d806000811461192d576040519150601f19603f3d011682016040523d82523d6000602084013e611932565b606091505b50600081510361197957846040517f57f447ce0000000000000000000000000000000000000000000000000000000081526004016119709190612469565b60405180910390fd5b805181602001fd5b63bc197c8160e01b7bffffffffffffffffffffffffffffffffffffffffffffffffffffffff1916817bffffffffffffffffffffffffffffffffffffffffffffffffffffffff191614611a0a57846040517f57f447ce000000000000000000000000000000000000000000000000000000008152600401611a019190612469565b60405180910390fd5b505b505050505050565b6000604051905090565b600080fd5b600080fd5b600073ffffffffffffffffffffffffffffffffffffffff82169050919050565b6000611a5382611a28565b9050919050565b611a6381611a48565b8114611a6e57600080fd5b50565b600081359050611a8081611a5a565b92915050565b6000819050919050565b611a9981611a86565b8114611aa457600080fd5b50565b600081359050611ab681611a90565b92915050565b60008060408385031215611ad357611ad2611a1e565b5b6000611ae185828601611a71565b9250506020611af285828601611aa7565b9150509250929050565b611b0581611a86565b82525050565b6000602082019050611b206000830184611afc565b92915050565b60007fffffffff0000000000000000000000000000000000000000000000000000000082169050919050565b611b5b81611b26565b8114611b6657600080fd5b50565b600081359050611b7881611b52565b92915050565b600060208284031215611b9457611b93611a1e565b5b6000611ba284828501611b69565b91505092915050565b60008115159050919050565b611bc081611bab565b82525050565b6000602082019050611bdb6000830184611bb7565b92915050565b600080fd5b600080fd5b6000601f19601f8301169050919050565b7f4e487b7100000000000000000000000000000000000000000000000000000000600052604160045260246000fd5b611c3482611beb565b810181811067ffffffffffffffff82111715611c5357611c52611bfc565b5b80604052505050565b6000611c66611a14565b9050611c728282611c2b565b919050565b600067ffffffffffffffff821115611c9257611c91611bfc565b5b611c9b82611beb565b9050602081019050919050565b82818337600083830152505050565b6000611cca611cc584611c77565b611c5c565b905082815260208101848484011115611ce657611ce5611be6565b5b611cf1848285611ca8565b509392505050565b600082601f830112611d0e57611d0d611be1565b5b8135611d1e848260208601611cb7565b91505092915050565b600060208284031215611d3d57611d3c611a1e565b5b600082013567ffffffffffffffff811115611d5b57611d5a611a23565b5b611d6784828501611cf9565b91505092915050565b600060208284031215611d8657611d85611a1e565b5b6000611d9484828501611aa7565b91505092915050565b600081519050919050565b600082825260208201905092915050565b60005b83811015611dd7578082015181840152602081019050611dbc565b60008484015250505050565b6000611dee82611d9d565b611df88185611da8565b9350611e08818560208601611db9565b611e1181611beb565b840191505092915050565b60006020820190508181036000830152611e368184611de3565b905092915050565b600067ffffffffffffffff821115611e5957611e58611bfc565b5b602082029050602081019050919050565b600080fd5b6000611e82611e7d84611e3e565b611c5c565b90508083825260208201905060208402830185811115611ea557611ea4611e6a565b5b835b81811015611ece5780611eba8882611aa7565b845260208401935050602081019050611ea7565b5050509392505050565b600082601f830112611eed57611eec611be1565b5b8135611efd848260208601611e6f565b91505092915050565b600067ffffffffffffffff821115611f2157611f20611bfc565b5b611f2a82611beb565b9050602081019050919050565b6000611f4a611f4584611f06565b611c5c565b905082815260208101848484011115611f6657611f65611be6565b5b611f71848285611ca8565b509392505050565b600082601f830112611f8e57611f8d611be1565b5b8135611f9e848260208601611f37565b91505092915050565b60008060008060808587031215611fc157611fc0611a1e565b5b6000611fcf87828801611a71565b945050602085013567ffffffffffffffff811115611ff057611fef611a23565b5b611ffc87828801611ed8565b935050604085013567ffffffffffffffff81111561201d5761201c611a23565b5b61202987828801611ed8565b925050606085013567ffffffffffffffff81111561204a57612049611a23565b5b61205687828801611f79565b91505092959194509250565b600080600080600060a0868803121561207e5761207d611a1e565b5b600061208c88828901611a71565b955050602061209d88828901611a71565b945050604086013567ffffffffffffffff8111156120be576120bd611a23565b5b6120ca88828901611ed8565b935050606086013567ffffffffffffffff8111156120eb576120ea611a23565b5b6120f788828901611ed8565b925050608086013567ffffffffffffffff81111561211857612117611a23565b5b61212488828901611f79565b9150509295509295909350565b600067ffffffffffffffff82111561214c5761214b611bfc565b5b602082029050602081019050919050565b600061217061216b84612131565b611c5c565b9050808382526020820190506020840283018581111561219357612192611e6a565b5b835b818110156121bc57806121a88882611a71565b845260208401935050602081019050612195565b5050509392505050565b600082601f8301126121db576121da611be1565b5b81356121eb84826020860161215d565b91505092915050565b6000806040838503121561220b5761220a611a1e565b5b600083013567ffffffffffffffff81111561222957612228611a23565b5b612235858286016121c6565b925050602083013567ffffffffffffffff81111561225657612255611a23565b5b61226285828601611ed8565b9150509250929050565b600081519050919050565b600082825260208201905092915050565b6000819050602082019050919050565b6122a181611a86565b82525050565b60006122b38383612298565b60208301905092915050565b6000602082019050919050565b60006122d78261226c565b6122e18185612277565b93506122ec83612288565b8060005b8381101561231d57815161230488826122a7565b975061230f836122bf565b9250506001810190506122f0565b5085935050505092915050565b6000602082019050818103600083015261234481846122cc565b905092915050565b60008060006060848603121561236557612364611a1e565b5b600061237386828701611a71565b935050602084013567ffffffffffffffff81111561239457612393611a23565b5b6123a086828701611ed8565b925050604084013567ffffffffffffffff8111156123c1576123c0611a23565b5b6123cd86828701611ed8565b9150509250925092565b600080600080608085870312156123f1576123f0611a1e565b5b60006123ff87828801611a71565b945050602061241087828801611aa7565b935050604061242187828801611aa7565b925050606085013567ffffffffffffffff81111561244257612441611a23565b5b61244e87828801611f79565b91505092959194509250565b61246381611a48565b82525050565b600060208201905061247e600083018461245a565b92915050565b61248d81611bab565b811461249857600080fd5b50565b6000813590506124aa81612484565b92915050565b600080604083850312156124c7576124c6611a1e565b5b60006124d585828601611a71565b92505060206124e68582860161249b565b9150509250929050565b6000806040838503121561250757612506611a1e565b5b600061251585828601611a71565b925050602061252685828601611a71565b9150509250929050565b600080600080600060a0868803121561254c5761254b611a1e565b5b600061255a88828901611a71565b955050602061256b88828901611a71565b945050604061257c88828901611aa7565b935050606061258d88828901611aa7565b925050608086013567ffffffffffffffff8111156125ae576125ad611a23565b5b6125ba88828901611f79565b9150509295509295909350565b6000602082840312156125dd576125dc611a1e565b5b60006125eb84828501611a71565b91505092915050565b60008060006060848603121561260d5761260c611a1e565b5b600061261b86828701611a71565b935050602061262c86828701611aa7565b925050604061263d86828701611aa7565b9150509250925092565b7f4e487b7100000000000000000000000000000000000000000000000000000000600052602260045260246000fd5b6000600282049050600182168061268e57607f821691505b6020821081036126a1576126a0612647565b5b50919050565b60006040820190506126bc600083018561245a565b6126c9602083018461245a565b9392505050565b60006040820190506126e56000830185611afc565b6126f26020830184611afc565b9392505050565b7f4e487b7100000000000000000000000000000000000000000000000000000000600052603260045260246000fd5b7f4e487b7100000000000000000000000000000000000000000000000000000000600052601160045260246000fd5b600061276282611a86565b91507fffffffffffffffffffffffffffffffffffffffffffffffffffffffffffffffff820361279457612793612728565b5b600182019050919050565b60008190508160005260206000209050919050565b60006020601f8301049050919050565b600082821b905092915050565b6000600883026128017fffffffffffffffffffffffffffffffffffffffffffffffffffffffffffffffff826127c4565b61280b86836127c4565b95508019841693508086168417925050509392505050565b6000819050919050565b600061284861284361283e84611a86565b612823565b611a86565b9050919050565b6000819050919050565b6128628361282d565b61287661286e8261284f565b8484546127d1565b825550505050565b600090565b61288b61287e565b612896818484612859565b505050565b5b818110156128ba576128af600082612883565b60018101905061289c565b5050565b601f8211156128ff576128d08161279f565b6128d9846127b4565b810160208510156128e8578190505b6128fc6128f4856127b4565b83018261289b565b50505b505050565b600082821c905092915050565b600061292260001984600802612904565b1980831691505092915050565b600061293b8383612911565b9150826002028217905092915050565b61295482611d9d565b67ffffffffffffffff81111561296d5761296c611bfc565b5b6129778254612676565b6129828282856128be565b600060209050601f8311600181146129b557600084156129a3578287015190505b6129ad858261292f565b865550612a15565b601f1984166129c38661279f565b60005b828110156129eb578489015182556001820191506020850194506020810190506129c6565b86831015612a085784890151612a04601f891682612911565b8355505b6001600288020188555050505b505050505050565b6000608082019050612a32600083018761245a565b612a3f6020830186611afc565b612a4c6040830185611afc565b612a596060830184611afc565b95945050505050565b6000612a6d82611a86565b9150612a7883611a86565b9250828201905080821115612a9057612a8f612728565b5b92915050565b60006040820190508181036000830152612ab081856122cc565b90508181036020830152612ac481846122cc565b90509392505050565b600081519050919050565b600082825260208201905092915050565b6000612af482612acd565b612afe8185612ad8565b9350612b0e818560208601611db9565b612b1781611beb565b840191505092915050565b600060a082019050612b37600083018861245a565b612b44602083018761245a565b612b516040830186611afc565b612b5e6060830185611afc565b8181036080830152612b708184612ae9565b90509695505050505050565b600081519050612b8b81611b52565b92915050565b600060208284031215612ba757612ba6611a1e565b5b6000612bb584828501612b7c565b91505092915050565b600060a082019050612bd3600083018861245a565b612be0602083018761245a565b8181036040830152612bf281866122cc565b90508181036060830152612c0681856122cc565b90508181036080830152612c1a8184612ae9565b9050969550505050505056fea26469706673582212207924de8e2ed3edc8740ba96fc2ab86dc68a9a3b041bc67632172035a50bc3f9e64736f6c63430008140033","opcodes":"PUSH1 0x80 PUSH1 0x40 MSTORE CALLVALUE DUP1 ISZERO PUSH3 0x11 JUMPI PUSH1 0x0 DUP1 REVERT JUMPDEST POP CALLER PUSH1 0x40 MLOAD DUP1 PUSH1 0x20 ADD PUSH1 0x40 MSTORE DUP1 PUSH1 0x0 DUP2 MSTORE POP PUSH3 0x34 DUP2 PUSH3 0xC2 PUSH1 0x20 SHL PUSH1 0x20 SHR JUMP JUMPDEST POP PUSH1 0x0 PUSH20 0xFFFFFFFFFFFFFFFFFFFFFFFFFFFFFFFFFFFFFFFF AND DUP2 PUSH20 0xFFFFFFFFFFFFFFFFFFFFFFFFFFFFFFFFFFFFFFFF AND SUB PUSH3 0xAA JUMPI PUSH1 0x0 PUSH1 0x40 MLOAD PUSH32 0x1E4FBDF700000000000000000000000000000000000000000000000000000000 DUP2 MSTORE PUSH1 0x4 ADD PUSH3 0xA1 SWAP2 SWAP1 PUSH3 0x1E2 JUMP JUMPDEST PUSH1 0x40 MLOAD DUP1 SWAP2 SUB SWAP1 REVERT JUMPDEST PUSH3 0xBB DUP2 PUSH3 0xD7 PUSH1 0x20 SHL PUSH1 0x20 SHR JUMP JUMPDEST POP PUSH3 0x560 JUMP JUMPDEST DUP1 PUSH1 0x2 SWAP1 DUP2 PUSH3 0xD3 SWAP2 SWAP1 PUSH3 0x479 JUMP JUMPDEST POP POP JUMP JUMPDEST PUSH1 0x0 PUSH1 0x3 PUSH1 0x0 SWAP1 SLOAD SWAP1 PUSH2 0x100 EXP SWAP1 DIV PUSH20 0xFFFFFFFFFFFFFFFFFFFFFFFFFFFFFFFFFFFFFFFF AND SWAP1 POP DUP2 PUSH1 0x3 PUSH1 0x0 PUSH2 0x100 EXP DUP2 SLOAD DUP2 PUSH20 0xFFFFFFFFFFFFFFFFFFFFFFFFFFFFFFFFFFFFFFFF MUL NOT AND SWAP1 DUP4 PUSH20 0xFFFFFFFFFFFFFFFFFFFFFFFFFFFFFFFFFFFFFFFF AND MUL OR SWAP1 SSTORE POP DUP2 PUSH20 0xFFFFFFFFFFFFFFFFFFFFFFFFFFFFFFFFFFFFFFFF AND DUP2 PUSH20 0xFFFFFFFFFFFFFFFFFFFFFFFFFFFFFFFFFFFFFFFF AND PUSH32 0x8BE0079C531659141344CD1FD0A4F28419497F9722A3DAAFE3B4186F6B6457E0 PUSH1 0x40 MLOAD PUSH1 0x40 MLOAD DUP1 SWAP2 SUB SWAP1 LOG3 POP POP JUMP JUMPDEST PUSH1 0x0 PUSH20 0xFFFFFFFFFFFFFFFFFFFFFFFFFFFFFFFFFFFFFFFF DUP3 AND SWAP1 POP SWAP2 SWAP1 POP JUMP JUMPDEST PUSH1 0x0 PUSH3 0x1CA DUP3 PUSH3 0x19D JUMP JUMPDEST SWAP1 POP SWAP2 SWAP1 POP JUMP JUMPDEST PUSH3 0x1DC DUP2 PUSH3 0x1BD JUMP JUMPDEST DUP3 MSTORE POP POP JUMP JUMPDEST PUSH1 0x0 PUSH1 0x20 DUP3 ADD SWAP1 POP PUSH3 0x1F9 PUSH1 0x0 DUP4 ADD DUP5 PUSH3 0x1D1 JUMP JUMPDEST SWAP3 SWAP2 POP POP JUMP JUMPDEST PUSH1 0x0 DUP2 MLOAD SWAP1 POP SWAP2 SWAP1 POP JUMP JUMPDEST PUSH32 0x4E487B7100000000000000000000000000000000000000000000000000000000 PUSH1 0x0 MSTORE PUSH1 0x41 PUSH1 0x4 MSTORE PUSH1 0x24 PUSH1 0x0 REVERT JUMPDEST PUSH32 0x4E487B7100000000000000000000000000000000000000000000000000000000 PUSH1 0x0 MSTORE PUSH1 0x22 PUSH1 0x4 MSTORE PUSH1 0x24 PUSH1 0x0 REVERT JUMPDEST PUSH1 0x0 PUSH1 0x2 DUP3 DIV SWAP1 POP PUSH1 0x1 DUP3 AND DUP1 PUSH3 0x281 JUMPI PUSH1 0x7F DUP3 AND SWAP2 POP JUMPDEST PUSH1 0x20 DUP3 LT DUP2 SUB PUSH3 0x297 JUMPI PUSH3 0x296 PUSH3 0x239 JUMP JUMPDEST JUMPDEST POP SWAP2 SWAP1 POP JUMP JUMPDEST PUSH1 0x0 DUP2 SWAP1 POP DUP2 PUSH1 0x0 MSTORE PUSH1 0x20 PUSH1 0x0 KECCAK256 SWAP1 POP SWAP2 SWAP1 POP JUMP JUMPDEST PUSH1 0x0 PUSH1 0x20 PUSH1 0x1F DUP4 ADD DIV SWAP1 POP SWAP2 SWAP1 POP JUMP JUMPDEST PUSH1 0x0 DUP3 DUP3 SHL SWAP1 POP SWAP3 SWAP2 POP POP JUMP JUMPDEST PUSH1 0x0 PUSH1 0x8 DUP4 MUL PUSH3 0x301 PUSH32 0xFFFFFFFFFFFFFFFFFFFFFFFFFFFFFFFFFFFFFFFFFFFFFFFFFFFFFFFFFFFFFFFF DUP3 PUSH3 0x2C2 JUMP JUMPDEST PUSH3 0x30D DUP7 DUP4 PUSH3 0x2C2 JUMP JUMPDEST SWAP6 POP DUP1 NOT DUP5 AND SWAP4 POP DUP1 DUP7 AND DUP5 OR SWAP3 POP POP POP SWAP4 SWAP3 POP POP POP JUMP JUMPDEST PUSH1 0x0 DUP2 SWAP1 POP SWAP2 SWAP1 POP JUMP JUMPDEST PUSH1 0x0 DUP2 SWAP1 POP SWAP2 SWAP1 POP JUMP JUMPDEST PUSH1 0x0 PUSH3 0x35A PUSH3 0x354 PUSH3 0x34E DUP5 PUSH3 0x325 JUMP JUMPDEST PUSH3 0x32F JUMP JUMPDEST PUSH3 0x325 JUMP JUMPDEST SWAP1 POP SWAP2 SWAP1 POP JUMP JUMPDEST PUSH1 0x0 DUP2 SWAP1 POP SWAP2 SWAP1 POP JUMP JUMPDEST PUSH3 0x376 DUP4 PUSH3 0x339 JUMP JUMPDEST PUSH3 0x38E PUSH3 0x385 DUP3 PUSH3 0x361 JUMP JUMPDEST DUP5 DUP5 SLOAD PUSH3 0x2CF JUMP JUMPDEST DUP3 SSTORE POP POP POP POP JUMP JUMPDEST PUSH1 0x0 SWAP1 JUMP JUMPDEST PUSH3 0x3A5 PUSH3 0x396 JUMP JUMPDEST PUSH3 0x3B2 DUP2 DUP5 DUP5 PUSH3 0x36B JUMP JUMPDEST POP POP POP JUMP JUMPDEST JUMPDEST DUP2 DUP2 LT ISZERO PUSH3 0x3DA JUMPI PUSH3 0x3CE PUSH1 0x0 DUP3 PUSH3 0x39B JUMP JUMPDEST PUSH1 0x1 DUP2 ADD SWAP1 POP PUSH3 0x3B8 JUMP JUMPDEST POP POP JUMP JUMPDEST PUSH1 0x1F DUP3 GT ISZERO PUSH3 0x429 JUMPI PUSH3 0x3F3 DUP2 PUSH3 0x29D JUMP JUMPDEST PUSH3 0x3FE DUP5 PUSH3 0x2B2 JUMP JUMPDEST DUP2 ADD PUSH1 0x20 DUP6 LT ISZERO PUSH3 0x40E JUMPI DUP2 SWAP1 POP JUMPDEST PUSH3 0x426 PUSH3 0x41D DUP6 PUSH3 0x2B2 JUMP JUMPDEST DUP4 ADD DUP3 PUSH3 0x3B7 JUMP JUMPDEST POP POP JUMPDEST POP POP POP JUMP JUMPDEST PUSH1 0x0 DUP3 DUP3 SHR SWAP1 POP SWAP3 SWAP2 POP POP JUMP JUMPDEST PUSH1 0x0 PUSH3 0x44E PUSH1 0x0 NOT DUP5 PUSH1 0x8 MUL PUSH3 0x42E JUMP JUMPDEST NOT DUP1 DUP4 AND SWAP2 POP POP SWAP3 SWAP2 POP POP JUMP JUMPDEST PUSH1 0x0 PUSH3 0x469 DUP4 DUP4 PUSH3 0x43B JUMP JUMPDEST SWAP2 POP DUP3 PUSH1 0x2 MUL DUP3 OR SWAP1 POP SWAP3 SWAP2 POP POP JUMP JUMPDEST PUSH3 0x484 DUP3 PUSH3 0x1FF JUMP JUMPDEST PUSH8 0xFFFFFFFFFFFFFFFF DUP2 GT ISZERO PUSH3 0x4A0 JUMPI PUSH3 0x49F PUSH3 0x20A JUMP JUMPDEST JUMPDEST PUSH3 0x4AC DUP3 SLOAD PUSH3 0x268 JUMP JUMPDEST PUSH3 0x4B9 DUP3 DUP3 DUP6 PUSH3 0x3DE JUMP JUMPDEST PUSH1 0x0 PUSH1 0x20 SWAP1 POP PUSH1 0x1F DUP4 GT PUSH1 0x1 DUP2 EQ PUSH3 0x4F1 JUMPI PUSH1 0x0 DUP5 ISZERO PUSH3 0x4DC JUMPI DUP3 DUP8 ADD MLOAD SWAP1 POP JUMPDEST PUSH3 0x4E8 DUP6 DUP3 PUSH3 0x45B JUMP JUMPDEST DUP7 SSTORE POP PUSH3 0x558 JUMP JUMPDEST PUSH1 0x1F NOT DUP5 AND PUSH3 0x501 DUP7 PUSH3 0x29D JUMP JUMPDEST PUSH1 0x0 JUMPDEST DUP3 DUP2 LT ISZERO PUSH3 0x52B JUMPI DUP5 DUP10 ADD MLOAD DUP3 SSTORE PUSH1 0x1 DUP3 ADD SWAP2 POP PUSH1 0x20 DUP6 ADD SWAP5 POP PUSH1 0x20 DUP2 ADD SWAP1 POP PUSH3 0x504 JUMP JUMPDEST DUP7 DUP4 LT ISZERO PUSH3 0x54B JUMPI DUP5 DUP10 ADD MLOAD PUSH3 0x547 PUSH1 0x1F DUP10 AND DUP3 PUSH3 0x43B JUMP JUMPDEST DUP4 SSTORE POP JUMPDEST PUSH1 0x1 PUSH1 0x2 DUP9 MUL ADD DUP9 SSTORE POP POP POP JUMPDEST POP POP POP POP POP POP JUMP JUMPDEST PUSH2 0x2C5C DUP1 PUSH3 0x570 PUSH1 0x0 CODECOPY PUSH1 0x0 RETURN INVALID PUSH1 0x80 PUSH1 0x40 MSTORE CALLVALUE DUP1 ISZERO PUSH2 0x10 JUMPI PUSH1 0x0 DUP1 REVERT JUMPDEST POP PUSH1 0x4 CALLDATASIZE LT PUSH2 0xFF JUMPI PUSH1 0x0 CALLDATALOAD PUSH1 0xE0 SHR DUP1 PUSH4 0x715018A6 GT PUSH2 0x97 JUMPI DUP1 PUSH4 0xE985E9C5 GT PUSH2 0x66 JUMPI DUP1 PUSH4 0xE985E9C5 EQ PUSH2 0x294 JUMPI DUP1 PUSH4 0xF242432A EQ PUSH2 0x2C4 JUMPI DUP1 PUSH4 0xF2FDE38B EQ PUSH2 0x2E0 JUMPI DUP1 PUSH4 0xF5298ACA EQ PUSH2 0x2FC JUMPI PUSH2 0xFF JUMP JUMPDEST DUP1 PUSH4 0x715018A6 EQ PUSH2 0x234 JUMPI DUP1 PUSH4 0x731133E9 EQ PUSH2 0x23E JUMPI DUP1 PUSH4 0x8DA5CB5B EQ PUSH2 0x25A JUMPI DUP1 PUSH4 0xA22CB465 EQ PUSH2 0x278 JUMPI PUSH2 0xFF JUMP JUMPDEST DUP1 PUSH4 0x1F7FDFFA GT PUSH2 0xD3 JUMPI DUP1 PUSH4 0x1F7FDFFA EQ PUSH2 0x1B0 JUMPI DUP1 PUSH4 0x2EB2C2D6 EQ PUSH2 0x1CC JUMPI DUP1 PUSH4 0x4E1273F4 EQ PUSH2 0x1E8 JUMPI DUP1 PUSH4 0x6B20C454 EQ PUSH2 0x218 JUMPI PUSH2 0xFF JUMP JUMPDEST DUP1 PUSH3 0xFDD58E EQ PUSH2 0x104 JUMPI DUP1 PUSH4 0x1FFC9A7 EQ PUSH2 0x134 JUMPI DUP1 PUSH4 0x2FE5305 EQ PUSH2 0x164 JUMPI DUP1 PUSH4 0xE89341C EQ PUSH2 0x180 JUMPI JUMPDEST PUSH1 0x0 DUP1 REVERT JUMPDEST PUSH2 0x11E PUSH1 0x4 DUP1 CALLDATASIZE SUB DUP2 ADD SWAP1 PUSH2 0x119 SWAP2 SWAP1 PUSH2 0x1ABC JUMP JUMPDEST PUSH2 0x318 JUMP JUMPDEST PUSH1 0x40 MLOAD PUSH2 0x12B SWAP2 SWAP1 PUSH2 0x1B0B JUMP JUMPDEST PUSH1 0x40 MLOAD DUP1 SWAP2 SUB SWAP1 RETURN JUMPDEST PUSH2 0x14E PUSH1 0x4 DUP1 CALLDATASIZE SUB DUP2 ADD SWAP1 PUSH2 0x149 SWAP2 SWAP1 PUSH2 0x1B7E JUMP JUMPDEST PUSH2 0x372 JUMP JUMPDEST PUSH1 0x40 MLOAD PUSH2 0x15B SWAP2 SWAP1 PUSH2 0x1BC6 JUMP JUMPDEST PUSH1 0x40 MLOAD DUP1 SWAP2 SUB SWAP1 RETURN JUMPDEST PUSH2 0x17E PUSH1 0x4 DUP1 CALLDATASIZE SUB DUP2 ADD SWAP1 PUSH2 0x179 SWAP2 SWAP1 PUSH2 0x1D27 JUMP JUMPDEST PUSH2 0x454 JUMP JUMPDEST STOP JUMPDEST PUSH2 0x19A PUSH1 0x4 DUP1 CALLDATASIZE SUB DUP2 ADD SWAP1 PUSH2 0x195 SWAP2 SWAP1 PUSH2 0x1D70 JUMP JUMPDEST PUSH2 0x468 JUMP JUMPDEST PUSH1 0x40 MLOAD PUSH2 0x1A7 SWAP2 SWAP1 PUSH2 0x1E1C JUMP JUMPDEST PUSH1 0x40 MLOAD DUP1 SWAP2 SUB SWAP1 RETURN JUMPDEST PUSH2 0x1CA PUSH1 0x4 DUP1 CALLDATASIZE SUB DUP2 ADD SWAP1 PUSH2 0x1C5 SWAP2 SWAP1 PUSH2 0x1FA7 JUMP JUMPDEST PUSH2 0x4FC JUMP JUMPDEST STOP JUMPDEST PUSH2 0x1E6 PUSH1 0x4 DUP1 CALLDATASIZE SUB DUP2 ADD SWAP1 PUSH2 0x1E1 SWAP2 SWAP1 PUSH2 0x2062 JUMP JUMPDEST PUSH2 0x516 JUMP JUMPDEST STOP JUMPDEST PUSH2 0x202 PUSH1 0x4 DUP1 CALLDATASIZE SUB DUP2 ADD SWAP1 PUSH2 0x1FD SWAP2 SWAP1 PUSH2 0x21F4 JUMP JUMPDEST PUSH2 0x5BE JUMP JUMPDEST PUSH1 0x40 MLOAD PUSH2 0x20F SWAP2 SWAP1 PUSH2 0x232A JUMP JUMPDEST PUSH1 0x40 MLOAD DUP1 SWAP2 SUB SWAP1 RETURN JUMPDEST PUSH2 0x232 PUSH1 0x4 DUP1 CALLDATASIZE SUB DUP2 ADD SWAP1 PUSH2 0x22D SWAP2 SWAP1 PUSH2 0x234C JUMP JUMPDEST PUSH2 0x6CD JUMP JUMPDEST STOP JUMPDEST PUSH2 0x23C PUSH2 0x779 JUMP JUMPDEST STOP JUMPDEST PUSH2 0x258 PUSH1 0x4 DUP1 CALLDATASIZE SUB DUP2 ADD SWAP1 PUSH2 0x253 SWAP2 SWAP1 PUSH2 0x23D7 JUMP JUMPDEST PUSH2 0x78D JUMP JUMPDEST STOP JUMPDEST PUSH2 0x262 PUSH2 0x7A7 JUMP JUMPDEST PUSH1 0x40 MLOAD PUSH2 0x26F SWAP2 SWAP1 PUSH2 0x2469 JUMP JUMPDEST PUSH1 0x40 MLOAD DUP1 SWAP2 SUB SWAP1 RETURN JUMPDEST PUSH2 0x292 PUSH1 0x4 DUP1 CALLDATASIZE SUB DUP2 ADD SWAP1 PUSH2 0x28D SWAP2 SWAP1 PUSH2 0x24B0 JUMP JUMPDEST PUSH2 0x7D1 JUMP JUMPDEST STOP JUMPDEST PUSH2 0x2AE PUSH1 0x4 DUP1 CALLDATASIZE SUB DUP2 ADD SWAP1 PUSH2 0x2A9 SWAP2 SWAP1 PUSH2 0x24F0 JUMP JUMPDEST PUSH2 0x7E7 JUMP JUMPDEST PUSH1 0x40 MLOAD PUSH2 0x2BB SWAP2 SWAP1 PUSH2 0x1BC6 JUMP JUMPDEST PUSH1 0x40 MLOAD DUP1 SWAP2 SUB SWAP1 RETURN JUMPDEST PUSH2 0x2DE PUSH1 0x4 DUP1 CALLDATASIZE SUB DUP2 ADD SWAP1 PUSH2 0x2D9 SWAP2 SWAP1 PUSH2 0x2530 JUMP JUMPDEST PUSH2 0x87B JUMP JUMPDEST STOP JUMPDEST PUSH2 0x2FA PUSH1 0x4 DUP1 CALLDATASIZE SUB DUP2 ADD SWAP1 PUSH2 0x2F5 SWAP2 SWAP1 PUSH2 0x25C7 JUMP JUMPDEST PUSH2 0x923 JUMP JUMPDEST STOP JUMPDEST PUSH2 0x316 PUSH1 0x4 DUP1 CALLDATASIZE SUB DUP2 ADD SWAP1 PUSH2 0x311 SWAP2 SWAP1 PUSH2 0x25F4 JUMP JUMPDEST PUSH2 0x9A9 JUMP JUMPDEST STOP JUMPDEST PUSH1 0x0 DUP1 PUSH1 0x0 DUP4 DUP2 MSTORE PUSH1 0x20 ADD SWAP1 DUP2 MSTORE PUSH1 0x20 ADD PUSH1 0x0 KECCAK256 PUSH1 0x0 DUP5 PUSH20 0xFFFFFFFFFFFFFFFFFFFFFFFFFFFFFFFFFFFFFFFF AND PUSH20 0xFFFFFFFFFFFFFFFFFFFFFFFFFFFFFFFFFFFFFFFF AND DUP2 MSTORE PUSH1 0x20 ADD SWAP1 DUP2 MSTORE PUSH1 0x20 ADD PUSH1 0x0 KECCAK256 SLOAD SWAP1 POP SWAP3 SWAP2 POP POP JUMP JUMPDEST PUSH1 0x0 PUSH32 0xD9B67A2600000000000000000000000000000000000000000000000000000000 PUSH28 0xFFFFFFFFFFFFFFFFFFFFFFFFFFFFFFFFFFFFFFFFFFFFFFFFFFFFFFFF NOT AND DUP3 PUSH28 0xFFFFFFFFFFFFFFFFFFFFFFFFFFFFFFFFFFFFFFFFFFFFFFFFFFFFFFFF NOT AND EQ DUP1 PUSH2 0x43D JUMPI POP PUSH32 0xE89341C00000000000000000000000000000000000000000000000000000000 PUSH28 0xFFFFFFFFFFFFFFFFFFFFFFFFFFFFFFFFFFFFFFFFFFFFFFFFFFFFFFFF NOT AND DUP3 PUSH28 0xFFFFFFFFFFFFFFFFFFFFFFFFFFFFFFFFFFFFFFFFFFFFFFFFFFFFFFFF NOT AND EQ JUMPDEST DUP1 PUSH2 0x44D JUMPI POP PUSH2 0x44C DUP3 PUSH2 0xA55 JUMP JUMPDEST JUMPDEST SWAP1 POP SWAP2 SWAP1 POP JUMP JUMPDEST PUSH2 0x45C PUSH2 0xABF JUMP JUMPDEST PUSH2 0x465 DUP2 PUSH2 0xB46 JUMP JUMPDEST POP JUMP JUMPDEST PUSH1 0x60 PUSH1 0x2 DUP1 SLOAD PUSH2 0x477 SWAP1 PUSH2 0x2676 JUMP JUMPDEST DUP1 PUSH1 0x1F ADD PUSH1 0x20 DUP1 SWAP2 DIV MUL PUSH1 0x20 ADD PUSH1 0x40 MLOAD SWAP1 DUP2 ADD PUSH1 0x40 MSTORE DUP1 SWAP3 SWAP2 SWAP1 DUP2 DUP2 MSTORE PUSH1 0x20 ADD DUP3 DUP1 SLOAD PUSH2 0x4A3 SWAP1 PUSH2 0x2676 JUMP JUMPDEST DUP1 ISZERO PUSH2 0x4F0 JUMPI DUP1 PUSH1 0x1F LT PUSH2 0x4C5 JUMPI PUSH2 0x100 DUP1 DUP4 SLOAD DIV MUL DUP4 MSTORE SWAP2 PUSH1 0x20 ADD SWAP2 PUSH2 0x4F0 JUMP JUMPDEST DUP3 ADD SWAP2 SWAP1 PUSH1 0x0 MSTORE PUSH1 0x20 PUSH1 0x0 KECCAK256 SWAP1 JUMPDEST DUP2 SLOAD DUP2 MSTORE SWAP1 PUSH1 0x1 ADD SWAP1 PUSH1 0x20 ADD DUP1 DUP4 GT PUSH2 0x4D3 JUMPI DUP3 SWAP1 SUB PUSH1 0x1F AND DUP3 ADD SWAP2 JUMPDEST POP POP POP POP POP SWAP1 POP SWAP2 SWAP1 POP JUMP JUMPDEST PUSH2 0x504 PUSH2 0xABF JUMP JUMPDEST PUSH2 0x510 DUP5 DUP5 DUP5 DUP5 PUSH2 0xB59 JUMP JUMPDEST POP POP POP POP JUMP JUMPDEST PUSH1 0x0 PUSH2 0x520 PUSH2 0xBDF JUMP JUMPDEST SWAP1 POP DUP1 PUSH20 0xFFFFFFFFFFFFFFFFFFFFFFFFFFFFFFFFFFFFFFFF AND DUP7 PUSH20 0xFFFFFFFFFFFFFFFFFFFFFFFFFFFFFFFFFFFFFFFF AND EQ ISZERO DUP1 ISZERO PUSH2 0x565 JUMPI POP PUSH2 0x563 DUP7 DUP3 PUSH2 0x7E7 JUMP JUMPDEST ISZERO JUMPDEST ISZERO PUSH2 0x5A9 JUMPI DUP1 DUP7 PUSH1 0x40 MLOAD PUSH32 0xE237D92200000000000000000000000000000000000000000000000000000000 DUP2 MSTORE PUSH1 0x4 ADD PUSH2 0x5A0 SWAP3 SWAP2 SWAP1 PUSH2 0x26A7 JUMP JUMPDEST PUSH1 0x40 MLOAD DUP1 SWAP2 SUB SWAP1 REVERT JUMPDEST PUSH2 0x5B6 DUP7 DUP7 DUP7 DUP7 DUP7 PUSH2 0xBE7 JUMP JUMPDEST POP POP POP POP POP POP JUMP JUMPDEST PUSH1 0x60 DUP2 MLOAD DUP4 MLOAD EQ PUSH2 0x60A JUMPI DUP2 MLOAD DUP4 MLOAD PUSH1 0x40 MLOAD PUSH32 0x5B05999100000000000000000000000000000000000000000000000000000000 DUP2 MSTORE PUSH1 0x4 ADD PUSH2 0x601 SWAP3 SWAP2 SWAP1 PUSH2 0x26D0 JUMP JUMPDEST PUSH1 0x40 MLOAD DUP1 SWAP2 SUB SWAP1 REVERT JUMPDEST PUSH1 0x0 DUP4 MLOAD PUSH8 0xFFFFFFFFFFFFFFFF DUP2 GT ISZERO PUSH2 0x627 JUMPI PUSH2 0x626 PUSH2 0x1BFC JUMP JUMPDEST JUMPDEST PUSH1 0x40 MLOAD SWAP1 DUP1 DUP3 MSTORE DUP1 PUSH1 0x20 MUL PUSH1 0x20 ADD DUP3 ADD PUSH1 0x40 MSTORE DUP1 ISZERO PUSH2 0x655 JUMPI DUP2 PUSH1 0x20 ADD PUSH1 0x20 DUP3 MUL DUP1 CALLDATASIZE DUP4 CALLDATACOPY DUP1 DUP3 ADD SWAP2 POP POP SWAP1 POP JUMPDEST POP SWAP1 POP PUSH1 0x0 JUMPDEST DUP5 MLOAD DUP2 LT ISZERO PUSH2 0x6C2 JUMPI PUSH2 0x692 PUSH2 0x67A DUP3 DUP8 PUSH2 0xCDF SWAP1 SWAP2 SWAP1 PUSH4 0xFFFFFFFF AND JUMP JUMPDEST PUSH2 0x68D DUP4 DUP8 PUSH2 0xCF3 SWAP1 SWAP2 SWAP1 PUSH4 0xFFFFFFFF AND JUMP JUMPDEST PUSH2 0x318 JUMP JUMPDEST DUP3 DUP3 DUP2 MLOAD DUP2 LT PUSH2 0x6A5 JUMPI PUSH2 0x6A4 PUSH2 0x26F9 JUMP JUMPDEST JUMPDEST PUSH1 0x20 MUL PUSH1 0x20 ADD ADD DUP2 DUP2 MSTORE POP POP DUP1 PUSH2 0x6BB SWAP1 PUSH2 0x2757 JUMP JUMPDEST SWAP1 POP PUSH2 0x65B JUMP JUMPDEST POP DUP1 SWAP2 POP POP SWAP3 SWAP2 POP POP JUMP JUMPDEST PUSH2 0x6D5 PUSH2 0xBDF JUMP JUMPDEST PUSH20 0xFFFFFFFFFFFFFFFFFFFFFFFFFFFFFFFFFFFFFFFF AND DUP4 PUSH20 0xFFFFFFFFFFFFFFFFFFFFFFFFFFFFFFFFFFFFFFFF AND EQ ISZERO DUP1 ISZERO PUSH2 0x71E JUMPI POP PUSH2 0x71C DUP4 PUSH2 0x717 PUSH2 0xBDF JUMP JUMPDEST PUSH2 0x7E7 JUMP JUMPDEST ISZERO JUMPDEST ISZERO PUSH2 0x769 JUMPI PUSH2 0x72B PUSH2 0xBDF JUMP JUMPDEST DUP4 PUSH1 0x40 MLOAD PUSH32 0xE237D92200000000000000000000000000000000000000000000000000000000 DUP2 MSTORE PUSH1 0x4 ADD PUSH2 0x760 SWAP3 SWAP2 SWAP1 PUSH2 0x26A7 JUMP JUMPDEST PUSH1 0x40 MLOAD DUP1 SWAP2 SUB SWAP1 REVERT JUMPDEST PUSH2 0x774 DUP4 DUP4 DUP4 PUSH2 0xD07 JUMP JUMPDEST POP POP POP JUMP JUMPDEST PUSH2 0x781 PUSH2 0xABF JUMP JUMPDEST PUSH2 0x78B PUSH1 0x0 PUSH2 0xD9B JUMP JUMPDEST JUMP JUMPDEST PUSH2 0x795 PUSH2 0xABF JUMP JUMPDEST PUSH2 0x7A1 DUP5 DUP5 DUP5 DUP5 PUSH2 0xE61 JUMP JUMPDEST POP POP POP POP JUMP JUMPDEST PUSH1 0x0 PUSH1 0x3 PUSH1 0x0 SWAP1 SLOAD SWAP1 PUSH2 0x100 EXP SWAP1 DIV PUSH20 0xFFFFFFFFFFFFFFFFFFFFFFFFFFFFFFFFFFFFFFFF AND SWAP1 POP SWAP1 JUMP JUMPDEST PUSH2 0x7E3 PUSH2 0x7DC PUSH2 0xBDF JUMP JUMPDEST DUP4 DUP4 PUSH2 0xEFA JUMP JUMPDEST POP POP JUMP JUMPDEST PUSH1 0x0 PUSH1 0x1 PUSH1 0x0 DUP5 PUSH20 0xFFFFFFFFFFFFFFFFFFFFFFFFFFFFFFFFFFFFFFFF AND PUSH20 0xFFFFFFFFFFFFFFFFFFFFFFFFFFFFFFFFFFFFFFFF AND DUP2 MSTORE PUSH1 0x20 ADD SWAP1 DUP2 MSTORE PUSH1 0x20 ADD PUSH1 0x0 KECCAK256 PUSH1 0x0 DUP4 PUSH20 0xFFFFFFFFFFFFFFFFFFFFFFFFFFFFFFFFFFFFFFFF AND PUSH20 0xFFFFFFFFFFFFFFFFFFFFFFFFFFFFFFFFFFFFFFFF AND DUP2 MSTORE PUSH1 0x20 ADD SWAP1 DUP2 MSTORE PUSH1 0x20 ADD PUSH1 0x0 KECCAK256 PUSH1 0x0 SWAP1 SLOAD SWAP1 PUSH2 0x100 EXP SWAP1 DIV PUSH1 0xFF AND SWAP1 POP SWAP3 SWAP2 POP POP JUMP JUMPDEST PUSH1 0x0 PUSH2 0x885 PUSH2 0xBDF JUMP JUMPDEST SWAP1 POP DUP1 PUSH20 0xFFFFFFFFFFFFFFFFFFFFFFFFFFFFFFFFFFFFFFFF AND DUP7 PUSH20 0xFFFFFFFFFFFFFFFFFFFFFFFFFFFFFFFFFFFFFFFF AND EQ ISZERO DUP1 ISZERO PUSH2 0x8CA JUMPI POP PUSH2 0x8C8 DUP7 DUP3 PUSH2 0x7E7 JUMP JUMPDEST ISZERO JUMPDEST ISZERO PUSH2 0x90E JUMPI DUP1 DUP7 PUSH1 0x40 MLOAD PUSH32 0xE237D92200000000000000000000000000000000000000000000000000000000 DUP2 MSTORE PUSH1 0x4 ADD PUSH2 0x905 SWAP3 SWAP2 SWAP1 PUSH2 0x26A7 JUMP JUMPDEST PUSH1 0x40 MLOAD DUP1 SWAP2 SUB SWAP1 REVERT JUMPDEST PUSH2 0x91B DUP7 DUP7 DUP7 DUP7 DUP7 PUSH2 0x106A JUMP JUMPDEST POP POP POP POP POP POP JUMP JUMPDEST PUSH2 0x92B PUSH2 0xABF JUMP JUMPDEST PUSH1 0x0 PUSH20 0xFFFFFFFFFFFFFFFFFFFFFFFFFFFFFFFFFFFFFFFF AND DUP2 PUSH20 0xFFFFFFFFFFFFFFFFFFFFFFFFFFFFFFFFFFFFFFFF AND SUB PUSH2 0x99D JUMPI PUSH1 0x0 PUSH1 0x40 MLOAD PUSH32 0x1E4FBDF700000000000000000000000000000000000000000000000000000000 DUP2 MSTORE PUSH1 0x4 ADD PUSH2 0x994 SWAP2 SWAP1 PUSH2 0x2469 JUMP JUMPDEST PUSH1 0x40 MLOAD DUP1 SWAP2 SUB SWAP1 REVERT JUMPDEST PUSH2 0x9A6 DUP2 PUSH2 0xD9B JUMP JUMPDEST POP JUMP JUMPDEST PUSH2 0x9B1 PUSH2 0xBDF JUMP JUMPDEST PUSH20 0xFFFFFFFFFFFFFFFFFFFFFFFFFFFFFFFFFFFFFFFF AND DUP4 PUSH20 0xFFFFFFFFFFFFFFFFFFFFFFFFFFFFFFFFFFFFFFFF AND EQ ISZERO DUP1 ISZERO PUSH2 0x9FA JUMPI POP PUSH2 0x9F8 DUP4 PUSH2 0x9F3 PUSH2 0xBDF JUMP JUMPDEST PUSH2 0x7E7 JUMP JUMPDEST ISZERO JUMPDEST ISZERO PUSH2 0xA45 JUMPI PUSH2 0xA07 PUSH2 0xBDF JUMP JUMPDEST DUP4 PUSH1 0x40 MLOAD PUSH32 0xE237D92200000000000000000000000000000000000000000000000000000000 DUP2 MSTORE PUSH1 0x4 ADD PUSH2 0xA3C SWAP3 SWAP2 SWAP1 PUSH2 0x26A7 JUMP JUMPDEST PUSH1 0x40 MLOAD DUP1 SWAP2 SUB SWAP1 REVERT JUMPDEST PUSH2 0xA50 DUP4 DUP4 DUP4 PUSH2 0x1175 JUMP JUMPDEST POP POP POP JUMP JUMPDEST PUSH1 0x0 PUSH32 0x1FFC9A700000000000000000000000000000000000000000000000000000000 PUSH28 0xFFFFFFFFFFFFFFFFFFFFFFFFFFFFFFFFFFFFFFFFFFFFFFFFFFFFFFFF NOT AND DUP3 PUSH28 0xFFFFFFFFFFFFFFFFFFFFFFFFFFFFFFFFFFFFFFFFFFFFFFFFFFFFFFFF NOT AND EQ SWAP1 POP SWAP2 SWAP1 POP JUMP JUMPDEST PUSH2 0xAC7 PUSH2 0xBDF JUMP JUMPDEST PUSH20 0xFFFFFFFFFFFFFFFFFFFFFFFFFFFFFFFFFFFFFFFF AND PUSH2 0xAE5 PUSH2 0x7A7 JUMP JUMPDEST PUSH20 0xFFFFFFFFFFFFFFFFFFFFFFFFFFFFFFFFFFFFFFFF AND EQ PUSH2 0xB44 JUMPI PUSH2 0xB08 PUSH2 0xBDF JUMP JUMPDEST PUSH1 0x40 MLOAD PUSH32 0x118CDAA700000000000000000000000000000000000000000000000000000000 DUP2 MSTORE PUSH1 0x4 ADD PUSH2 0xB3B SWAP2 SWAP1 PUSH2 0x2469 JUMP JUMPDEST PUSH1 0x40 MLOAD DUP1 SWAP2 SUB SWAP1 REVERT JUMPDEST JUMP JUMPDEST DUP1 PUSH1 0x2 SWAP1 DUP2 PUSH2 0xB55 SWAP2 SWAP1 PUSH2 0x294B JUMP JUMPDEST POP POP JUMP JUMPDEST PUSH1 0x0 PUSH20 0xFFFFFFFFFFFFFFFFFFFFFFFFFFFFFFFFFFFFFFFF AND DUP5 PUSH20 0xFFFFFFFFFFFFFFFFFFFFFFFFFFFFFFFFFFFFFFFF AND SUB PUSH2 0xBCB JUMPI PUSH1 0x0 PUSH1 0x40 MLOAD PUSH32 0x57F447CE00000000000000000000000000000000000000000000000000000000 DUP2 MSTORE PUSH1 0x4 ADD PUSH2 0xBC2 SWAP2 SWAP1 PUSH2 0x2469 JUMP JUMPDEST PUSH1 0x40 MLOAD DUP1 SWAP2 SUB SWAP1 REVERT JUMPDEST PUSH2 0xBD9 PUSH1 0x0 DUP6 DUP6 DUP6 DUP6 PUSH2 0x121C JUMP JUMPDEST POP POP POP POP JUMP JUMPDEST PUSH1 0x0 CALLER SWAP1 POP SWAP1 JUMP JUMPDEST PUSH1 0x0 PUSH20 0xFFFFFFFFFFFFFFFFFFFFFFFFFFFFFFFFFFFFFFFF AND DUP5 PUSH20 0xFFFFFFFFFFFFFFFFFFFFFFFFFFFFFFFFFFFFFFFF AND SUB PUSH2 0xC59 JUMPI PUSH1 0x0 PUSH1 0x40 MLOAD PUSH32 0x57F447CE00000000000000000000000000000000000000000000000000000000 DUP2 MSTORE PUSH1 0x4 ADD PUSH2 0xC50 SWAP2 SWAP1 PUSH2 0x2469 JUMP JUMPDEST PUSH1 0x40 MLOAD DUP1 SWAP2 SUB SWAP1 REVERT JUMPDEST PUSH1 0x0 PUSH20 0xFFFFFFFFFFFFFFFFFFFFFFFFFFFFFFFFFFFFFFFF AND DUP6 PUSH20 0xFFFFFFFFFFFFFFFFFFFFFFFFFFFFFFFFFFFFFFFF AND SUB PUSH2 0xCCB JUMPI PUSH1 0x0 PUSH1 0x40 MLOAD PUSH32 0x1A8351400000000000000000000000000000000000000000000000000000000 DUP2 MSTORE PUSH1 0x4 ADD PUSH2 0xCC2 SWAP2 SWAP1 PUSH2 0x2469 JUMP JUMPDEST PUSH1 0x40 MLOAD DUP1 SWAP2 SUB SWAP1 REVERT JUMPDEST PUSH2 0xCD8 DUP6 DUP6 DUP6 DUP6 DUP6 PUSH2 0x121C JUMP JUMPDEST POP POP POP POP POP JUMP JUMPDEST PUSH1 0x0 PUSH1 0x20 DUP3 MUL PUSH1 0x20 DUP5 ADD ADD MLOAD SWAP1 POP SWAP3 SWAP2 POP POP JUMP JUMPDEST PUSH1 0x0 PUSH1 0x20 DUP3 MUL PUSH1 0x20 DUP5 ADD ADD MLOAD SWAP1 POP SWAP3 SWAP2 POP POP JUMP JUMPDEST PUSH1 0x0 PUSH20 0xFFFFFFFFFFFFFFFFFFFFFFFFFFFFFFFFFFFFFFFF AND DUP4 PUSH20 0xFFFFFFFFFFFFFFFFFFFFFFFFFFFFFFFFFFFFFFFF AND SUB PUSH2 0xD79 JUMPI PUSH1 0x0 PUSH1 0x40 MLOAD PUSH32 0x1A8351400000000000000000000000000000000000000000000000000000000 DUP2 MSTORE PUSH1 0x4 ADD PUSH2 0xD70 SWAP2 SWAP1 PUSH2 0x2469 JUMP JUMPDEST PUSH1 0x40 MLOAD DUP1 SWAP2 SUB SWAP1 REVERT JUMPDEST PUSH2 0xD96 DUP4 PUSH1 0x0 DUP5 DUP5 PUSH1 0x40 MLOAD DUP1 PUSH1 0x20 ADD PUSH1 0x40 MSTORE DUP1 PUSH1 0x0 DUP2 MSTORE POP PUSH2 0x121C JUMP JUMPDEST POP POP POP JUMP JUMPDEST PUSH1 0x0 PUSH1 0x3 PUSH1 0x0 SWAP1 SLOAD SWAP1 PUSH2 0x100 EXP SWAP1 DIV PUSH20 0xFFFFFFFFFFFFFFFFFFFFFFFFFFFFFFFFFFFFFFFF AND SWAP1 POP DUP2 PUSH1 0x3 PUSH1 0x0 PUSH2 0x100 EXP DUP2 SLOAD DUP2 PUSH20 0xFFFFFFFFFFFFFFFFFFFFFFFFFFFFFFFFFFFFFFFF MUL NOT AND SWAP1 DUP4 PUSH20 0xFFFFFFFFFFFFFFFFFFFFFFFFFFFFFFFFFFFFFFFF AND MUL OR SWAP1 SSTORE POP DUP2 PUSH20 0xFFFFFFFFFFFFFFFFFFFFFFFFFFFFFFFFFFFFFFFF AND DUP2 PUSH20 0xFFFFFFFFFFFFFFFFFFFFFFFFFFFFFFFFFFFFFFFF AND PUSH32 0x8BE0079C531659141344CD1FD0A4F28419497F9722A3DAAFE3B4186F6B6457E0 PUSH1 0x40 MLOAD PUSH1 0x40 MLOAD DUP1 SWAP2 SUB SWAP1 LOG3 POP POP JUMP JUMPDEST PUSH1 0x0 PUSH20 0xFFFFFFFFFFFFFFFFFFFFFFFFFFFFFFFFFFFFFFFF AND DUP5 PUSH20 0xFFFFFFFFFFFFFFFFFFFFFFFFFFFFFFFFFFFFFFFF AND SUB PUSH2 0xED3 JUMPI PUSH1 0x0 PUSH1 0x40 MLOAD PUSH32 0x57F447CE00000000000000000000000000000000000000000000000000000000 DUP2 MSTORE PUSH1 0x4 ADD PUSH2 0xECA SWAP2 SWAP1 PUSH2 0x2469 JUMP JUMPDEST PUSH1 0x40 MLOAD DUP1 SWAP2 SUB SWAP1 REVERT JUMPDEST PUSH1 0x0 DUP1 PUSH2 0xEE0 DUP6 DUP6 PUSH2 0x12CE JUMP JUMPDEST SWAP2 POP SWAP2 POP PUSH2 0xEF2 PUSH1 0x0 DUP8 DUP5 DUP5 DUP8 PUSH2 0x121C JUMP JUMPDEST POP POP POP POP POP POP JUMP JUMPDEST PUSH1 0x0 PUSH20 0xFFFFFFFFFFFFFFFFFFFFFFFFFFFFFFFFFFFFFFFF AND DUP3 PUSH20 0xFFFFFFFFFFFFFFFFFFFFFFFFFFFFFFFFFFFFFFFF AND SUB PUSH2 0xF6C JUMPI PUSH1 0x0 PUSH1 0x40 MLOAD PUSH32 0xCED3E10000000000000000000000000000000000000000000000000000000000 DUP2 MSTORE PUSH1 0x4 ADD PUSH2 0xF63 SWAP2 SWAP1 PUSH2 0x2469 JUMP JUMPDEST PUSH1 0x40 MLOAD DUP1 SWAP2 SUB SWAP1 REVERT JUMPDEST DUP1 PUSH1 0x1 PUSH1 0x0 DUP6 PUSH20 0xFFFFFFFFFFFFFFFFFFFFFFFFFFFFFFFFFFFFFFFF AND PUSH20 0xFFFFFFFFFFFFFFFFFFFFFFFFFFFFFFFFFFFFFFFF AND DUP2 MSTORE PUSH1 0x20 ADD SWAP1 DUP2 MSTORE PUSH1 0x20 ADD PUSH1 0x0 KECCAK256 PUSH1 0x0 DUP5 PUSH20 0xFFFFFFFFFFFFFFFFFFFFFFFFFFFFFFFFFFFFFFFF AND PUSH20 0xFFFFFFFFFFFFFFFFFFFFFFFFFFFFFFFFFFFFFFFF AND DUP2 MSTORE PUSH1 0x20 ADD SWAP1 DUP2 MSTORE PUSH1 0x20 ADD PUSH1 0x0 KECCAK256 PUSH1 0x0 PUSH2 0x100 EXP DUP2 SLOAD DUP2 PUSH1 0xFF MUL NOT AND SWAP1 DUP4 ISZERO ISZERO MUL OR SWAP1 SSTORE POP DUP2 PUSH20 0xFFFFFFFFFFFFFFFFFFFFFFFFFFFFFFFFFFFFFFFF AND DUP4 PUSH20 0xFFFFFFFFFFFFFFFFFFFFFFFFFFFFFFFFFFFFFFFF AND PUSH32 0x17307EAB39AB6107E8899845AD3D59BD9653F200F220920489CA2B5937696C31 DUP4 PUSH1 0x40 MLOAD PUSH2 0x105D SWAP2 SWAP1 PUSH2 0x1BC6 JUMP JUMPDEST PUSH1 0x40 MLOAD DUP1 SWAP2 SUB SWAP1 LOG3 POP POP POP JUMP JUMPDEST PUSH1 0x0 PUSH20 0xFFFFFFFFFFFFFFFFFFFFFFFFFFFFFFFFFFFFFFFF AND DUP5 PUSH20 0xFFFFFFFFFFFFFFFFFFFFFFFFFFFFFFFFFFFFFFFF AND SUB PUSH2 0x10DC JUMPI PUSH1 0x0 PUSH1 0x40 MLOAD PUSH32 0x57F447CE00000000000000000000000000000000000000000000000000000000 DUP2 MSTORE PUSH1 0x4 ADD PUSH2 0x10D3 SWAP2 SWAP1 PUSH2 0x2469 JUMP JUMPDEST PUSH1 0x40 MLOAD DUP1 SWAP2 SUB SWAP1 REVERT JUMPDEST PUSH1 0x0 PUSH20 0xFFFFFFFFFFFFFFFFFFFFFFFFFFFFFFFFFFFFFFFF AND DUP6 PUSH20 0xFFFFFFFFFFFFFFFFFFFFFFFFFFFFFFFFFFFFFFFF AND SUB PUSH2 0x114E JUMPI PUSH1 0x0 PUSH1 0x40 MLOAD PUSH32 0x1A8351400000000000000000000000000000000000000000000000000000000 DUP2 MSTORE PUSH1 0x4 ADD PUSH2 0x1145 SWAP2 SWAP1 PUSH2 0x2469 JUMP JUMPDEST PUSH1 0x40 MLOAD DUP1 SWAP2 SUB SWAP1 REVERT JUMPDEST PUSH1 0x0 DUP1 PUSH2 0x115B DUP6 DUP6 PUSH2 0x12CE JUMP JUMPDEST SWAP2 POP SWAP2 POP PUSH2 0x116C DUP8 DUP8 DUP5 DUP5 DUP8 PUSH2 0x121C JUMP JUMPDEST POP POP POP POP POP POP POP JUMP JUMPDEST PUSH1 0x0 PUSH20 0xFFFFFFFFFFFFFFFFFFFFFFFFFFFFFFFFFFFFFFFF AND DUP4 PUSH20 0xFFFFFFFFFFFFFFFFFFFFFFFFFFFFFFFFFFFFFFFF AND SUB PUSH2 0x11E7 JUMPI PUSH1 0x0 PUSH1 0x40 MLOAD PUSH32 0x1A8351400000000000000000000000000000000000000000000000000000000 DUP2 MSTORE PUSH1 0x4 ADD PUSH2 0x11DE SWAP2 SWAP1 PUSH2 0x2469 JUMP JUMPDEST PUSH1 0x40 MLOAD DUP1 SWAP2 SUB SWAP1 REVERT JUMPDEST PUSH1 0x0 DUP1 PUSH2 0x11F4 DUP5 DUP5 PUSH2 0x12CE JUMP JUMPDEST SWAP2 POP SWAP2 POP PUSH2 0x1215 DUP6 PUSH1 0x0 DUP5 DUP5 PUSH1 0x40 MLOAD DUP1 PUSH1 0x20 ADD PUSH1 0x40 MSTORE DUP1 PUSH1 0x0 DUP2 MSTORE POP PUSH2 0x121C JUMP JUMPDEST POP POP POP POP POP JUMP JUMPDEST PUSH2 0x1228 DUP6 DUP6 DUP6 DUP6 PUSH2 0x12FE JUMP JUMPDEST PUSH1 0x0 PUSH20 0xFFFFFFFFFFFFFFFFFFFFFFFFFFFFFFFFFFFFFFFF AND DUP5 PUSH20 0xFFFFFFFFFFFFFFFFFFFFFFFFFFFFFFFFFFFFFFFF AND EQ PUSH2 0x12C7 JUMPI PUSH1 0x0 PUSH2 0x1266 PUSH2 0xBDF JUMP JUMPDEST SWAP1 POP PUSH1 0x1 DUP5 MLOAD SUB PUSH2 0x12B6 JUMPI PUSH1 0x0 PUSH2 0x1287 PUSH1 0x0 DUP7 PUSH2 0xCF3 SWAP1 SWAP2 SWAP1 PUSH4 0xFFFFFFFF AND JUMP JUMPDEST SWAP1 POP PUSH1 0x0 PUSH2 0x129F PUSH1 0x0 DUP7 PUSH2 0xCF3 SWAP1 SWAP2 SWAP1 PUSH4 0xFFFFFFFF AND JUMP JUMPDEST SWAP1 POP PUSH2 0x12AF DUP4 DUP10 DUP10 DUP6 DUP6 DUP10 PUSH2 0x16AC JUMP JUMPDEST POP POP PUSH2 0x12C5 JUMP JUMPDEST PUSH2 0x12C4 DUP2 DUP8 DUP8 DUP8 DUP8 DUP8 PUSH2 0x1860 JUMP JUMPDEST JUMPDEST POP JUMPDEST POP POP POP POP POP JUMP JUMPDEST PUSH1 0x60 DUP1 PUSH1 0x40 MLOAD SWAP2 POP PUSH1 0x1 DUP3 MSTORE DUP4 PUSH1 0x20 DUP4 ADD MSTORE PUSH1 0x40 DUP3 ADD SWAP1 POP PUSH1 0x1 DUP2 MSTORE DUP3 PUSH1 0x20 DUP3 ADD MSTORE PUSH1 0x40 DUP2 ADD PUSH1 0x40 MSTORE SWAP3 POP SWAP3 SWAP1 POP JUMP JUMPDEST DUP1 MLOAD DUP3 MLOAD EQ PUSH2 0x1348 JUMPI DUP2 MLOAD DUP2 MLOAD PUSH1 0x40 MLOAD PUSH32 0x5B05999100000000000000000000000000000000000000000000000000000000 DUP2 MSTORE PUSH1 0x4 ADD PUSH2 0x133F SWAP3 SWAP2 SWAP1 PUSH2 0x26D0 JUMP JUMPDEST PUSH1 0x40 MLOAD DUP1 SWAP2 SUB SWAP1 REVERT JUMPDEST PUSH1 0x0 PUSH2 0x1352 PUSH2 0xBDF JUMP JUMPDEST SWAP1 POP PUSH1 0x0 JUMPDEST DUP4 MLOAD DUP2 LT ISZERO PUSH2 0x1567 JUMPI PUSH1 0x0 PUSH2 0x1375 DUP3 DUP7 PUSH2 0xCF3 SWAP1 SWAP2 SWAP1 PUSH4 0xFFFFFFFF AND JUMP JUMPDEST SWAP1 POP PUSH1 0x0 PUSH2 0x138C DUP4 DUP7 PUSH2 0xCF3 SWAP1 SWAP2 SWAP1 PUSH4 0xFFFFFFFF AND JUMP JUMPDEST SWAP1 POP PUSH1 0x0 PUSH20 0xFFFFFFFFFFFFFFFFFFFFFFFFFFFFFFFFFFFFFFFF AND DUP9 PUSH20 0xFFFFFFFFFFFFFFFFFFFFFFFFFFFFFFFFFFFFFFFF AND EQ PUSH2 0x14B9 JUMPI PUSH1 0x0 DUP1 PUSH1 0x0 DUP5 DUP2 MSTORE PUSH1 0x20 ADD SWAP1 DUP2 MSTORE PUSH1 0x20 ADD PUSH1 0x0 KECCAK256 PUSH1 0x0 DUP11 PUSH20 0xFFFFFFFFFFFFFFFFFFFFFFFFFFFFFFFFFFFFFFFF AND PUSH20 0xFFFFFFFFFFFFFFFFFFFFFFFFFFFFFFFFFFFFFFFF AND DUP2 MSTORE PUSH1 0x20 ADD SWAP1 DUP2 MSTORE PUSH1 0x20 ADD PUSH1 0x0 KECCAK256 SLOAD SWAP1 POP DUP2 DUP2 LT ISZERO PUSH2 0x1461 JUMPI DUP9 DUP2 DUP4 DUP6 PUSH1 0x40 MLOAD PUSH32 0x3DEE4C500000000000000000000000000000000000000000000000000000000 DUP2 MSTORE PUSH1 0x4 ADD PUSH2 0x1458 SWAP5 SWAP4 SWAP3 SWAP2 SWAP1 PUSH2 0x2A1D JUMP JUMPDEST PUSH1 0x40 MLOAD DUP1 SWAP2 SUB SWAP1 REVERT JUMPDEST DUP2 DUP2 SUB PUSH1 0x0 DUP1 DUP6 DUP2 MSTORE PUSH1 0x20 ADD SWAP1 DUP2 MSTORE PUSH1 0x20 ADD PUSH1 0x0 KECCAK256 PUSH1 0x0 DUP12 PUSH20 0xFFFFFFFFFFFFFFFFFFFFFFFFFFFFFFFFFFFFFFFF AND PUSH20 0xFFFFFFFFFFFFFFFFFFFFFFFFFFFFFFFFFFFFFFFF AND DUP2 MSTORE PUSH1 0x20 ADD SWAP1 DUP2 MSTORE PUSH1 0x20 ADD PUSH1 0x0 KECCAK256 DUP2 SWAP1 SSTORE POP POP JUMPDEST PUSH1 0x0 PUSH20 0xFFFFFFFFFFFFFFFFFFFFFFFFFFFFFFFFFFFFFFFF AND DUP8 PUSH20 0xFFFFFFFFFFFFFFFFFFFFFFFFFFFFFFFFFFFFFFFF AND EQ PUSH2 0x1554 JUMPI DUP1 PUSH1 0x0 DUP1 DUP5 DUP2 MSTORE PUSH1 0x20 ADD SWAP1 DUP2 MSTORE PUSH1 0x20 ADD PUSH1 0x0 KECCAK256 PUSH1 0x0 DUP10 PUSH20 0xFFFFFFFFFFFFFFFFFFFFFFFFFFFFFFFFFFFFFFFF AND PUSH20 0xFFFFFFFFFFFFFFFFFFFFFFFFFFFFFFFFFFFFFFFF AND DUP2 MSTORE PUSH1 0x20 ADD SWAP1 DUP2 MSTORE PUSH1 0x20 ADD PUSH1 0x0 KECCAK256 PUSH1 0x0 DUP3 DUP3 SLOAD PUSH2 0x154C SWAP2 SWAP1 PUSH2 0x2A62 JUMP JUMPDEST SWAP3 POP POP DUP2 SWAP1 SSTORE POP JUMPDEST POP POP DUP1 PUSH2 0x1560 SWAP1 PUSH2 0x2757 JUMP JUMPDEST SWAP1 POP PUSH2 0x1357 JUMP JUMPDEST POP PUSH1 0x1 DUP4 MLOAD SUB PUSH2 0x1626 JUMPI PUSH1 0x0 PUSH2 0x1587 PUSH1 0x0 DUP6 PUSH2 0xCF3 SWAP1 SWAP2 SWAP1 PUSH4 0xFFFFFFFF AND JUMP JUMPDEST SWAP1 POP PUSH1 0x0 PUSH2 0x159F PUSH1 0x0 DUP6 PUSH2 0xCF3 SWAP1 SWAP2 SWAP1 PUSH4 0xFFFFFFFF AND JUMP JUMPDEST SWAP1 POP DUP6 PUSH20 0xFFFFFFFFFFFFFFFFFFFFFFFFFFFFFFFFFFFFFFFF AND DUP8 PUSH20 0xFFFFFFFFFFFFFFFFFFFFFFFFFFFFFFFFFFFFFFFF AND DUP5 PUSH20 0xFFFFFFFFFFFFFFFFFFFFFFFFFFFFFFFFFFFFFFFF AND PUSH32 0xC3D58168C5AE7397731D063D5BBF3D657854427343F4C083240F7AACAA2D0F62 DUP6 DUP6 PUSH1 0x40 MLOAD PUSH2 0x1617 SWAP3 SWAP2 SWAP1 PUSH2 0x26D0 JUMP JUMPDEST PUSH1 0x40 MLOAD DUP1 SWAP2 SUB SWAP1 LOG4 POP POP PUSH2 0x16A5 JUMP JUMPDEST DUP4 PUSH20 0xFFFFFFFFFFFFFFFFFFFFFFFFFFFFFFFFFFFFFFFF AND DUP6 PUSH20 0xFFFFFFFFFFFFFFFFFFFFFFFFFFFFFFFFFFFFFFFF AND DUP3 PUSH20 0xFFFFFFFFFFFFFFFFFFFFFFFFFFFFFFFFFFFFFFFF AND PUSH32 0x4A39DC06D4C0DBC64B70AF90FD698A233A518AA5D07E595D983B8C0526C8F7FB DUP7 DUP7 PUSH1 0x40 MLOAD PUSH2 0x169C SWAP3 SWAP2 SWAP1 PUSH2 0x2A96 JUMP JUMPDEST PUSH1 0x40 MLOAD DUP1 SWAP2 SUB SWAP1 LOG4 JUMPDEST POP POP POP POP POP JUMP JUMPDEST PUSH1 0x0 DUP5 PUSH20 0xFFFFFFFFFFFFFFFFFFFFFFFFFFFFFFFFFFFFFFFF AND EXTCODESIZE GT ISZERO PUSH2 0x1858 JUMPI DUP4 PUSH20 0xFFFFFFFFFFFFFFFFFFFFFFFFFFFFFFFFFFFFFFFF AND PUSH4 0xF23A6E61 DUP8 DUP8 DUP7 DUP7 DUP7 PUSH1 0x40 MLOAD DUP7 PUSH4 0xFFFFFFFF AND PUSH1 0xE0 SHL DUP2 MSTORE PUSH1 0x4 ADD PUSH2 0x170D SWAP6 SWAP5 SWAP4 SWAP3 SWAP2 SWAP1 PUSH2 0x2B22 JUMP JUMPDEST PUSH1 0x20 PUSH1 0x40 MLOAD DUP1 DUP4 SUB DUP2 PUSH1 0x0 DUP8 GAS CALL SWAP3 POP POP POP DUP1 ISZERO PUSH2 0x1749 JUMPI POP PUSH1 0x40 MLOAD RETURNDATASIZE PUSH1 0x1F NOT PUSH1 0x1F DUP3 ADD AND DUP3 ADD DUP1 PUSH1 0x40 MSTORE POP DUP2 ADD SWAP1 PUSH2 0x1746 SWAP2 SWAP1 PUSH2 0x2B91 JUMP JUMPDEST PUSH1 0x1 JUMPDEST PUSH2 0x17CD JUMPI RETURNDATASIZE DUP1 PUSH1 0x0 DUP2 EQ PUSH2 0x1779 JUMPI PUSH1 0x40 MLOAD SWAP2 POP PUSH1 0x1F NOT PUSH1 0x3F RETURNDATASIZE ADD AND DUP3 ADD PUSH1 0x40 MSTORE RETURNDATASIZE DUP3 MSTORE RETURNDATASIZE PUSH1 0x0 PUSH1 0x20 DUP5 ADD RETURNDATACOPY PUSH2 0x177E JUMP JUMPDEST PUSH1 0x60 SWAP2 POP JUMPDEST POP PUSH1 0x0 DUP2 MLOAD SUB PUSH2 0x17C5 JUMPI DUP5 PUSH1 0x40 MLOAD PUSH32 0x57F447CE00000000000000000000000000000000000000000000000000000000 DUP2 MSTORE PUSH1 0x4 ADD PUSH2 0x17BC SWAP2 SWAP1 PUSH2 0x2469 JUMP JUMPDEST PUSH1 0x40 MLOAD DUP1 SWAP2 SUB SWAP1 REVERT JUMPDEST DUP1 MLOAD DUP2 PUSH1 0x20 ADD REVERT JUMPDEST PUSH4 0xF23A6E61 PUSH1 0xE0 SHL PUSH28 0xFFFFFFFFFFFFFFFFFFFFFFFFFFFFFFFFFFFFFFFFFFFFFFFFFFFFFFFF NOT AND DUP2 PUSH28 0xFFFFFFFFFFFFFFFFFFFFFFFFFFFFFFFFFFFFFFFFFFFFFFFFFFFFFFFF NOT AND EQ PUSH2 0x1856 JUMPI DUP5 PUSH1 0x40 MLOAD PUSH32 0x57F447CE00000000000000000000000000000000000000000000000000000000 DUP2 MSTORE PUSH1 0x4 ADD PUSH2 0x184D SWAP2 SWAP1 PUSH2 0x2469 JUMP JUMPDEST PUSH1 0x40 MLOAD DUP1 SWAP2 SUB SWAP1 REVERT JUMPDEST POP JUMPDEST POP POP POP POP POP POP JUMP JUMPDEST PUSH1 0x0 DUP5 PUSH20 0xFFFFFFFFFFFFFFFFFFFFFFFFFFFFFFFFFFFFFFFF AND EXTCODESIZE GT ISZERO PUSH2 0x1A0C JUMPI DUP4 PUSH20 0xFFFFFFFFFFFFFFFFFFFFFFFFFFFFFFFFFFFFFFFF AND PUSH4 0xBC197C81 DUP8 DUP8 DUP7 DUP7 DUP7 PUSH1 0x40 MLOAD DUP7 PUSH4 0xFFFFFFFF AND PUSH1 0xE0 SHL DUP2 MSTORE PUSH1 0x4 ADD PUSH2 0x18C1 SWAP6 SWAP5 SWAP4 SWAP3 SWAP2 SWAP1 PUSH2 0x2BBE JUMP JUMPDEST PUSH1 0x20 PUSH1 0x40 MLOAD DUP1 DUP4 SUB DUP2 PUSH1 0x0 DUP8 GAS CALL SWAP3 POP POP POP DUP1 ISZERO PUSH2 0x18FD JUMPI POP PUSH1 0x40 MLOAD RETURNDATASIZE PUSH1 0x1F NOT PUSH1 0x1F DUP3 ADD AND DUP3 ADD DUP1 PUSH1 0x40 MSTORE POP DUP2 ADD SWAP1 PUSH2 0x18FA SWAP2 SWAP1 PUSH2 0x2B91 JUMP JUMPDEST PUSH1 0x1 JUMPDEST PUSH2 0x1981 JUMPI RETURNDATASIZE DUP1 PUSH1 0x0 DUP2 EQ PUSH2 0x192D JUMPI PUSH1 0x40 MLOAD SWAP2 POP PUSH1 0x1F NOT PUSH1 0x3F RETURNDATASIZE ADD AND DUP3 ADD PUSH1 0x40 MSTORE RETURNDATASIZE DUP3 MSTORE RETURNDATASIZE PUSH1 0x0 PUSH1 0x20 DUP5 ADD RETURNDATACOPY PUSH2 0x1932 JUMP JUMPDEST PUSH1 0x60 SWAP2 POP JUMPDEST POP PUSH1 0x0 DUP2 MLOAD SUB PUSH2 0x1979 JUMPI DUP5 PUSH1 0x40 MLOAD PUSH32 0x57F447CE00000000000000000000000000000000000000000000000000000000 DUP2 MSTORE PUSH1 0x4 ADD PUSH2 0x1970 SWAP2 SWAP1 PUSH2 0x2469 JUMP JUMPDEST PUSH1 0x40 MLOAD DUP1 SWAP2 SUB SWAP1 REVERT JUMPDEST DUP1 MLOAD DUP2 PUSH1 0x20 ADD REVERT JUMPDEST PUSH4 0xBC197C81 PUSH1 0xE0 SHL PUSH28 0xFFFFFFFFFFFFFFFFFFFFFFFFFFFFFFFFFFFFFFFFFFFFFFFFFFFFFFFF NOT AND DUP2 PUSH28 0xFFFFFFFFFFFFFFFFFFFFFFFFFFFFFFFFFFFFFFFFFFFFFFFFFFFFFFFF NOT AND EQ PUSH2 0x1A0A JUMPI DUP5 PUSH1 0x40 MLOAD PUSH32 0x57F447CE00000000000000000000000000000000000000000000000000000000 DUP2 MSTORE PUSH1 0x4 ADD PUSH2 0x1A01 SWAP2 SWAP1 PUSH2 0x2469 JUMP JUMPDEST PUSH1 0x40 MLOAD DUP1 SWAP2 SUB SWAP1 REVERT JUMPDEST POP JUMPDEST POP POP POP POP POP POP JUMP JUMPDEST PUSH1 0x0 PUSH1 0x40 MLOAD SWAP1 POP SWAP1 JUMP JUMPDEST PUSH1 0x0 DUP1 REVERT JUMPDEST PUSH1 0x0 DUP1 REVERT JUMPDEST PUSH1 0x0 PUSH20 0xFFFFFFFFFFFFFFFFFFFFFFFFFFFFFFFFFFFFFFFF DUP3 AND SWAP1 POP SWAP2 SWAP1 POP JUMP JUMPDEST PUSH1 0x0 PUSH2 0x1A53 DUP3 PUSH2 0x1A28 JUMP JUMPDEST SWAP1 POP SWAP2 SWAP1 POP JUMP JUMPDEST PUSH2 0x1A63 DUP2 PUSH2 0x1A48 JUMP JUMPDEST DUP2 EQ PUSH2 0x1A6E JUMPI PUSH1 0x0 DUP1 REVERT JUMPDEST POP JUMP JUMPDEST PUSH1 0x0 DUP2 CALLDATALOAD SWAP1 POP PUSH2 0x1A80 DUP2 PUSH2 0x1A5A JUMP JUMPDEST SWAP3 SWAP2 POP POP JUMP JUMPDEST PUSH1 0x0 DUP2 SWAP1 POP SWAP2 SWAP1 POP JUMP JUMPDEST PUSH2 0x1A99 DUP2 PUSH2 0x1A86 JUMP JUMPDEST DUP2 EQ PUSH2 0x1AA4 JUMPI PUSH1 0x0 DUP1 REVERT JUMPDEST POP JUMP JUMPDEST PUSH1 0x0 DUP2 CALLDATALOAD SWAP1 POP PUSH2 0x1AB6 DUP2 PUSH2 0x1A90 JUMP JUMPDEST SWAP3 SWAP2 POP POP JUMP JUMPDEST PUSH1 0x0 DUP1 PUSH1 0x40 DUP4 DUP6 SUB SLT ISZERO PUSH2 0x1AD3 JUMPI PUSH2 0x1AD2 PUSH2 0x1A1E JUMP JUMPDEST JUMPDEST PUSH1 0x0 PUSH2 0x1AE1 DUP6 DUP3 DUP7 ADD PUSH2 0x1A71 JUMP JUMPDEST SWAP3 POP POP PUSH1 0x20 PUSH2 0x1AF2 DUP6 DUP3 DUP7 ADD PUSH2 0x1AA7 JUMP JUMPDEST SWAP2 POP POP SWAP3 POP SWAP3 SWAP1 POP JUMP JUMPDEST PUSH2 0x1B05 DUP2 PUSH2 0x1A86 JUMP JUMPDEST DUP3 MSTORE POP POP JUMP JUMPDEST PUSH1 0x0 PUSH1 0x20 DUP3 ADD SWAP1 POP PUSH2 0x1B20 PUSH1 0x0 DUP4 ADD DUP5 PUSH2 0x1AFC JUMP JUMPDEST SWAP3 SWAP2 POP POP JUMP JUMPDEST PUSH1 0x0 PUSH32 0xFFFFFFFF00000000000000000000000000000000000000000000000000000000 DUP3 AND SWAP1 POP SWAP2 SWAP1 POP JUMP JUMPDEST PUSH2 0x1B5B DUP2 PUSH2 0x1B26 JUMP JUMPDEST DUP2 EQ PUSH2 0x1B66 JUMPI PUSH1 0x0 DUP1 REVERT JUMPDEST POP JUMP JUMPDEST PUSH1 0x0 DUP2 CALLDATALOAD SWAP1 POP PUSH2 0x1B78 DUP2 PUSH2 0x1B52 JUMP JUMPDEST SWAP3 SWAP2 POP POP JUMP JUMPDEST PUSH1 0x0 PUSH1 0x20 DUP3 DUP5 SUB SLT ISZERO PUSH2 0x1B94 JUMPI PUSH2 0x1B93 PUSH2 0x1A1E JUMP JUMPDEST JUMPDEST PUSH1 0x0 PUSH2 0x1BA2 DUP5 DUP3 DUP6 ADD PUSH2 0x1B69 JUMP JUMPDEST SWAP2 POP POP SWAP3 SWAP2 POP POP JUMP JUMPDEST PUSH1 0x0 DUP2 ISZERO ISZERO SWAP1 POP SWAP2 SWAP1 POP JUMP JUMPDEST PUSH2 0x1BC0 DUP2 PUSH2 0x1BAB JUMP JUMPDEST DUP3 MSTORE POP POP JUMP JUMPDEST PUSH1 0x0 PUSH1 0x20 DUP3 ADD SWAP1 POP PUSH2 0x1BDB PUSH1 0x0 DUP4 ADD DUP5 PUSH2 0x1BB7 JUMP JUMPDEST SWAP3 SWAP2 POP POP JUMP JUMPDEST PUSH1 0x0 DUP1 REVERT JUMPDEST PUSH1 0x0 DUP1 REVERT JUMPDEST PUSH1 0x0 PUSH1 0x1F NOT PUSH1 0x1F DUP4 ADD AND SWAP1 POP SWAP2 SWAP1 POP JUMP JUMPDEST PUSH32 0x4E487B7100000000000000000000000000000000000000000000000000000000 PUSH1 0x0 MSTORE PUSH1 0x41 PUSH1 0x4 MSTORE PUSH1 0x24 PUSH1 0x0 REVERT JUMPDEST PUSH2 0x1C34 DUP3 PUSH2 0x1BEB JUMP JUMPDEST DUP2 ADD DUP2 DUP2 LT PUSH8 0xFFFFFFFFFFFFFFFF DUP3 GT OR ISZERO PUSH2 0x1C53 JUMPI PUSH2 0x1C52 PUSH2 0x1BFC JUMP JUMPDEST JUMPDEST DUP1 PUSH1 0x40 MSTORE POP POP POP JUMP JUMPDEST PUSH1 0x0 PUSH2 0x1C66 PUSH2 0x1A14 JUMP JUMPDEST SWAP1 POP PUSH2 0x1C72 DUP3 DUP3 PUSH2 0x1C2B JUMP JUMPDEST SWAP2 SWAP1 POP JUMP JUMPDEST PUSH1 0x0 PUSH8 0xFFFFFFFFFFFFFFFF DUP3 GT ISZERO PUSH2 0x1C92 JUMPI PUSH2 0x1C91 PUSH2 0x1BFC JUMP JUMPDEST JUMPDEST PUSH2 0x1C9B DUP3 PUSH2 0x1BEB JUMP JUMPDEST SWAP1 POP PUSH1 0x20 DUP2 ADD SWAP1 POP SWAP2 SWAP1 POP JUMP JUMPDEST DUP3 DUP2 DUP4 CALLDATACOPY PUSH1 0x0 DUP4 DUP4 ADD MSTORE POP POP POP JUMP JUMPDEST PUSH1 0x0 PUSH2 0x1CCA PUSH2 0x1CC5 DUP5 PUSH2 0x1C77 JUMP JUMPDEST PUSH2 0x1C5C JUMP JUMPDEST SWAP1 POP DUP3 DUP2 MSTORE PUSH1 0x20 DUP2 ADD DUP5 DUP5 DUP5 ADD GT ISZERO PUSH2 0x1CE6 JUMPI PUSH2 0x1CE5 PUSH2 0x1BE6 JUMP JUMPDEST JUMPDEST PUSH2 0x1CF1 DUP5 DUP3 DUP6 PUSH2 0x1CA8 JUMP JUMPDEST POP SWAP4 SWAP3 POP POP POP JUMP JUMPDEST PUSH1 0x0 DUP3 PUSH1 0x1F DUP4 ADD SLT PUSH2 0x1D0E JUMPI PUSH2 0x1D0D PUSH2 0x1BE1 JUMP JUMPDEST JUMPDEST DUP2 CALLDATALOAD PUSH2 0x1D1E DUP5 DUP3 PUSH1 0x20 DUP7 ADD PUSH2 0x1CB7 JUMP JUMPDEST SWAP2 POP POP SWAP3 SWAP2 POP POP JUMP JUMPDEST PUSH1 0x0 PUSH1 0x20 DUP3 DUP5 SUB SLT ISZERO PUSH2 0x1D3D JUMPI PUSH2 0x1D3C PUSH2 0x1A1E JUMP JUMPDEST JUMPDEST PUSH1 0x0 DUP3 ADD CALLDATALOAD PUSH8 0xFFFFFFFFFFFFFFFF DUP2 GT ISZERO PUSH2 0x1D5B JUMPI PUSH2 0x1D5A PUSH2 0x1A23 JUMP JUMPDEST JUMPDEST PUSH2 0x1D67 DUP5 DUP3 DUP6 ADD PUSH2 0x1CF9 JUMP JUMPDEST SWAP2 POP POP SWAP3 SWAP2 POP POP JUMP JUMPDEST PUSH1 0x0 PUSH1 0x20 DUP3 DUP5 SUB SLT ISZERO PUSH2 0x1D86 JUMPI PUSH2 0x1D85 PUSH2 0x1A1E JUMP JUMPDEST JUMPDEST PUSH1 0x0 PUSH2 0x1D94 DUP5 DUP3 DUP6 ADD PUSH2 0x1AA7 JUMP JUMPDEST SWAP2 POP POP SWAP3 SWAP2 POP POP JUMP JUMPDEST PUSH1 0x0 DUP2 MLOAD SWAP1 POP SWAP2 SWAP1 POP JUMP JUMPDEST PUSH1 0x0 DUP3 DUP3 MSTORE PUSH1 0x20 DUP3 ADD SWAP1 POP SWAP3 SWAP2 POP POP JUMP JUMPDEST PUSH1 0x0 JUMPDEST DUP4 DUP2 LT ISZERO PUSH2 0x1DD7 JUMPI DUP1 DUP3 ADD MLOAD DUP2 DUP5 ADD MSTORE PUSH1 0x20 DUP2 ADD SWAP1 POP PUSH2 0x1DBC JUMP JUMPDEST PUSH1 0x0 DUP5 DUP5 ADD MSTORE POP POP POP POP JUMP JUMPDEST PUSH1 0x0 PUSH2 0x1DEE DUP3 PUSH2 0x1D9D JUMP JUMPDEST PUSH2 0x1DF8 DUP2 DUP6 PUSH2 0x1DA8 JUMP JUMPDEST SWAP4 POP PUSH2 0x1E08 DUP2 DUP6 PUSH1 0x20 DUP7 ADD PUSH2 0x1DB9 JUMP JUMPDEST PUSH2 0x1E11 DUP2 PUSH2 0x1BEB JUMP JUMPDEST DUP5 ADD SWAP2 POP POP SWAP3 SWAP2 POP POP JUMP JUMPDEST PUSH1 0x0 PUSH1 0x20 DUP3 ADD SWAP1 POP DUP2 DUP2 SUB PUSH1 0x0 DUP4 ADD MSTORE PUSH2 0x1E36 DUP2 DUP5 PUSH2 0x1DE3 JUMP JUMPDEST SWAP1 POP SWAP3 SWAP2 POP POP JUMP JUMPDEST PUSH1 0x0 PUSH8 0xFFFFFFFFFFFFFFFF DUP3 GT ISZERO PUSH2 0x1E59 JUMPI PUSH2 0x1E58 PUSH2 0x1BFC JUMP JUMPDEST JUMPDEST PUSH1 0x20 DUP3 MUL SWAP1 POP PUSH1 0x20 DUP2 ADD SWAP1 POP SWAP2 SWAP1 POP JUMP JUMPDEST PUSH1 0x0 DUP1 REVERT JUMPDEST PUSH1 0x0 PUSH2 0x1E82 PUSH2 0x1E7D DUP5 PUSH2 0x1E3E JUMP JUMPDEST PUSH2 0x1C5C JUMP JUMPDEST SWAP1 POP DUP1 DUP4 DUP3 MSTORE PUSH1 0x20 DUP3 ADD SWAP1 POP PUSH1 0x20 DUP5 MUL DUP4 ADD DUP6 DUP2 GT ISZERO PUSH2 0x1EA5 JUMPI PUSH2 0x1EA4 PUSH2 0x1E6A JUMP JUMPDEST JUMPDEST DUP4 JUMPDEST DUP2 DUP2 LT ISZERO PUSH2 0x1ECE JUMPI DUP1 PUSH2 0x1EBA DUP9 DUP3 PUSH2 0x1AA7 JUMP JUMPDEST DUP5 MSTORE PUSH1 0x20 DUP5 ADD SWAP4 POP POP PUSH1 0x20 DUP2 ADD SWAP1 POP PUSH2 0x1EA7 JUMP JUMPDEST POP POP POP SWAP4 SWAP3 POP POP POP JUMP JUMPDEST PUSH1 0x0 DUP3 PUSH1 0x1F DUP4 ADD SLT PUSH2 0x1EED JUMPI PUSH2 0x1EEC PUSH2 0x1BE1 JUMP JUMPDEST JUMPDEST DUP2 CALLDATALOAD PUSH2 0x1EFD DUP5 DUP3 PUSH1 0x20 DUP7 ADD PUSH2 0x1E6F JUMP JUMPDEST SWAP2 POP POP SWAP3 SWAP2 POP POP JUMP JUMPDEST PUSH1 0x0 PUSH8 0xFFFFFFFFFFFFFFFF DUP3 GT ISZERO PUSH2 0x1F21 JUMPI PUSH2 0x1F20 PUSH2 0x1BFC JUMP JUMPDEST JUMPDEST PUSH2 0x1F2A DUP3 PUSH2 0x1BEB JUMP JUMPDEST SWAP1 POP PUSH1 0x20 DUP2 ADD SWAP1 POP SWAP2 SWAP1 POP JUMP JUMPDEST PUSH1 0x0 PUSH2 0x1F4A PUSH2 0x1F45 DUP5 PUSH2 0x1F06 JUMP JUMPDEST PUSH2 0x1C5C JUMP JUMPDEST SWAP1 POP DUP3 DUP2 MSTORE PUSH1 0x20 DUP2 ADD DUP5 DUP5 DUP5 ADD GT ISZERO PUSH2 0x1F66 JUMPI PUSH2 0x1F65 PUSH2 0x1BE6 JUMP JUMPDEST JUMPDEST PUSH2 0x1F71 DUP5 DUP3 DUP6 PUSH2 0x1CA8 JUMP JUMPDEST POP SWAP4 SWAP3 POP POP POP JUMP JUMPDEST PUSH1 0x0 DUP3 PUSH1 0x1F DUP4 ADD SLT PUSH2 0x1F8E JUMPI PUSH2 0x1F8D PUSH2 0x1BE1 JUMP JUMPDEST JUMPDEST DUP2 CALLDATALOAD PUSH2 0x1F9E DUP5 DUP3 PUSH1 0x20 DUP7 ADD PUSH2 0x1F37 JUMP JUMPDEST SWAP2 POP POP SWAP3 SWAP2 POP POP JUMP JUMPDEST PUSH1 0x0 DUP1 PUSH1 0x0 DUP1 PUSH1 0x80 DUP6 DUP8 SUB SLT ISZERO PUSH2 0x1FC1 JUMPI PUSH2 0x1FC0 PUSH2 0x1A1E JUMP JUMPDEST JUMPDEST PUSH1 0x0 PUSH2 0x1FCF DUP8 DUP3 DUP9 ADD PUSH2 0x1A71 JUMP JUMPDEST SWAP5 POP POP PUSH1 0x20 DUP6 ADD CALLDATALOAD PUSH8 0xFFFFFFFFFFFFFFFF DUP2 GT ISZERO PUSH2 0x1FF0 JUMPI PUSH2 0x1FEF PUSH2 0x1A23 JUMP JUMPDEST JUMPDEST PUSH2 0x1FFC DUP8 DUP3 DUP9 ADD PUSH2 0x1ED8 JUMP JUMPDEST SWAP4 POP POP PUSH1 0x40 DUP6 ADD CALLDATALOAD PUSH8 0xFFFFFFFFFFFFFFFF DUP2 GT ISZERO PUSH2 0x201D JUMPI PUSH2 0x201C PUSH2 0x1A23 JUMP JUMPDEST JUMPDEST PUSH2 0x2029 DUP8 DUP3 DUP9 ADD PUSH2 0x1ED8 JUMP JUMPDEST SWAP3 POP POP PUSH1 0x60 DUP6 ADD CALLDATALOAD PUSH8 0xFFFFFFFFFFFFFFFF DUP2 GT ISZERO PUSH2 0x204A JUMPI PUSH2 0x2049 PUSH2 0x1A23 JUMP JUMPDEST JUMPDEST PUSH2 0x2056 DUP8 DUP3 DUP9 ADD PUSH2 0x1F79 JUMP JUMPDEST SWAP2 POP POP SWAP3 SWAP6 SWAP2 SWAP5 POP SWAP3 POP JUMP JUMPDEST PUSH1 0x0 DUP1 PUSH1 0x0 DUP1 PUSH1 0x0 PUSH1 0xA0 DUP7 DUP9 SUB SLT ISZERO PUSH2 0x207E JUMPI PUSH2 0x207D PUSH2 0x1A1E JUMP JUMPDEST JUMPDEST PUSH1 0x0 PUSH2 0x208C DUP9 DUP3 DUP10 ADD PUSH2 0x1A71 JUMP JUMPDEST SWAP6 POP POP PUSH1 0x20 PUSH2 0x209D DUP9 DUP3 DUP10 ADD PUSH2 0x1A71 JUMP JUMPDEST SWAP5 POP POP PUSH1 0x40 DUP7 ADD CALLDATALOAD PUSH8 0xFFFFFFFFFFFFFFFF DUP2 GT ISZERO PUSH2 0x20BE JUMPI PUSH2 0x20BD PUSH2 0x1A23 JUMP JUMPDEST JUMPDEST PUSH2 0x20CA DUP9 DUP3 DUP10 ADD PUSH2 0x1ED8 JUMP JUMPDEST SWAP4 POP POP PUSH1 0x60 DUP7 ADD CALLDATALOAD PUSH8 0xFFFFFFFFFFFFFFFF DUP2 GT ISZERO PUSH2 0x20EB JUMPI PUSH2 0x20EA PUSH2 0x1A23 JUMP JUMPDEST JUMPDEST PUSH2 0x20F7 DUP9 DUP3 DUP10 ADD PUSH2 0x1ED8 JUMP JUMPDEST SWAP3 POP POP PUSH1 0x80 DUP7 ADD CALLDATALOAD PUSH8 0xFFFFFFFFFFFFFFFF DUP2 GT ISZERO PUSH2 0x2118 JUMPI PUSH2 0x2117 PUSH2 0x1A23 JUMP JUMPDEST JUMPDEST PUSH2 0x2124 DUP9 DUP3 DUP10 ADD PUSH2 0x1F79 JUMP JUMPDEST SWAP2 POP POP SWAP3 SWAP6 POP SWAP3 SWAP6 SWAP1 SWAP4 POP JUMP JUMPDEST PUSH1 0x0 PUSH8 0xFFFFFFFFFFFFFFFF DUP3 GT ISZERO PUSH2 0x214C JUMPI PUSH2 0x214B PUSH2 0x1BFC JUMP JUMPDEST JUMPDEST PUSH1 0x20 DUP3 MUL SWAP1 POP PUSH1 0x20 DUP2 ADD SWAP1 POP SWAP2 SWAP1 POP JUMP JUMPDEST PUSH1 0x0 PUSH2 0x2170 PUSH2 0x216B DUP5 PUSH2 0x2131 JUMP JUMPDEST PUSH2 0x1C5C JUMP JUMPDEST SWAP1 POP DUP1 DUP4 DUP3 MSTORE PUSH1 0x20 DUP3 ADD SWAP1 POP PUSH1 0x20 DUP5 MUL DUP4 ADD DUP6 DUP2 GT ISZERO PUSH2 0x2193 JUMPI PUSH2 0x2192 PUSH2 0x1E6A JUMP JUMPDEST JUMPDEST DUP4 JUMPDEST DUP2 DUP2 LT ISZERO PUSH2 0x21BC JUMPI DUP1 PUSH2 0x21A8 DUP9 DUP3 PUSH2 0x1A71 JUMP JUMPDEST DUP5 MSTORE PUSH1 0x20 DUP5 ADD SWAP4 POP POP PUSH1 0x20 DUP2 ADD SWAP1 POP PUSH2 0x2195 JUMP JUMPDEST POP POP POP SWAP4 SWAP3 POP POP POP JUMP JUMPDEST PUSH1 0x0 DUP3 PUSH1 0x1F DUP4 ADD SLT PUSH2 0x21DB JUMPI PUSH2 0x21DA PUSH2 0x1BE1 JUMP JUMPDEST JUMPDEST DUP2 CALLDATALOAD PUSH2 0x21EB DUP5 DUP3 PUSH1 0x20 DUP7 ADD PUSH2 0x215D JUMP JUMPDEST SWAP2 POP POP SWAP3 SWAP2 POP POP JUMP JUMPDEST PUSH1 0x0 DUP1 PUSH1 0x40 DUP4 DUP6 SUB SLT ISZERO PUSH2 0x220B JUMPI PUSH2 0x220A PUSH2 0x1A1E JUMP JUMPDEST JUMPDEST PUSH1 0x0 DUP4 ADD CALLDATALOAD PUSH8 0xFFFFFFFFFFFFFFFF DUP2 GT ISZERO PUSH2 0x2229 JUMPI PUSH2 0x2228 PUSH2 0x1A23 JUMP JUMPDEST JUMPDEST PUSH2 0x2235 DUP6 DUP3 DUP7 ADD PUSH2 0x21C6 JUMP JUMPDEST SWAP3 POP POP PUSH1 0x20 DUP4 ADD CALLDATALOAD PUSH8 0xFFFFFFFFFFFFFFFF DUP2 GT ISZERO PUSH2 0x2256 JUMPI PUSH2 0x2255 PUSH2 0x1A23 JUMP JUMPDEST JUMPDEST PUSH2 0x2262 DUP6 DUP3 DUP7 ADD PUSH2 0x1ED8 JUMP JUMPDEST SWAP2 POP POP SWAP3 POP SWAP3 SWAP1 POP JUMP JUMPDEST PUSH1 0x0 DUP2 MLOAD SWAP1 POP SWAP2 SWAP1 POP JUMP JUMPDEST PUSH1 0x0 DUP3 DUP3 MSTORE PUSH1 0x20 DUP3 ADD SWAP1 POP SWAP3 SWAP2 POP POP JUMP JUMPDEST PUSH1 0x0 DUP2 SWAP1 POP PUSH1 0x20 DUP3 ADD SWAP1 POP SWAP2 SWAP1 POP JUMP JUMPDEST PUSH2 0x22A1 DUP2 PUSH2 0x1A86 JUMP JUMPDEST DUP3 MSTORE POP POP JUMP JUMPDEST PUSH1 0x0 PUSH2 0x22B3 DUP4 DUP4 PUSH2 0x2298 JUMP JUMPDEST PUSH1 0x20 DUP4 ADD SWAP1 POP SWAP3 SWAP2 POP POP JUMP JUMPDEST PUSH1 0x0 PUSH1 0x20 DUP3 ADD SWAP1 POP SWAP2 SWAP1 POP JUMP JUMPDEST PUSH1 0x0 PUSH2 0x22D7 DUP3 PUSH2 0x226C JUMP JUMPDEST PUSH2 0x22E1 DUP2 DUP6 PUSH2 0x2277 JUMP JUMPDEST SWAP4 POP PUSH2 0x22EC DUP4 PUSH2 0x2288 JUMP JUMPDEST DUP1 PUSH1 0x0 JUMPDEST DUP4 DUP2 LT ISZERO PUSH2 0x231D JUMPI DUP2 MLOAD PUSH2 0x2304 DUP9 DUP3 PUSH2 0x22A7 JUMP JUMPDEST SWAP8 POP PUSH2 0x230F DUP4 PUSH2 0x22BF JUMP JUMPDEST SWAP3 POP POP PUSH1 0x1 DUP2 ADD SWAP1 POP PUSH2 0x22F0 JUMP JUMPDEST POP DUP6 SWAP4 POP POP POP POP SWAP3 SWAP2 POP POP JUMP JUMPDEST PUSH1 0x0 PUSH1 0x20 DUP3 ADD SWAP1 POP DUP2 DUP2 SUB PUSH1 0x0 DUP4 ADD MSTORE PUSH2 0x2344 DUP2 DUP5 PUSH2 0x22CC JUMP JUMPDEST SWAP1 POP SWAP3 SWAP2 POP POP JUMP JUMPDEST PUSH1 0x0 DUP1 PUSH1 0x0 PUSH1 0x60 DUP5 DUP7 SUB SLT ISZERO PUSH2 0x2365 JUMPI PUSH2 0x2364 PUSH2 0x1A1E JUMP JUMPDEST JUMPDEST PUSH1 0x0 PUSH2 0x2373 DUP7 DUP3 DUP8 ADD PUSH2 0x1A71 JUMP JUMPDEST SWAP4 POP POP PUSH1 0x20 DUP5 ADD CALLDATALOAD PUSH8 0xFFFFFFFFFFFFFFFF DUP2 GT ISZERO PUSH2 0x2394 JUMPI PUSH2 0x2393 PUSH2 0x1A23 JUMP JUMPDEST JUMPDEST PUSH2 0x23A0 DUP7 DUP3 DUP8 ADD PUSH2 0x1ED8 JUMP JUMPDEST SWAP3 POP POP PUSH1 0x40 DUP5 ADD CALLDATALOAD PUSH8 0xFFFFFFFFFFFFFFFF DUP2 GT ISZERO PUSH2 0x23C1 JUMPI PUSH2 0x23C0 PUSH2 0x1A23 JUMP JUMPDEST JUMPDEST PUSH2 0x23CD DUP7 DUP3 DUP8 ADD PUSH2 0x1ED8 JUMP JUMPDEST SWAP2 POP POP SWAP3 POP SWAP3 POP SWAP3 JUMP JUMPDEST PUSH1 0x0 DUP1 PUSH1 0x0 DUP1 PUSH1 0x80 DUP6 DUP8 SUB SLT ISZERO PUSH2 0x23F1 JUMPI PUSH2 0x23F0 PUSH2 0x1A1E JUMP JUMPDEST JUMPDEST PUSH1 0x0 PUSH2 0x23FF DUP8 DUP3 DUP9 ADD PUSH2 0x1A71 JUMP JUMPDEST SWAP5 POP POP PUSH1 0x20 PUSH2 0x2410 DUP8 DUP3 DUP9 ADD PUSH2 0x1AA7 JUMP JUMPDEST SWAP4 POP POP PUSH1 0x40 PUSH2 0x2421 DUP8 DUP3 DUP9 ADD PUSH2 0x1AA7 JUMP JUMPDEST SWAP3 POP POP PUSH1 0x60 DUP6 ADD CALLDATALOAD PUSH8 0xFFFFFFFFFFFFFFFF DUP2 GT ISZERO PUSH2 0x2442 JUMPI PUSH2 0x2441 PUSH2 0x1A23 JUMP JUMPDEST JUMPDEST PUSH2 0x244E DUP8 DUP3 DUP9 ADD PUSH2 0x1F79 JUMP JUMPDEST SWAP2 POP POP SWAP3 SWAP6 SWAP2 SWAP5 POP SWAP3 POP JUMP JUMPDEST PUSH2 0x2463 DUP2 PUSH2 0x1A48 JUMP JUMPDEST DUP3 MSTORE POP POP JUMP JUMPDEST PUSH1 0x0 PUSH1 0x20 DUP3 ADD SWAP1 POP PUSH2 0x247E PUSH1 0x0 DUP4 ADD DUP5 PUSH2 0x245A JUMP JUMPDEST SWAP3 SWAP2 POP POP JUMP JUMPDEST PUSH2 0x248D DUP2 PUSH2 0x1BAB JUMP JUMPDEST DUP2 EQ PUSH2 0x2498 JUMPI PUSH1 0x0 DUP1 REVERT JUMPDEST POP JUMP JUMPDEST PUSH1 0x0 DUP2 CALLDATALOAD SWAP1 POP PUSH2 0x24AA DUP2 PUSH2 0x2484 JUMP JUMPDEST SWAP3 SWAP2 POP POP JUMP JUMPDEST PUSH1 0x0 DUP1 PUSH1 0x40 DUP4 DUP6 SUB SLT ISZERO PUSH2 0x24C7 JUMPI PUSH2 0x24C6 PUSH2 0x1A1E JUMP JUMPDEST JUMPDEST PUSH1 0x0 PUSH2 0x24D5 DUP6 DUP3 DUP7 ADD PUSH2 0x1A71 JUMP JUMPDEST SWAP3 POP POP PUSH1 0x20 PUSH2 0x24E6 DUP6 DUP3 DUP7 ADD PUSH2 0x249B JUMP JUMPDEST SWAP2 POP POP SWAP3 POP SWAP3 SWAP1 POP JUMP JUMPDEST PUSH1 0x0 DUP1 PUSH1 0x40 DUP4 DUP6 SUB SLT ISZERO PUSH2 0x2507 JUMPI PUSH2 0x2506 PUSH2 0x1A1E JUMP JUMPDEST JUMPDEST PUSH1 0x0 PUSH2 0x2515 DUP6 DUP3 DUP7 ADD PUSH2 0x1A71 JUMP JUMPDEST SWAP3 POP POP PUSH1 0x20 PUSH2 0x2526 DUP6 DUP3 DUP7 ADD PUSH2 0x1A71 JUMP JUMPDEST SWAP2 POP POP SWAP3 POP SWAP3 SWAP1 POP JUMP JUMPDEST PUSH1 0x0 DUP1 PUSH1 0x0 DUP1 PUSH1 0x0 PUSH1 0xA0 DUP7 DUP9 SUB SLT ISZERO PUSH2 0x254C JUMPI PUSH2 0x254B PUSH2 0x1A1E JUMP JUMPDEST JUMPDEST PUSH1 0x0 PUSH2 0x255A DUP9 DUP3 DUP10 ADD PUSH2 0x1A71 JUMP JUMPDEST SWAP6 POP POP PUSH1 0x20 PUSH2 0x256B DUP9 DUP3 DUP10 ADD PUSH2 0x1A71 JUMP JUMPDEST SWAP5 POP POP PUSH1 0x40 PUSH2 0x257C DUP9 DUP3 DUP10 ADD PUSH2 0x1AA7 JUMP JUMPDEST SWAP4 POP POP PUSH1 0x60 PUSH2 0x258D DUP9 DUP3 DUP10 ADD PUSH2 0x1AA7 JUMP JUMPDEST SWAP3 POP POP PUSH1 0x80 DUP7 ADD CALLDATALOAD PUSH8 0xFFFFFFFFFFFFFFFF DUP2 GT ISZERO PUSH2 0x25AE JUMPI PUSH2 0x25AD PUSH2 0x1A23 JUMP JUMPDEST JUMPDEST PUSH2 0x25BA DUP9 DUP3 DUP10 ADD PUSH2 0x1F79 JUMP JUMPDEST SWAP2 POP POP SWAP3 SWAP6 POP SWAP3 SWAP6 SWAP1 SWAP4 POP JUMP JUMPDEST PUSH1 0x0 PUSH1 0x20 DUP3 DUP5 SUB SLT ISZERO PUSH2 0x25DD JUMPI PUSH2 0x25DC PUSH2 0x1A1E JUMP JUMPDEST JUMPDEST PUSH1 0x0 PUSH2 0x25EB DUP5 DUP3 DUP6 ADD PUSH2 0x1A71 JUMP JUMPDEST SWAP2 POP POP SWAP3 SWAP2 POP POP JUMP JUMPDEST PUSH1 0x0 DUP1 PUSH1 0x0 PUSH1 0x60 DUP5 DUP7 SUB SLT ISZERO PUSH2 0x260D JUMPI PUSH2 0x260C PUSH2 0x1A1E JUMP JUMPDEST JUMPDEST PUSH1 0x0 PUSH2 0x261B DUP7 DUP3 DUP8 ADD PUSH2 0x1A71 JUMP JUMPDEST SWAP4 POP POP PUSH1 0x20 PUSH2 0x262C DUP7 DUP3 DUP8 ADD PUSH2 0x1AA7 JUMP JUMPDEST SWAP3 POP POP PUSH1 0x40 PUSH2 0x263D DUP7 DUP3 DUP8 ADD PUSH2 0x1AA7 JUMP JUMPDEST SWAP2 POP POP SWAP3 POP SWAP3 POP SWAP3 JUMP JUMPDEST PUSH32 0x4E487B7100000000000000000000000000000000000000000000000000000000 PUSH1 0x0 MSTORE PUSH1 0x22 PUSH1 0x4 MSTORE PUSH1 0x24 PUSH1 0x0 REVERT JUMPDEST PUSH1 0x0 PUSH1 0x2 DUP3 DIV SWAP1 POP PUSH1 0x1 DUP3 AND DUP1 PUSH2 0x268E JUMPI PUSH1 0x7F DUP3 AND SWAP2 POP JUMPDEST PUSH1 0x20 DUP3 LT DUP2 SUB PUSH2 0x26A1 JUMPI PUSH2 0x26A0 PUSH2 0x2647 JUMP JUMPDEST JUMPDEST POP SWAP2 SWAP1 POP JUMP JUMPDEST PUSH1 0x0 PUSH1 0x40 DUP3 ADD SWAP1 POP PUSH2 0x26BC PUSH1 0x0 DUP4 ADD DUP6 PUSH2 0x245A JUMP JUMPDEST PUSH2 0x26C9 PUSH1 0x20 DUP4 ADD DUP5 PUSH2 0x245A JUMP JUMPDEST SWAP4 SWAP3 POP POP POP JUMP JUMPDEST PUSH1 0x0 PUSH1 0x40 DUP3 ADD SWAP1 POP PUSH2 0x26E5 PUSH1 0x0 DUP4 ADD DUP6 PUSH2 0x1AFC JUMP JUMPDEST PUSH2 0x26F2 PUSH1 0x20 DUP4 ADD DUP5 PUSH2 0x1AFC JUMP JUMPDEST SWAP4 SWAP3 POP POP POP JUMP JUMPDEST PUSH32 0x4E487B7100000000000000000000000000000000000000000000000000000000 PUSH1 0x0 MSTORE PUSH1 0x32 PUSH1 0x4 MSTORE PUSH1 0x24 PUSH1 0x0 REVERT JUMPDEST PUSH32 0x4E487B7100000000000000000000000000000000000000000000000000000000 PUSH1 0x0 MSTORE PUSH1 0x11 PUSH1 0x4 MSTORE PUSH1 0x24 PUSH1 0x0 REVERT JUMPDEST PUSH1 0x0 PUSH2 0x2762 DUP3 PUSH2 0x1A86 JUMP JUMPDEST SWAP2 POP PUSH32 0xFFFFFFFFFFFFFFFFFFFFFFFFFFFFFFFFFFFFFFFFFFFFFFFFFFFFFFFFFFFFFFFF DUP3 SUB PUSH2 0x2794 JUMPI PUSH2 0x2793 PUSH2 0x2728 JUMP JUMPDEST JUMPDEST PUSH1 0x1 DUP3 ADD SWAP1 POP SWAP2 SWAP1 POP JUMP JUMPDEST PUSH1 0x0 DUP2 SWAP1 POP DUP2 PUSH1 0x0 MSTORE PUSH1 0x20 PUSH1 0x0 KECCAK256 SWAP1 POP SWAP2 SWAP1 POP JUMP JUMPDEST PUSH1 0x0 PUSH1 0x20 PUSH1 0x1F DUP4 ADD DIV SWAP1 POP SWAP2 SWAP1 POP JUMP JUMPDEST PUSH1 0x0 DUP3 DUP3 SHL SWAP1 POP SWAP3 SWAP2 POP POP JUMP JUMPDEST PUSH1 0x0 PUSH1 0x8 DUP4 MUL PUSH2 0x2801 PUSH32 0xFFFFFFFFFFFFFFFFFFFFFFFFFFFFFFFFFFFFFFFFFFFFFFFFFFFFFFFFFFFFFFFF DUP3 PUSH2 0x27C4 JUMP JUMPDEST PUSH2 0x280B DUP7 DUP4 PUSH2 0x27C4 JUMP JUMPDEST SWAP6 POP DUP1 NOT DUP5 AND SWAP4 POP DUP1 DUP7 AND DUP5 OR SWAP3 POP POP POP SWAP4 SWAP3 POP POP POP JUMP JUMPDEST PUSH1 0x0 DUP2 SWAP1 POP SWAP2 SWAP1 POP JUMP JUMPDEST PUSH1 0x0 PUSH2 0x2848 PUSH2 0x2843 PUSH2 0x283E DUP5 PUSH2 0x1A86 JUMP JUMPDEST PUSH2 0x2823 JUMP JUMPDEST PUSH2 0x1A86 JUMP JUMPDEST SWAP1 POP SWAP2 SWAP1 POP JUMP JUMPDEST PUSH1 0x0 DUP2 SWAP1 POP SWAP2 SWAP1 POP JUMP JUMPDEST PUSH2 0x2862 DUP4 PUSH2 0x282D JUMP JUMPDEST PUSH2 0x2876 PUSH2 0x286E DUP3 PUSH2 0x284F JUMP JUMPDEST DUP5 DUP5 SLOAD PUSH2 0x27D1 JUMP JUMPDEST DUP3 SSTORE POP POP POP POP JUMP JUMPDEST PUSH1 0x0 SWAP1 JUMP JUMPDEST PUSH2 0x288B PUSH2 0x287E JUMP JUMPDEST PUSH2 0x2896 DUP2 DUP5 DUP5 PUSH2 0x2859 JUMP JUMPDEST POP POP POP JUMP JUMPDEST JUMPDEST DUP2 DUP2 LT ISZERO PUSH2 0x28BA JUMPI PUSH2 0x28AF PUSH1 0x0 DUP3 PUSH2 0x2883 JUMP JUMPDEST PUSH1 0x1 DUP2 ADD SWAP1 POP PUSH2 0x289C JUMP JUMPDEST POP POP JUMP JUMPDEST PUSH1 0x1F DUP3 GT ISZERO PUSH2 0x28FF JUMPI PUSH2 0x28D0 DUP2 PUSH2 0x279F JUMP JUMPDEST PUSH2 0x28D9 DUP5 PUSH2 0x27B4 JUMP JUMPDEST DUP2 ADD PUSH1 0x20 DUP6 LT ISZERO PUSH2 0x28E8 JUMPI DUP2 SWAP1 POP JUMPDEST PUSH2 0x28FC PUSH2 0x28F4 DUP6 PUSH2 0x27B4 JUMP JUMPDEST DUP4 ADD DUP3 PUSH2 0x289B JUMP JUMPDEST POP POP JUMPDEST POP POP POP JUMP JUMPDEST PUSH1 0x0 DUP3 DUP3 SHR SWAP1 POP SWAP3 SWAP2 POP POP JUMP JUMPDEST PUSH1 0x0 PUSH2 0x2922 PUSH1 0x0 NOT DUP5 PUSH1 0x8 MUL PUSH2 0x2904 JUMP JUMPDEST NOT DUP1 DUP4 AND SWAP2 POP POP SWAP3 SWAP2 POP POP JUMP JUMPDEST PUSH1 0x0 PUSH2 0x293B DUP4 DUP4 PUSH2 0x2911 JUMP JUMPDEST SWAP2 POP DUP3 PUSH1 0x2 MUL DUP3 OR SWAP1 POP SWAP3 SWAP2 POP POP JUMP JUMPDEST PUSH2 0x2954 DUP3 PUSH2 0x1D9D JUMP JUMPDEST PUSH8 0xFFFFFFFFFFFFFFFF DUP2 GT ISZERO PUSH2 0x296D JUMPI PUSH2 0x296C PUSH2 0x1BFC JUMP JUMPDEST JUMPDEST PUSH2 0x2977 DUP3 SLOAD PUSH2 0x2676 JUMP JUMPDEST PUSH2 0x2982 DUP3 DUP3 DUP6 PUSH2 0x28BE JUMP JUMPDEST PUSH1 0x0 PUSH1 0x20 SWAP1 POP PUSH1 0x1F DUP4 GT PUSH1 0x1 DUP2 EQ PUSH2 0x29B5 JUMPI PUSH1 0x0 DUP5 ISZERO PUSH2 0x29A3 JUMPI DUP3 DUP8 ADD MLOAD SWAP1 POP JUMPDEST PUSH2 0x29AD DUP6 DUP3 PUSH2 0x292F JUMP JUMPDEST DUP7 SSTORE POP PUSH2 0x2A15 JUMP JUMPDEST PUSH1 0x1F NOT DUP5 AND PUSH2 0x29C3 DUP7 PUSH2 0x279F JUMP JUMPDEST PUSH1 0x0 JUMPDEST DUP3 DUP2 LT ISZERO PUSH2 0x29EB JUMPI DUP5 DUP10 ADD MLOAD DUP3 SSTORE PUSH1 0x1 DUP3 ADD SWAP2 POP PUSH1 0x20 DUP6 ADD SWAP5 POP PUSH1 0x20 DUP2 ADD SWAP1 POP PUSH2 0x29C6 JUMP JUMPDEST DUP7 DUP4 LT ISZERO PUSH2 0x2A08 JUMPI DUP5 DUP10 ADD MLOAD PUSH2 0x2A04 PUSH1 0x1F DUP10 AND DUP3 PUSH2 0x2911 JUMP JUMPDEST DUP4 SSTORE POP JUMPDEST PUSH1 0x1 PUSH1 0x2 DUP9 MUL ADD DUP9 SSTORE POP POP POP JUMPDEST POP POP POP POP POP POP JUMP JUMPDEST PUSH1 0x0 PUSH1 0x80 DUP3 ADD SWAP1 POP PUSH2 0x2A32 PUSH1 0x0 DUP4 ADD DUP8 PUSH2 0x245A JUMP JUMPDEST PUSH2 0x2A3F PUSH1 0x20 DUP4 ADD DUP7 PUSH2 0x1AFC JUMP JUMPDEST PUSH2 0x2A4C PUSH1 0x40 DUP4 ADD DUP6 PUSH2 0x1AFC JUMP JUMPDEST PUSH2 0x2A59 PUSH1 0x60 DUP4 ADD DUP5 PUSH2 0x1AFC JUMP JUMPDEST SWAP6 SWAP5 POP POP POP POP POP JUMP JUMPDEST PUSH1 0x0 PUSH2 0x2A6D DUP3 PUSH2 0x1A86 JUMP JUMPDEST SWAP2 POP PUSH2 0x2A78 DUP4 PUSH2 0x1A86 JUMP JUMPDEST SWAP3 POP DUP3 DUP3 ADD SWAP1 POP DUP1 DUP3 GT ISZERO PUSH2 0x2A90 JUMPI PUSH2 0x2A8F PUSH2 0x2728 JUMP JUMPDEST JUMPDEST SWAP3 SWAP2 POP POP JUMP JUMPDEST PUSH1 0x0 PUSH1 0x40 DUP3 ADD SWAP1 POP DUP2 DUP2 SUB PUSH1 0x0 DUP4 ADD MSTORE PUSH2 0x2AB0 DUP2 DUP6 PUSH2 0x22CC JUMP JUMPDEST SWAP1 POP DUP2 DUP2 SUB PUSH1 0x20 DUP4 ADD MSTORE PUSH2 0x2AC4 DUP2 DUP5 PUSH2 0x22CC JUMP JUMPDEST SWAP1 POP SWAP4 SWAP3 POP POP POP JUMP JUMPDEST PUSH1 0x0 DUP2 MLOAD SWAP1 POP SWAP2 SWAP1 POP JUMP JUMPDEST PUSH1 0x0 DUP3 DUP3 MSTORE PUSH1 0x20 DUP3 ADD SWAP1 POP SWAP3 SWAP2 POP POP JUMP JUMPDEST PUSH1 0x0 PUSH2 0x2AF4 DUP3 PUSH2 0x2ACD JUMP JUMPDEST PUSH2 0x2AFE DUP2 DUP6 PUSH2 0x2AD8 JUMP JUMPDEST SWAP4 POP PUSH2 0x2B0E DUP2 DUP6 PUSH1 0x20 DUP7 ADD PUSH2 0x1DB9 JUMP JUMPDEST PUSH2 0x2B17 DUP2 PUSH2 0x1BEB JUMP JUMPDEST DUP5 ADD SWAP2 POP POP SWAP3 SWAP2 POP POP JUMP JUMPDEST PUSH1 0x0 PUSH1 0xA0 DUP3 ADD SWAP1 POP PUSH2 0x2B37 PUSH1 0x0 DUP4 ADD DUP9 PUSH2 0x245A JUMP JUMPDEST PUSH2 0x2B44 PUSH1 0x20 DUP4 ADD DUP8 PUSH2 0x245A JUMP JUMPDEST PUSH2 0x2B51 PUSH1 0x40 DUP4 ADD DUP7 PUSH2 0x1AFC JUMP JUMPDEST PUSH2 0x2B5E PUSH1 0x60 DUP4 ADD DUP6 PUSH2 0x1AFC JUMP JUMPDEST DUP2 DUP2 SUB PUSH1 0x80 DUP4 ADD MSTORE PUSH2 0x2B70 DUP2 DUP5 PUSH2 0x2AE9 JUMP JUMPDEST SWAP1 POP SWAP7 SWAP6 POP POP POP POP POP POP JUMP JUMPDEST PUSH1 0x0 DUP2 MLOAD SWAP1 POP PUSH2 0x2B8B DUP2 PUSH2 0x1B52 JUMP JUMPDEST SWAP3 SWAP2 POP POP JUMP JUMPDEST PUSH1 0x0 PUSH1 0x20 DUP3 DUP5 SUB SLT ISZERO PUSH2 0x2BA7 JUMPI PUSH2 0x2BA6 PUSH2 0x1A1E JUMP JUMPDEST JUMPDEST PUSH1 0x0 PUSH2 0x2BB5 DUP5 DUP3 DUP6 ADD PUSH2 0x2B7C JUMP JUMPDEST SWAP2 POP POP SWAP3 SWAP2 POP POP JUMP JUMPDEST PUSH1 0x0 PUSH1 0xA0 DUP3 ADD SWAP1 POP PUSH2 0x2BD3 PUSH1 0x0 DUP4 ADD DUP9 PUSH2 0x245A JUMP JUMPDEST PUSH2 0x2BE0 PUSH1 0x20 DUP4 ADD DUP8 PUSH2 0x245A JUMP JUMPDEST DUP2 DUP2 SUB PUSH1 0x40 DUP4 ADD MSTORE PUSH2 0x2BF2 DUP2 DUP7 PUSH2 0x22CC JUMP JUMPDEST SWAP1 POP DUP2 DUP2 SUB PUSH1 0x60 DUP4 ADD MSTORE PUSH2 0x2C06 DUP2 DUP6 PUSH2 0x22CC JUMP JUMPDEST SWAP1 POP DUP2 DUP2 SUB PUSH1 0x80 DUP4 ADD MSTORE PUSH2 0x2C1A DUP2 DUP5 PUSH2 0x2AE9 JUMP JUMPDEST SWAP1 POP SWAP7 SWAP6 POP POP POP POP POP POP JUMP INVALID LOG2 PUSH5 0x6970667358 0x22 SLT KECCAK256 PUSH26 0x24DE8E2ED3EDC8740BA96FC2AB86DC68A9A3B041BC6763217203 GAS POP 0xBC EXTCODEHASH SWAP15 PUSH5 0x736F6C6343 STOP ADDMOD EQ STOP CALLER "},"methodIdentifiers":{"balanceOf(address,uint256)":"00fdd58e","balanceOfBatch(address[],uint256[])":"4e1273f4","burn(address,uint256,uint256)":"f5298aca","burnBatch(address,uint256[],uint256[])":"6b20c454","isApprovedForAll(address,address)":"e985e9c5","mint(address,uint256,uint256,bytes)":"731133e9","mintBatch(address,uint256[],uint256[],bytes)":"1f7fdffa","owner()":"8da5cb5b","renounceOwnership()":"715018a6","safeBatchTransferFrom(address,address,uint256[],uint256[],bytes)":"2eb2c2d6","safeTransferFrom(address,address,uint256,uint256,bytes)":"f242432a","setApprovalForAll(address,bool)":"a22cb465","setURI(string)":"02fe5305","supportsInterface(bytes4)":"01ffc9a7","transferOwnership(address)":"f2fde38b","uri(uint256)":"0e89341c"}}}}}