{
  "_format": "hh-sol-artifact-1",
  "contractName": "ERC1155Token",
  "sourceName": "contracts/ERC1155Token.sol",
  "abi": [
    {
      "inputs": [],
      "stateMutability": "nonpayable",
      "type": "constructor"
    },
    {
      "inputs": [
        {
          "internalType": "address",
          "name": "sender",
          "type": "address"
        },
        {
          "internalType": "uint256",
          "name": "balance",
          "type": "uint256"
        },
        {
          "internalType": "uint256",
          "name": "needed",
          "type": "uint256"
        },
        {
          "internalType": "uint256",
          "name": "tokenId",
          "type": "uint256"
        }
      ],
      "name": "ERC1155InsufficientBalance",
      "type": "error"
    },
    {
      "inputs": [
        {
          "internalType": "address",
          "name": "approver",
          "type": "address"
        }
      ],
      "name": "ERC1155InvalidApprover",
      "type": "error"
    },
    {
      "inputs": [
        {
          "internalType": "uint256",
          "name": "idsLength",
          "type": "uint256"
        },
        {
          "internalType": "uint256",
          "name": "valuesLength",
          "type": "uint256"
        }
      ],
      "name": "ERC1155InvalidArrayLength",
      "type": "error"
    },
    {
      "inputs": [
        {
          "internalType": "address",
          "name": "operator",
          "type": "address"
        }
      ],
      "name": "ERC1155InvalidOperator",
      "type": "error"
    },
    {
      "inputs": [
        {
          "internalType": "address",
          "name": "receiver",
          "type": "address"
        }
      ],
      "name": "ERC1155InvalidReceiver",
      "type": "error"
    },
    {
      "inputs": [
        {
          "internalType": "address",
          "name": "sender",
          "type": "address"
        }
      ],
      "name": "ERC1155InvalidSender",
      "type": "error"
    },
    {
      "inputs": [
        {
          "internalType": "address",
          "name": "operator",
          "type": "address"
        },
        {
          "internalType": "address",
          "name": "owner",
          "type": "address"
        }
      ],
      "name": "ERC1155MissingApprovalForAll",
      "type": "error"
    },
    {
      "inputs": [
        {
          "internalType": "address",
          "name": "owner",
          "type": "address"
        }
      ],
      "name": "OwnableInvalidOwner",
      "type": "error"
    },
    {
      "inputs": [
        {
          "internalType": "address",
          "name": "account",
          "type": "address"
        }
      ],
      "name": "OwnableUnauthorizedAccount",
      "type": "error"
    },
    {
      "anonymous": false,
      "inputs": [
        {
          "indexed": true,
          "internalType": "address",
          "name": "account",
          "type": "address"
        },
        {
          "indexed": true,
          "internalType": "address",
          "name": "operator",
          "type": "address"
        },
        {
          "indexed": false,
          "internalType": "bool",
          "name": "approved",
          "type": "bool"
        }
      ],
      "name": "ApprovalForAll",
      "type": "event"
    },
    {
      "anonymous": false,
      "inputs": [
        {
          "indexed": true,
          "internalType": "address",
          "name": "previousOwner",
          "type": "address"
        },
        {
          "indexed": true,
          "internalType": "address",
          "name": "newOwner",
          "type": "address"
        }
      ],
      "name": "OwnershipTransferred",
      "type": "event"
    },
    {
      "anonymous": false,
      "inputs": [
        {
          "indexed": true,
          "internalType": "address",
          "name": "operator",
          "type": "address"
        },
        {
          "indexed": true,
          "internalType": "address",
          "name": "from",
          "type": "address"
        },
        {
          "indexed": true,
          "internalType": "address",
          "name": "to",
          "type": "address"
        },
        {
          "indexed": false,
          "internalType": "uint256[]",
          "name": "ids",
          "type": "uint256[]"
        },
        {
          "indexed": false,
          "internalType": "uint256[]",
          "name": "values",
          "type": "uint256[]"
        }
      ],
      "name": "TransferBatch",
      "type": "event"
    },
    {
      "anonymous": false,
      "inputs": [
        {
          "indexed": true,
          "internalType": "address",
          "name": "operator",
          "type": "address"
        },
        {
          "indexed": true,
          "internalType": "address",
          "name": "from",
          "type": "address"
        },
        {
          "indexed": true,
          "internalType": "address",
          "name": "to",
          "type": "address"
        },
        {
          "indexed": false,
          "internalType": "uint256",
          "name": "id",
          "type": "uint256"
        },
        {
          "indexed": false,
          "internalType": "uint256",
          "name": "value",
          "type": "uint256"
        }
      ],
      "name": "TransferSingle",
      "type": "event"
    },
    {
      "anonymous": false,
      "inputs": [
        {
          "indexed": false,
          "internalType": "string",
          "name": "value",
          "type": "string"
        },
        {
          "indexed": true,
          "internalType": "uint256",
          "name": "id",
          "type": "uint256"
        }
      ],
      "name": "URI",
      "type": "event"
    },
    {
      "inputs": [
        {
          "internalType": "address",
          "name": "account",
          "type": "address"
        },
        {
          "internalType": "uint256",
          "name": "id",
          "type": "uint256"
        }
      ],
      "name": "balanceOf",
      "outputs": [
        {
          "internalType": "uint256",
          "name": "",
          "type": "uint256"
        }
      ],
      "stateMutability": "view",
      "type": "function"
    },
    {
      "inputs": [
        {
          "internalType": "address[]",
          "name": "accounts",
          "type": "address[]"
        },
        {
          "internalType": "uint256[]",
          "name": "ids",
          "type": "uint256[]"
        }
      ],
      "name": "balanceOfBatch",
      "outputs": [
        {
          "internalType": "uint256[]",
          "name": "",
          "type": "uint256[]"
        }
      ],
      "stateMutability": "view",
      "type": "function"
    },
    {
      "inputs": [],
      "name": "baseTokenURI",
      "outputs": [
        {
          "internalType": "string",
          "name": "",
          "type": "string"
        }
      ],
      "stateMutability": "view",
      "type": "function"
    },
    {
      "inputs": [
        {
          "internalType": "address",
          "name": "account",
          "type": "address"
        },
        {
          "internalType": "uint256",
          "name": "id",
          "type": "uint256"
        },
        {
          "internalType": "uint256",
          "name": "value",
          "type": "uint256"
        }
      ],
      "name": "burn",
      "outputs": [],
      "stateMutability": "nonpayable",
      "type": "function"
    },
    {
      "inputs": [
        {
          "internalType": "address",
          "name": "account",
          "type": "address"
        },
        {
          "internalType": "uint256[]",
          "name": "ids",
          "type": "uint256[]"
        },
        {
          "internalType": "uint256[]",
          "name": "values",
          "type": "uint256[]"
        }
      ],
      "name": "burnBatch",
      "outputs": [],
      "stateMutability": "nonpayable",
      "type": "function"
    },
    {
      "inputs": [
        {
          "internalType": "address",
          "name": "account",
          "type": "address"
        },
        {
          "internalType": "address",
          "name": "operator",
          "type": "address"
        }
      ],
      "name": "isApprovedForAll",
      "outputs": [
        {
          "internalType": "bool",
          "name": "",
          "type": "bool"
        }
      ],
      "stateMutability": "view",
      "type": "function"
    },
    {
      "inputs": [
        {
          "internalType": "address",
          "name": "account",
          "type": "address"
        },
        {
          "internalType": "uint256",
          "name": "id",
          "type": "uint256"
        },
        {
          "internalType": "uint256",
          "name": "amount",
          "type": "uint256"
        },
        {
          "internalType": "bytes",
          "name": "data",
          "type": "bytes"
        }
      ],
      "name": "mint",
      "outputs": [],
      "stateMutability": "nonpayable",
      "type": "function"
    },
    {
      "inputs": [
        {
          "internalType": "address",
          "name": "to",
          "type": "address"
        },
        {
          "internalType": "uint256[]",
          "name": "ids",
          "type": "uint256[]"
        },
        {
          "internalType": "uint256[]",
          "name": "amounts",
          "type": "uint256[]"
        },
        {
          "internalType": "bytes",
          "name": "data",
          "type": "bytes"
        }
      ],
      "name": "mintBatch",
      "outputs": [],
      "stateMutability": "nonpayable",
      "type": "function"
    },
    {
      "inputs": [],
      "name": "owner",
      "outputs": [
        {
          "internalType": "address",
          "name": "",
          "type": "address"
        }
      ],
      "stateMutability": "view",
      "type": "function"
    },
    {
      "inputs": [],
      "name": "renounceOwnership",
      "outputs": [],
      "stateMutability": "nonpayable",
      "type": "function"
    },
    {
      "inputs": [
        {
          "internalType": "address",
          "name": "from",
          "type": "address"
        },
        {
          "internalType": "address",
          "name": "to",
          "type": "address"
        },
        {
          "internalType": "uint256[]",
          "name": "ids",
          "type": "uint256[]"
        },
        {
          "internalType": "uint256[]",
          "name": "values",
          "type": "uint256[]"
        },
        {
          "internalType": "bytes",
          "name": "data",
          "type": "bytes"
        }
      ],
      "name": "safeBatchTransferFrom",
      "outputs": [],
      "stateMutability": "nonpayable",
      "type": "function"
    },
    {
      "inputs": [
        {
          "internalType": "address",
          "name": "from",
          "type": "address"
        },
        {
          "internalType": "address",
          "name": "to",
          "type": "address"
        },
        {
          "internalType": "uint256",
          "name": "id",
          "type": "uint256"
        },
        {
          "internalType": "uint256",
          "name": "value",
          "type": "uint256"
        },
        {
          "internalType": "bytes",
          "name": "data",
          "type": "bytes"
        }
      ],
      "name": "safeTransferFrom",
      "outputs": [],
      "stateMutability": "nonpayable",
      "type": "function"
    },
    {
      "inputs": [
        {
          "internalType": "address",
          "name": "operator",
          "type": "address"
        },
        {
          "internalType": "bool",
          "name": "approved",
          "type": "bool"
        }
      ],
      "name": "setApprovalForAll",
      "outputs": [],
      "stateMutability": "nonpayable",
      "type": "function"
    },
    {
      "inputs": [
        {
          "internalType": "string",
          "name": "newuri",
          "type": "string"
        }
      ],
      "name": "setURI",
      "outputs": [],
      "stateMutability": "nonpayable",
      "type": "function"
    },
    {
      "inputs": [
        {
          "internalType": "bytes4",
          "name": "interfaceId",
          "type": "bytes4"
        }
      ],
      "name": "supportsInterface",
      "outputs": [
        {
          "internalType": "bool",
          "name": "",
          "type": "bool"
        }
      ],
      "stateMutability": "view",
      "type": "function"
    },
    {
      "inputs": [
        {
          "internalType": "address",
          "name": "newOwner",
          "type": "address"
        }
      ],
      "name": "transferOwnership",
      "outputs": [],
      "stateMutability": "nonpayable",
      "type": "function"
    },
    {
      "inputs": [
        {
          "internalType": "uint256",
          "name": "_id",
          "type": "uint256"
        }
      ],
      "name": "uri",
      "outputs": [
        {
          "internalType": "string",
          "name": "",
          "type": "string"
        }
      ],
      "stateMutability": "view",
      "type": "function"
    }
  ],
  "bytecode": "0x60806040523480156200001157600080fd5b5033604051806020016040528060008152506200003481620000c260201b60201c565b50600073ffffffffffffffffffffffffffffffffffffffff168173ffffffffffffffffffffffffffffffffffffffff1603620000aa5760006040517f1e4fbdf7000000000000000000000000000000000000000000000000000000008152600401620000a19190620001e2565b60405180910390fd5b620000bb81620000d760201b60201c565b5062000560565b8060029081620000d3919062000479565b5050565b6000600360009054906101000a900473ffffffffffffffffffffffffffffffffffffffff16905081600360006101000a81548173ffffffffffffffffffffffffffffffffffffffff021916908373ffffffffffffffffffffffffffffffffffffffff1602179055508173ffffffffffffffffffffffffffffffffffffffff168173ffffffffffffffffffffffffffffffffffffffff167f8be0079c531659141344cd1fd0a4f28419497f9722a3daafe3b4186f6b6457e060405160405180910390a35050565b600073ffffffffffffffffffffffffffffffffffffffff82169050919050565b6000620001ca826200019d565b9050919050565b620001dc81620001bd565b82525050565b6000602082019050620001f96000830184620001d1565b92915050565b600081519050919050565b7f4e487b7100000000000000000000000000000000000000000000000000000000600052604160045260246000fd5b7f4e487b7100000000000000000000000000000000000000000000000000000000600052602260045260246000fd5b600060028204905060018216806200028157607f821691505b60208210810362000297576200029662000239565b5b50919050565b60008190508160005260206000209050919050565b60006020601f8301049050919050565b600082821b905092915050565b600060088302620003017fffffffffffffffffffffffffffffffffffffffffffffffffffffffffffffffff82620002c2565b6200030d8683620002c2565b95508019841693508086168417925050509392505050565b6000819050919050565b6000819050919050565b60006200035a620003546200034e8462000325565b6200032f565b62000325565b9050919050565b6000819050919050565b620003768362000339565b6200038e620003858262000361565b848454620002cf565b825550505050565b600090565b620003a562000396565b620003b28184846200036b565b505050565b5b81811015620003da57620003ce6000826200039b565b600181019050620003b8565b5050565b601f8211156200042957620003f3816200029d565b620003fe84620002b2565b810160208510156200040e578190505b620004266200041d85620002b2565b830182620003b7565b50505b505050565b600082821c905092915050565b60006200044e600019846008026200042e565b1980831691505092915050565b60006200046983836200043b565b9150826002028217905092915050565b6200048482620001ff565b67ffffffffffffffff811115620004a0576200049f6200020a565b5b620004ac825462000268565b620004b9828285620003de565b600060209050601f831160018114620004f15760008415620004dc578287015190505b620004e885826200045b565b86555062000558565b601f19841662000501866200029d565b60005b828110156200052b5784890151825560018201915060208501945060208101905062000504565b868310156200054b578489015162000547601f8916826200043b565b8355505b6001600288020188555050505b505050505050565b6130bf80620005706000396000f3fe608060405234801561001057600080fd5b506004361061010a5760003560e01c8063715018a6116100a2578063d547cfb711610071578063d547cfb71461029f578063e985e9c5146102bd578063f242432a146102ed578063f2fde38b14610309578063f5298aca146103255761010a565b8063715018a61461023f578063731133e9146102495780638da5cb5b14610265578063a22cb465146102835761010a565b80631f7fdffa116100de5780631f7fdffa146101bb5780632eb2c2d6146101d75780634e1273f4146101f35780636b20c454146102235761010a565b8062fdd58e1461010f57806301ffc9a71461013f57806302fe53051461016f5780630e89341c1461018b575b600080fd5b61012960048036038101906101249190611dd8565b610341565b6040516101369190611e27565b60405180910390f35b61015960048036038101906101549190611e9a565b61039b565b6040516101669190611ee2565b60405180910390f35b61018960048036038101906101849190612043565b61047d565b005b6101a560048036038101906101a0919061208c565b61052b565b6040516101b29190612138565b60405180910390f35b6101d560048036038101906101d091906122c3565b61055f565b005b6101f160048036038101906101ec919061237e565b610579565b005b61020d60048036038101906102089190612510565b610621565b60405161021a9190612646565b60405180910390f35b61023d60048036038101906102389190612668565b610730565b005b6102476107dc565b005b610263600480360381019061025e91906126f3565b6107f0565b005b61026d610814565b60405161027a9190612785565b60405180910390f35b61029d600480360381019061029891906127cc565b61083e565b005b6102a7610854565b6040516102b49190612138565b60405180910390f35b6102d760048036038101906102d2919061280c565b6108e2565b6040516102e49190611ee2565b60405180910390f35b6103076004803603810190610302919061284c565b610976565b005b610323600480360381019061031e91906128e3565b610a1e565b005b61033f600480360381019061033a9190612910565b610aa4565b005b600080600083815260200190815260200160002060008473ffffffffffffffffffffffffffffffffffffffff1673ffffffffffffffffffffffffffffffffffffffff16815260200190815260200160002054905092915050565b60007fd9b67a26000000000000000000000000000000000000000000000000000000007bffffffffffffffffffffffffffffffffffffffffffffffffffffffff1916827bffffffffffffffffffffffffffffffffffffffffffffffffffffffff1916148061046657507f0e89341c000000000000000000000000000000000000000000000000000000007bffffffffffffffffffffffffffffffffffffffffffffffffffffffff1916827bffffffffffffffffffffffffffffffffffffffffffffffffffffffff1916145b80610476575061047582610b50565b5b9050919050565b610485610bba565b80600490816104949190612b6f565b50610528600480546104a590612992565b80601f01602080910402602001604051908101604052809291908181526020018280546104d190612992565b801561051e5780601f106104f35761010080835404028352916020019161051e565b820191906000526020600020905b81548152906001019060200180831161050157829003601f168201915b5050505050610c41565b50565b6060600461053883610c54565b604051602001610549929190612d26565b6040516020818303038152906040529050919050565b610567610bba565b61057384848484610d22565b50505050565b6000610583610da8565b90508073ffffffffffffffffffffffffffffffffffffffff168673ffffffffffffffffffffffffffffffffffffffff16141580156105c857506105c686826108e2565b155b1561060c5780866040517fe237d922000000000000000000000000000000000000000000000000000000008152600401610603929190612d59565b60405180910390fd5b6106198686868686610db0565b505050505050565b6060815183511461066d57815183516040517f5b059991000000000000000000000000000000000000000000000000000000008152600401610664929190612d82565b60405180910390fd5b6000835167ffffffffffffffff81111561068a57610689611f18565b5b6040519080825280602002602001820160405280156106b85781602001602082028036833780820191505090505b50905060005b8451811015610725576106f56106dd8287610ea890919063ffffffff16565b6106f08387610ebc90919063ffffffff16565b610341565b82828151811061070857610707612dab565b5b6020026020010181815250508061071e90612e09565b90506106be565b508091505092915050565b610738610da8565b73ffffffffffffffffffffffffffffffffffffffff168373ffffffffffffffffffffffffffffffffffffffff1614158015610781575061077f8361077a610da8565b6108e2565b155b156107cc5761078e610da8565b836040517fe237d9220000000000000000000000000000000000000000000000000000000081526004016107c3929190612d59565b60405180910390fd5b6107d7838383610ed0565b505050565b6107e4610bba565b6107ee6000610f64565b565b6107f8610bba565b6108048484848461102a565b61080d8361052b565b5050505050565b6000600360009054906101000a900473ffffffffffffffffffffffffffffffffffffffff16905090565b610850610849610da8565b83836110c3565b5050565b6004805461086190612992565b80601f016020809104026020016040519081016040528092919081815260200182805461088d90612992565b80156108da5780601f106108af576101008083540402835291602001916108da565b820191906000526020600020905b8154815290600101906020018083116108bd57829003601f168201915b505050505081565b6000600160008473ffffffffffffffffffffffffffffffffffffffff1673ffffffffffffffffffffffffffffffffffffffff16815260200190815260200160002060008373ffffffffffffffffffffffffffffffffffffffff1673ffffffffffffffffffffffffffffffffffffffff16815260200190815260200160002060009054906101000a900460ff16905092915050565b6000610980610da8565b90508073ffffffffffffffffffffffffffffffffffffffff168673ffffffffffffffffffffffffffffffffffffffff16141580156109c557506109c386826108e2565b155b15610a095780866040517fe237d922000000000000000000000000000000000000000000000000000000008152600401610a00929190612d59565b60405180910390fd5b610a168686868686611233565b505050505050565b610a26610bba565b600073ffffffffffffffffffffffffffffffffffffffff168173ffffffffffffffffffffffffffffffffffffffff1603610a985760006040517f1e4fbdf7000000000000000000000000000000000000000000000000000000008152600401610a8f9190612785565b60405180910390fd5b610aa181610f64565b50565b610aac610da8565b73ffffffffffffffffffffffffffffffffffffffff168373ffffffffffffffffffffffffffffffffffffffff1614158015610af55750610af383610aee610da8565b6108e2565b155b15610b4057610b02610da8565b836040517fe237d922000000000000000000000000000000000000000000000000000000008152600401610b37929190612d59565b60405180910390fd5b610b4b83838361133e565b505050565b60007f01ffc9a7000000000000000000000000000000000000000000000000000000007bffffffffffffffffffffffffffffffffffffffffffffffffffffffff1916827bffffffffffffffffffffffffffffffffffffffffffffffffffffffff1916149050919050565b610bc2610da8565b73ffffffffffffffffffffffffffffffffffffffff16610be0610814565b73ffffffffffffffffffffffffffffffffffffffff1614610c3f57610c03610da8565b6040517f118cdaa7000000000000000000000000000000000000000000000000000000008152600401610c369190612785565b60405180910390fd5b565b8060029081610c509190612b6f565b5050565b606060006001610c63846113e5565b01905060008167ffffffffffffffff811115610c8257610c81611f18565b5b6040519080825280601f01601f191660200182016040528015610cb45781602001600182028036833780820191505090505b509050600082602001820190505b600115610d17578080600190039150507f3031323334353637383961626364656600000000000000000000000000000000600a86061a8153600a8581610d0b57610d0a612e51565b5b04945060008503610cc2575b819350505050919050565b600073ffffffffffffffffffffffffffffffffffffffff168473ffffffffffffffffffffffffffffffffffffffff1603610d945760006040517f57f447ce000000000000000000000000000000000000000000000000000000008152600401610d8b9190612785565b60405180910390fd5b610da2600085858585611538565b50505050565b600033905090565b600073ffffffffffffffffffffffffffffffffffffffff168473ffffffffffffffffffffffffffffffffffffffff1603610e225760006040517f57f447ce000000000000000000000000000000000000000000000000000000008152600401610e199190612785565b60405180910390fd5b600073ffffffffffffffffffffffffffffffffffffffff168573ffffffffffffffffffffffffffffffffffffffff1603610e945760006040517f01a83514000000000000000000000000000000000000000000000000000000008152600401610e8b9190612785565b60405180910390fd5b610ea18585858585611538565b5050505050565b600060208202602084010151905092915050565b600060208202602084010151905092915050565b600073ffffffffffffffffffffffffffffffffffffffff168373ffffffffffffffffffffffffffffffffffffffff1603610f425760006040517f01a83514000000000000000000000000000000000000000000000000000000008152600401610f399190612785565b60405180910390fd5b610f5f836000848460405180602001604052806000815250611538565b505050565b6000600360009054906101000a900473ffffffffffffffffffffffffffffffffffffffff16905081600360006101000a81548173ffffffffffffffffffffffffffffffffffffffff021916908373ffffffffffffffffffffffffffffffffffffffff1602179055508173ffffffffffffffffffffffffffffffffffffffff168173ffffffffffffffffffffffffffffffffffffffff167f8be0079c531659141344cd1fd0a4f28419497f9722a3daafe3b4186f6b6457e060405160405180910390a35050565b600073ffffffffffffffffffffffffffffffffffffffff168473ffffffffffffffffffffffffffffffffffffffff160361109c5760006040517f57f447ce0000000000000000000000000000000000000000000000000000000081526004016110939190612785565b60405180910390fd5b6000806110a985856115ea565b915091506110bb600087848487611538565b505050505050565b600073ffffffffffffffffffffffffffffffffffffffff168273ffffffffffffffffffffffffffffffffffffffff16036111355760006040517fced3e10000000000000000000000000000000000000000000000000000000000815260040161112c9190612785565b60405180910390fd5b80600160008573ffffffffffffffffffffffffffffffffffffffff1673ffffffffffffffffffffffffffffffffffffffff16815260200190815260200160002060008473ffffffffffffffffffffffffffffffffffffffff1673ffffffffffffffffffffffffffffffffffffffff16815260200190815260200160002060006101000a81548160ff0219169083151502179055508173ffffffffffffffffffffffffffffffffffffffff168373ffffffffffffffffffffffffffffffffffffffff167f17307eab39ab6107e8899845ad3d59bd9653f200f220920489ca2b5937696c31836040516112269190611ee2565b60405180910390a3505050565b600073ffffffffffffffffffffffffffffffffffffffff168473ffffffffffffffffffffffffffffffffffffffff16036112a55760006040517f57f447ce00000000000000000000000000000000000000000000000000000000815260040161129c9190612785565b60405180910390fd5b600073ffffffffffffffffffffffffffffffffffffffff168573ffffffffffffffffffffffffffffffffffffffff16036113175760006040517f01a8351400000000000000000000000000000000000000000000000000000000815260040161130e9190612785565b60405180910390fd5b60008061132485856115ea565b915091506113358787848487611538565b50505050505050565b600073ffffffffffffffffffffffffffffffffffffffff168373ffffffffffffffffffffffffffffffffffffffff16036113b05760006040517f01a835140000000000000000000000000000000000000000000000000000000081526004016113a79190612785565b60405180910390fd5b6000806113bd84846115ea565b915091506113de856000848460405180602001604052806000815250611538565b5050505050565b600080600090507a184f03e93ff9f4daa797ed6e38ed64bf6a1f0100000000000000008310611443577a184f03e93ff9f4daa797ed6e38ed64bf6a1f010000000000000000838161143957611438612e51565b5b0492506040810190505b6d04ee2d6d415b85acef81000000008310611480576d04ee2d6d415b85acef8100000000838161147657611475612e51565b5b0492506020810190505b662386f26fc1000083106114af57662386f26fc1000083816114a5576114a4612e51565b5b0492506010810190505b6305f5e10083106114d8576305f5e10083816114ce576114cd612e51565b5b0492506008810190505b61271083106114fd5761271083816114f3576114f2612e51565b5b0492506004810190505b60648310611520576064838161151657611515612e51565b5b0492506002810190505b600a831061152f576001810190505b80915050919050565b6115448585858561161a565b600073ffffffffffffffffffffffffffffffffffffffff168473ffffffffffffffffffffffffffffffffffffffff16146115e3576000611582610da8565b905060018451036115d25760006115a3600086610ebc90919063ffffffff16565b905060006115bb600086610ebc90919063ffffffff16565b90506115cb8389898585896119c8565b50506115e1565b6115e0818787878787611b7c565b5b505b5050505050565b60608060405191506001825283602083015260408201905060018152826020820152604081016040529250929050565b805182511461166457815181516040517f5b05999100000000000000000000000000000000000000000000000000000000815260040161165b929190612d82565b60405180910390fd5b600061166e610da8565b905060005b83518110156118835760006116918286610ebc90919063ffffffff16565b905060006116a88386610ebc90919063ffffffff16565b9050600073ffffffffffffffffffffffffffffffffffffffff168873ffffffffffffffffffffffffffffffffffffffff16146117d557600080600084815260200190815260200160002060008a73ffffffffffffffffffffffffffffffffffffffff1673ffffffffffffffffffffffffffffffffffffffff1681526020019081526020016000205490508181101561177d57888183856040517f03dee4c50000000000000000000000000000000000000000000000000000000081526004016117749493929190612e80565b60405180910390fd5b81810360008085815260200190815260200160002060008b73ffffffffffffffffffffffffffffffffffffffff1673ffffffffffffffffffffffffffffffffffffffff16815260200190815260200160002081905550505b600073ffffffffffffffffffffffffffffffffffffffff168773ffffffffffffffffffffffffffffffffffffffff1614611870578060008084815260200190815260200160002060008973ffffffffffffffffffffffffffffffffffffffff1673ffffffffffffffffffffffffffffffffffffffff16815260200190815260200160002060008282546118689190612ec5565b925050819055505b50508061187c90612e09565b9050611673565b5060018351036119425760006118a3600085610ebc90919063ffffffff16565b905060006118bb600085610ebc90919063ffffffff16565b90508573ffffffffffffffffffffffffffffffffffffffff168773ffffffffffffffffffffffffffffffffffffffff168473ffffffffffffffffffffffffffffffffffffffff167fc3d58168c5ae7397731d063d5bbf3d657854427343f4c083240f7aacaa2d0f628585604051611933929190612d82565b60405180910390a450506119c1565b8373ffffffffffffffffffffffffffffffffffffffff168573ffffffffffffffffffffffffffffffffffffffff168273ffffffffffffffffffffffffffffffffffffffff167f4a39dc06d4c0dbc64b70af90fd698a233a518aa5d07e595d983b8c0526c8f7fb86866040516119b8929190612ef9565b60405180910390a45b5050505050565b60008473ffffffffffffffffffffffffffffffffffffffff163b1115611b74578373ffffffffffffffffffffffffffffffffffffffff1663f23a6e6187878686866040518663ffffffff1660e01b8152600401611a29959493929190612f85565b6020604051808303816000875af1925050508015611a6557506040513d601f19601f82011682018060405250810190611a629190612ff4565b60015b611ae9573d8060008114611a95576040519150601f19603f3d011682016040523d82523d6000602084013e611a9a565b606091505b506000815103611ae157846040517f57f447ce000000000000000000000000000000000000000000000000000000008152600401611ad89190612785565b60405180910390fd5b805181602001fd5b63f23a6e6160e01b7bffffffffffffffffffffffffffffffffffffffffffffffffffffffff1916817bffffffffffffffffffffffffffffffffffffffffffffffffffffffff191614611b7257846040517f57f447ce000000000000000000000000000000000000000000000000000000008152600401611b699190612785565b60405180910390fd5b505b505050505050565b60008473ffffffffffffffffffffffffffffffffffffffff163b1115611d28578373ffffffffffffffffffffffffffffffffffffffff1663bc197c8187878686866040518663ffffffff1660e01b8152600401611bdd959493929190613021565b6020604051808303816000875af1925050508015611c1957506040513d601f19601f82011682018060405250810190611c169190612ff4565b60015b611c9d573d8060008114611c49576040519150601f19603f3d011682016040523d82523d6000602084013e611c4e565b606091505b506000815103611c9557846040517f57f447ce000000000000000000000000000000000000000000000000000000008152600401611c8c9190612785565b60405180910390fd5b805181602001fd5b63bc197c8160e01b7bffffffffffffffffffffffffffffffffffffffffffffffffffffffff1916817bffffffffffffffffffffffffffffffffffffffffffffffffffffffff191614611d2657846040517f57f447ce000000000000000000000000000000000000000000000000000000008152600401611d1d9190612785565b60405180910390fd5b505b505050505050565b6000604051905090565b600080fd5b600080fd5b600073ffffffffffffffffffffffffffffffffffffffff82169050919050565b6000611d6f82611d44565b9050919050565b611d7f81611d64565b8114611d8a57600080fd5b50565b600081359050611d9c81611d76565b92915050565b6000819050919050565b611db581611da2565b8114611dc057600080fd5b50565b600081359050611dd281611dac565b92915050565b60008060408385031215611def57611dee611d3a565b5b6000611dfd85828601611d8d565b9250506020611e0e85828601611dc3565b9150509250929050565b611e2181611da2565b82525050565b6000602082019050611e3c6000830184611e18565b92915050565b60007fffffffff0000000000000000000000000000000000000000000000000000000082169050919050565b611e7781611e42565b8114611e8257600080fd5b50565b600081359050611e9481611e6e565b92915050565b600060208284031215611eb057611eaf611d3a565b5b6000611ebe84828501611e85565b91505092915050565b60008115159050919050565b611edc81611ec7565b82525050565b6000602082019050611ef76000830184611ed3565b92915050565b600080fd5b600080fd5b6000601f19601f8301169050919050565b7f4e487b7100000000000000000000000000000000000000000000000000000000600052604160045260246000fd5b611f5082611f07565b810181811067ffffffffffffffff82111715611f6f57611f6e611f18565b5b80604052505050565b6000611f82611d30565b9050611f8e8282611f47565b919050565b600067ffffffffffffffff821115611fae57611fad611f18565b5b611fb782611f07565b9050602081019050919050565b82818337600083830152505050565b6000611fe6611fe184611f93565b611f78565b90508281526020810184848401111561200257612001611f02565b5b61200d848285611fc4565b509392505050565b600082601f83011261202a57612029611efd565b5b813561203a848260208601611fd3565b91505092915050565b60006020828403121561205957612058611d3a565b5b600082013567ffffffffffffffff81111561207757612076611d3f565b5b61208384828501612015565b91505092915050565b6000602082840312156120a2576120a1611d3a565b5b60006120b084828501611dc3565b91505092915050565b600081519050919050565b600082825260208201905092915050565b60005b838110156120f35780820151818401526020810190506120d8565b60008484015250505050565b600061210a826120b9565b61211481856120c4565b93506121248185602086016120d5565b61212d81611f07565b840191505092915050565b6000602082019050818103600083015261215281846120ff565b905092915050565b600067ffffffffffffffff82111561217557612174611f18565b5b602082029050602081019050919050565b600080fd5b600061219e6121998461215a565b611f78565b905080838252602082019050602084028301858111156121c1576121c0612186565b5b835b818110156121ea57806121d68882611dc3565b8452602084019350506020810190506121c3565b5050509392505050565b600082601f83011261220957612208611efd565b5b813561221984826020860161218b565b91505092915050565b600067ffffffffffffffff82111561223d5761223c611f18565b5b61224682611f07565b9050602081019050919050565b600061226661226184612222565b611f78565b90508281526020810184848401111561228257612281611f02565b5b61228d848285611fc4565b509392505050565b600082601f8301126122aa576122a9611efd565b5b81356122ba848260208601612253565b91505092915050565b600080600080608085870312156122dd576122dc611d3a565b5b60006122eb87828801611d8d565b945050602085013567ffffffffffffffff81111561230c5761230b611d3f565b5b612318878288016121f4565b935050604085013567ffffffffffffffff81111561233957612338611d3f565b5b612345878288016121f4565b925050606085013567ffffffffffffffff81111561236657612365611d3f565b5b61237287828801612295565b91505092959194509250565b600080600080600060a0868803121561239a57612399611d3a565b5b60006123a888828901611d8d565b95505060206123b988828901611d8d565b945050604086013567ffffffffffffffff8111156123da576123d9611d3f565b5b6123e6888289016121f4565b935050606086013567ffffffffffffffff81111561240757612406611d3f565b5b612413888289016121f4565b925050608086013567ffffffffffffffff81111561243457612433611d3f565b5b61244088828901612295565b9150509295509295909350565b600067ffffffffffffffff82111561246857612467611f18565b5b602082029050602081019050919050565b600061248c6124878461244d565b611f78565b905080838252602082019050602084028301858111156124af576124ae612186565b5b835b818110156124d857806124c48882611d8d565b8452602084019350506020810190506124b1565b5050509392505050565b600082601f8301126124f7576124f6611efd565b5b8135612507848260208601612479565b91505092915050565b6000806040838503121561252757612526611d3a565b5b600083013567ffffffffffffffff81111561254557612544611d3f565b5b612551858286016124e2565b925050602083013567ffffffffffffffff81111561257257612571611d3f565b5b61257e858286016121f4565b9150509250929050565b600081519050919050565b600082825260208201905092915050565b6000819050602082019050919050565b6125bd81611da2565b82525050565b60006125cf83836125b4565b60208301905092915050565b6000602082019050919050565b60006125f382612588565b6125fd8185612593565b9350612608836125a4565b8060005b8381101561263957815161262088826125c3565b975061262b836125db565b92505060018101905061260c565b5085935050505092915050565b6000602082019050818103600083015261266081846125e8565b905092915050565b60008060006060848603121561268157612680611d3a565b5b600061268f86828701611d8d565b935050602084013567ffffffffffffffff8111156126b0576126af611d3f565b5b6126bc868287016121f4565b925050604084013567ffffffffffffffff8111156126dd576126dc611d3f565b5b6126e9868287016121f4565b9150509250925092565b6000806000806080858703121561270d5761270c611d3a565b5b600061271b87828801611d8d565b945050602061272c87828801611dc3565b935050604061273d87828801611dc3565b925050606085013567ffffffffffffffff81111561275e5761275d611d3f565b5b61276a87828801612295565b91505092959194509250565b61277f81611d64565b82525050565b600060208201905061279a6000830184612776565b92915050565b6127a981611ec7565b81146127b457600080fd5b50565b6000813590506127c6816127a0565b92915050565b600080604083850312156127e3576127e2611d3a565b5b60006127f185828601611d8d565b9250506020612802858286016127b7565b9150509250929050565b6000806040838503121561282357612822611d3a565b5b600061283185828601611d8d565b925050602061284285828601611d8d565b9150509250929050565b600080600080600060a0868803121561286857612867611d3a565b5b600061287688828901611d8d565b955050602061288788828901611d8d565b945050604061289888828901611dc3565b93505060606128a988828901611dc3565b925050608086013567ffffffffffffffff8111156128ca576128c9611d3f565b5b6128d688828901612295565b9150509295509295909350565b6000602082840312156128f9576128f8611d3a565b5b600061290784828501611d8d565b91505092915050565b60008060006060848603121561292957612928611d3a565b5b600061293786828701611d8d565b935050602061294886828701611dc3565b925050604061295986828701611dc3565b9150509250925092565b7f4e487b7100000000000000000000000000000000000000000000000000000000600052602260045260246000fd5b600060028204905060018216806129aa57607f821691505b6020821081036129bd576129bc612963565b5b50919050565b60008190508160005260206000209050919050565b60006020601f8301049050919050565b600082821b905092915050565b600060088302612a257fffffffffffffffffffffffffffffffffffffffffffffffffffffffffffffffff826129e8565b612a2f86836129e8565b95508019841693508086168417925050509392505050565b6000819050919050565b6000612a6c612a67612a6284611da2565b612a47565b611da2565b9050919050565b6000819050919050565b612a8683612a51565b612a9a612a9282612a73565b8484546129f5565b825550505050565b600090565b612aaf612aa2565b612aba818484612a7d565b505050565b5b81811015612ade57612ad3600082612aa7565b600181019050612ac0565b5050565b601f821115612b2357612af4816129c3565b612afd846129d8565b81016020851015612b0c578190505b612b20612b18856129d8565b830182612abf565b50505b505050565b600082821c905092915050565b6000612b4660001984600802612b28565b1980831691505092915050565b6000612b5f8383612b35565b9150826002028217905092915050565b612b78826120b9565b67ffffffffffffffff811115612b9157612b90611f18565b5b612b9b8254612992565b612ba6828285612ae2565b600060209050601f831160018114612bd95760008415612bc7578287015190505b612bd18582612b53565b865550612c39565b601f198416612be7866129c3565b60005b82811015612c0f57848901518255600182019150602085019450602081019050612bea565b86831015612c2c5784890151612c28601f891682612b35565b8355505b6001600288020188555050505b505050505050565b600081905092915050565b60008154612c5981612992565b612c638186612c41565b94506001821660008114612c7e5760018114612c9357612cc6565b60ff1983168652811515820286019350612cc6565b612c9c856129c3565b60005b83811015612cbe57815481890152600182019150602081019050612c9f565b838801955050505b50505092915050565b6000612cda826120b9565b612ce48185612c41565b9350612cf48185602086016120d5565b80840191505092915050565b7f2e6a736f6e000000000000000000000000000000000000000000000000000000815250565b6000612d328285612c4c565b9150612d3e8284612ccf565b9150612d4982612d00565b6005820191508190509392505050565b6000604082019050612d6e6000830185612776565b612d7b6020830184612776565b9392505050565b6000604082019050612d976000830185611e18565b612da46020830184611e18565b9392505050565b7f4e487b7100000000000000000000000000000000000000000000000000000000600052603260045260246000fd5b7f4e487b7100000000000000000000000000000000000000000000000000000000600052601160045260246000fd5b6000612e1482611da2565b91507fffffffffffffffffffffffffffffffffffffffffffffffffffffffffffffffff8203612e4657612e45612dda565b5b600182019050919050565b7f4e487b7100000000000000000000000000000000000000000000000000000000600052601260045260246000fd5b6000608082019050612e956000830187612776565b612ea26020830186611e18565b612eaf6040830185611e18565b612ebc6060830184611e18565b95945050505050565b6000612ed082611da2565b9150612edb83611da2565b9250828201905080821115612ef357612ef2612dda565b5b92915050565b60006040820190508181036000830152612f1381856125e8565b90508181036020830152612f2781846125e8565b90509392505050565b600081519050919050565b600082825260208201905092915050565b6000612f5782612f30565b612f618185612f3b565b9350612f718185602086016120d5565b612f7a81611f07565b840191505092915050565b600060a082019050612f9a6000830188612776565b612fa76020830187612776565b612fb46040830186611e18565b612fc16060830185611e18565b8181036080830152612fd38184612f4c565b90509695505050505050565b600081519050612fee81611e6e565b92915050565b60006020828403121561300a57613009611d3a565b5b600061301884828501612fdf565b91505092915050565b600060a0820190506130366000830188612776565b6130436020830187612776565b818103604083015261305581866125e8565b9050818103606083015261306981856125e8565b9050818103608083015261307d8184612f4c565b9050969550505050505056fea2646970667358221220cea2f80ae3c28625a116cddbfb17602916328a037bcd71a76ea0b43c117c150664736f6c63430008140033",
  "linkReferences": {},
  "deployedLinkReferences": {}
}